:100000000C941B0A0C94460A0C94460A0C94460A5B
:100010000C94460A0C94460A0C94460A0C94460A20
:100020000C94460A0C94460A0C94D97D0C94527C8C
:100030000C94460A0C94460A0C94460A0C94460A00
:100040000C94460A0C945D660C94460A0C94460A7D
:100050000C94460A0C94460A0C945B6F0C94157B26
:100060000C94460A0C94460A0C94460A0C94460AD0
:100070000C94460A0C94460A0C94460A0C94460AC0
:100080000C94460A0C94460A0C94460A0C94460AB0
:100090000C94460A0C94460A084AD73B3BCE016EA4
:1000A00084BCBFFDC12F3D6C74319ABD56833DDACF
:1000B0003D00C77F11BED9E4BB4C3E916BAAAABEDE
:1000C000000000803F05A84CCDB2D44EB93836A907
:1000D000020C50B9918688083CA6AAAA2ABE000044
:1000E00000803F6563686F3A0043616E6E6F7420F5
:1000F000656E746572207375626469723A00457248
:10010000726F723A006572726F72207772697469E9
:100110006E6720746F2066696C65004E6F742053A3
:1001200044207072696E74696E67002F005344201A
:100130007072696E74696E67206279746520002E32
:100140000044656C6574696F6E206661696C6564F6
:100150002C2046696C653A200046696C6520646510
:100160006C657465643A002E006F70656E20666180
:10017000696C65642C2046696C653A200057726989
:1001800074696E6720746F2066696C653A20002E72
:10019000006F70656E206661696C65642C2046692D
:1001A0006C653A20002E006F70656E206661696C88
:1001B00065642C2046696C653A200046696C6520B0
:1001C00073656C6563746564002053697A653A00F1
:1001D00046696C65206F70656E65643A002E006F2D
:1001E00070656E206661696C65642C2046696C657B
:1001F0003A2000776F726B446972206F70656E20D1
:100200006661696C656400776F726B446972206F18
:1002100070656E206661696C65640053442063619B
:100220007264206F6B006F70656E526F6F74206622
:1002300061696C656400766F6C756D652E696E69B9
:1002400074206661696C656400534420696E69744A
:10025000206661696C004572726F723A0050726973
:100260006E7465722068616C7465642E206B696CB5
:100270006C28292063616C6C6564202121006F6B00
:1002800000526573656E643A006563686F3A0022D8
:1002900000556E6B6E6F776E20636F6D6D616E646F
:1002A0003A22007A5F6D696E3A00795F6D696E3A45
:1002B00000785F6D696E3A005A3A00593A0020435F
:1002C0006F756E7420583A00453A005A3A00593A10
:1002D00000583A004649524D574152455F4E414DF4
:1002E000453A4D61726C696E2056313B20537072F5
:1002F000696E7465722F6772626C206D61736875C8
:100300007020666F722067656E36204649524D57E1
:100310004152455F55524C3A687474703A2F2F77AA
:1003200077772E6D656E64656C2D70617274732EB7
:10033000636F6D2050524F544F434F4C5F564552A0
:1003400053494F4E3A312E30204D414348494E4596
:100350005F545950453A4D656E64656C204558545C
:1003600052554445525F434F554E543A310A00208E
:10037000423A0020453A00543A0020573A002045BE
:100380003A00543A0020403A0020423A006F6B2075
:10039000543A00456E642066696C65206C6973741C
:1003A00000426567696E2066696C65206C697374CC
:1003B0000053657474696E67732053746F7265645B
:1003C0000053746F7265642073657474696E67732B
:1003D000207265747265697665643A002059002060
:1003E00020204D323039205800536B6577206661EC
:1003F00063746F72733A00205A0020590020202045
:100400004D3230382058004D6178206C656E67742D
:1004100068733A002044002049002020204D3330EA
:10042000312050005049442073657474696E6773BD
:100430003A00204500205A00205800204200205455
:100440000020204D323035205300416476616E63C8
:100450006564207661726961626C65733A20533D10
:100460004D696E20666565647261746520286D6DE6
:100470002F73292C20543D4D696E2074726176656E
:100480006C20666565647261746520286D6D2F73DC
:10049000292C20423D6D696E696D756D207365670D
:1004A0006D656E742074696D6520286D73292C202C
:1004B000583D6D6178696D756D207859206A657257
:1004C0006B20286D6D2F73292C20205A3D6D61788B
:1004D000696D756D205A206A65726B20286D6D2FCD
:1004E00073290020540020204D3230342053004125
:1004F0006363656C65726174696F6E3A20533D6128
:100500006363656C65726174696F6E2C20543D7213
:1005100065747261637420616363656C6572617494
:10052000696F6E00204500205A0020590020204DA0
:100530003230312058004D6178696D756D2041630E
:1005400063656C65726174696F6E20286D6D2F73C1
:1005500032293A00204500205A0020590020204D21
:100560003230332058004D6178696D756D206665B5
:100570006564726174657320286D6D2F73293A006C
:10058000204500205A0020590020204D39322058A3
:100590000053746570732070657220756E69743ACB
:1005A00000446F6E65207072696E74696E672066B4
:1005B000696C65006F6B004E6F204C696E65204E54
:1005C000756D626572207769746820636865636B16
:1005D00073756D2C204C617374204C696E653A0004
:1005E0004E6F20436865636B73756D20776974681F
:1005F000206C696E65206E756D6265722C204C6191
:100600007374204C696E653A00636865636B73753B
:100610006D206D69736D617463682C204C61737417
:10062000204C696E653A004C696E65204E756D62AE
:100630006572206973206E6F74204C617374204C56
:10064000696E65204E756D6265722B312C204C6190
:100650007374204C696E653A00446F6E6520736157
:1006600076696E672066696C652E006F6B002020CE
:10067000506C616E6E657242756666657242797421
:1006800065733A20002046726565204D656D6F7276
:10069000793A2000646F6F6B616C6F6F7379002023
:1006A0007C20417574686F723A2000323031352DEC
:1006B00030312D323100204C6173742055706461EB
:1006C0007465643A2000312E302E302052433200BF
:1006D0004D61726C696E3A200020536F66747761C9
:1006E0007265205265736574002057617463686495
:1006F0006F67205265736574002042726F776E20B9
:100700006F75742052657365740020457874657246
:100710006E616C20526573657400506F7765725519
:1007200070007374617274002200656E7175656982
:100730006E672022006563686F3A0020746F6F2037
:100740006C6F6E6720657874727573696F6E207058
:10075000726576656E7465640020636F6C642065F5
:100760007874727573696F6E2070726576656E74D9
:100770006564007C3C3E5E2B3D3F2F5B5D3B2C2A3D
:10078000225C0024F404D9201BC40C5C0E9804C421
:10079000095F0265077101F405F900FB04B3004825
:1007A000048700C10369005803550003034500BED8
:1007B000023A008402310053022A00290225000473
:1007C000022000E4011C00C8011900AF01170098C5
:1007D0000114008401130071011000610110005127
:1007E000010E0043010D0036010B002B010B002010
:1007F000010B00150109000C01090003010800FBB1
:10080000000800F3000800EB000700E4000600DE2B
:10081000000600D8000600D2000600CC000500C784
:10082000000500C2000500BD000400B9000400B5C9
:10083000000400B1000400AD000400A9000400A5FC
:10084000000300A20003009F0004009B0003009827
:100850000003009500020093000300900003008D48
:100860000002008B00030088000200860002008462
:10087000000300810002007F0002007D0002007B77
:100880000002007900020077000100760002007487
:1008900000020072000100710002006F0002006D92
:1008A0000001006C0002006A00010069000200679C
:1008B00000010066000100650001006400020062A2
:1008C00000010061000100600001005F0002005DA6
:1008D0000001005C0001005B0001005A00010059AA
:1008E00000010058000100570001005600010055AA
:1008F00000010054000100530000005300010052A9
:1009000000010051000100500001004F0001004EA5
:100910000000004E0001004D0001004C0001004BA2
:100920000000004B0001004A00010049000100489E
:10093000000000480001004700010046000000469A
:100940000001004500000045000100440001004393
:10095000000000430001004200000042000100418D
:1009600000000041000100400001003F0000003F86
:100970000001003E0000003E0001003D0000003D7F
:100980000001003C0000003C0000003C0001003B76
:100990000000003B0001003A0000003A000100396D
:1009A0000000003900010038000000380000003865
:1009B000000100370000003700010036000000365B
:1009C0000000003600010035000000350000003551
:1009D0000001003400000034000000340001003346
:1009E000000000330000003300010032000000323C
:1009F0000000003200010031000000310000003131
:100A00000001003000000030000000300001002F25
:100A10000000002F0000002F0000002F0001002E1A
:100A20000000002E0000002E0001002D0000002D0F
:100A30000000002D0000002D0001002C0000002C03
:100A40000000002C0000002C0001002B0000002BF7
:100A50000000002B0000002B0001002A0000002AEB
:100A60000000002A0000002A0001002900000029DF
:100A700000000029000000290000002900010028D2
:100A800000000028000000280000002800000028C6
:100A900000010027000000270000002700000027B9
:100AA00000000027000100260000002600000026AC
:100AB000000000260000002600010025000000259F
:100AC0000000002500000025000000250000002592
:100AD0000001002400000024000000240000002485
:100AE0000000002400010023000000230000002378
:100AF000000000230000002300000023000000236A
:100B0000000100220000002200000022000000225C
:100B1000000000220000002200010021000000214E
:100B20000000002100000021000000210000002141
:100B30000000002100010020000000200000002033
:100B40000000002000000020000000200000002025
:100B5000000000200001001F0000001F0000001F17
:100B60000000001F0000001F0000001F0000001F09
:100B70000001001E0000001E0000001E0000001EFC
:100B800000000024F4D43050C38E20C2A24017824B
:100B90008B7011127A910D816CD90AA861E108C796
:100BA000586607615143061E4B5D05C145A7041AEF
:100BB000411104093D9803713931034036DB026568
:100BC000339102D4305402802E1D02632CEE017545
:100BD0002AC501B028A001102781018F2564012BAF
:100BE000244B01E0223401AC211F018D200D018036
:100BF0001FFC00841EED00971DDF00B81CD200E62C
:100C00001BC600201BBC00641AB200B219A8000A5F
:100C100019A0006A189900D117910040178B00B5F0
:100C200016840031167E00B31579003A157300C79B
:100C3000146F0058146A00EE1366008813630025D1
:100C4000135E00C7125B006C12570015125400C1EE
:100C500011510070114F0021114B00D61049008D29
:100C60001047004610440002104200C00F400080B0
:100C70000F3E00420F3C00060F3B00CB0E380093A6
:100C80000E37005C0E3500270E3400F30D3200C124
:100C90000D3100900D3000600D2E00320D2D00053D
:100CA0000D2C00D90C2B00AE0C2900850C29005C02
:100CB0000C2700350C27000E0C2600E80B2400C47E
:100CC0000B2400A00B23007D0B23005A0B210039BD
:100CD0000B2100180B2000F80A1F00D90A1E00BBC8
:100CE0000A1E009D0A1D00800A1D00630A1C0047A1
:100CF0000A1B002C0A1B00110A1A00F7091A00DD52
:100D0000091900C4091900AB091900920917007BE1
:100D1000091800630917004C09160036091600204F
:100D20000916000A091500F5081500E0081400CCA2
:100D3000081400B8081400A4081400900813007DDB
:100D40000812006B081300580812004608120034FD
:100D5000081100230811001208110001081100F009
:100D6000071000E0071000D0071000C0071000B007
:100D7000070F00A107100091070E0083070F0074F2
:100D8000070F0065070E0057070E0049070E003BCE
:100D9000070D002E070E0020070D0013070D00069B
:100DA000070D00F9060C00ED060D00E0060C00D45E
:100DB000060C00C8060C00BC060C00B0060C00A413
:100DC000060B0099060C008D060B0082060B0077BF
:100DD000060B006C060B0061060A0057060B004C60
:100DE000060A0042060A0038060A002E060A0024F7
:100DF000060A001A060A001006090007060A00FD86
:100E0000050900F4050900EB050900E2050900D910
:100E1000050900D0050900C7050900BE050900B590
:100E2000050800AD050800A50509009C050800940B
:100E30000508008C050800840508007C050800747E
:100E40000508006C050700650508005D05070056EC
:100E50000508004E05070047050700400508003853
:100E6000050700310507002A050700230507001CB8
:100E7000050600160507000F050700080506000215
:100E8000050700FB040600F5040700EE040600E871
:100E9000040600E2040700DB040600D5040600CFC8
:100EA000040600C9040600C3040600BD040600B71A
:100EB000040600B1040500AC040600A6040600A068
:100EC0000405009B04060095040500900406008AB2
:100ED00004050085040500800406007A04050075F9
:100EE000040500700405006B04050066040500613C
:100EF0000405005C04050057040500520405004D7C
:100F000004050048040500430405003E0404003ABB
:100F100004050035040500300404002C04050027F6
:100F2000040400230405001E0404001A040400162F
:100F3000040500110404000D040400090405000464
:100F400004040000040400FC030400F8030400F49B
:100F5000030400F0030400EC030400E8030400E4CD
:100F6000030400E0030400DC030400D8030400D4FD
:100F7000030400D0030400CC030400C8030300C52D
:100F80000303006563686F3A00205A3A0020593A1B
:100F90000020583A00656E6473746F70732068693E
:100FA000743A20004572726F723A0054656D706534
:100FB000726174757265206865617465642062652C
:100FC00064207377697463686564206F66662E2099
:100FD0004D415854454D502074726967676572657C
:100FE00064202121003A204578747275646572206E
:100FF0007377697463686564206F66662E204D4957
:101000004E54454D5020747269676765726564205F
:1010100021003A204578747275646572207377698F
:101020007463686564206F66662E204D4158544590
:101030004D5020747269676765726564202100C035
:1010400001FA00F001F5003002F0007002EB00A0A0
:1010500002E600C002E1001003DC005003D700E00C
:1010600003D2009004CD008004C800E005BE0060FB
:1010700006B9004007AA00F008A000700B9600F027
:101080000D8C00E0108200E0137800F0176E00D0A5
:10109000196900701B6400401E5F0010205A00F0A8
:1010A00025500080294600D0303C00A03237001087
:1010B00035320020392D0020392800703A2300A055
:1010C0003B1E00A03C1900203D1600003F030020FD
:1010D0002D20496E76616C69642065787472756440
:1010E0006572206E756D626572202100202D204989
:1010F0006E76616C696420657874727564657220BF
:101100006E756D626572210020403A006F6B20544D
:101110003A00504944204175746F74756E652066BD
:1011200061696C656420212C2054656D7065726165
:101130007475726520746F206869676800204B645D
:101140003A2000204B693A2000204B703A200020C2
:101150004E6F206F76657273686F6F742000204B3E
:10116000643A2000204B693A2000204B703A20005E
:1011700020536F6D65206F76657273686F6F742092
:1011800000204B643A2000204B693A2000204B702D
:101190003A200020436C6173696320504944200069
:1011A0002054753A2000204B753A2000206D61785C
:1011B0003A2000206D696E3A200020643A20002019
:1011C000626961733A200070012C0190012701B01F
:1011D000012201C0011D01F00118011002130130AC
:1011E000020E016002090190020401C002FF00002A
:1011F00003FA004003F5008003F000D003EB002069
:1012000004E6007004E100E004DC004005D700C003
:1012100005D2004006CD00D006C8008007C30030CC
:1012200008BE00F008B900C009B400B00AAF00B0B1
:101230000BAA00D00CA500000EA000500F9B00C010
:101240001096005012910000148C00C0158700B059
:10125000178200B0197D00D01B7800001E7300407B
:10126000206E0090226900F024640040275F009007
:10127000295A00E02B5500102E500020304B001052
:10128000324600E033410090353C001037370070A3
:10129000383200A0392D00B03A2800A03B2300606E
:1012A0003C1E00103D1900903D1400103E0F0070D0
:1012B0003E0A00C03E0500003F000001290229044B
:1012C0002908291029202940298029012C022C01D4
:1012D00026022604260826102620264026802640A0
:1012E0002C802C01230223042308231023202340D5
:1012F00023802301200220042008201020202040E9
:10130000208020102C202C012F022F042F082F10BA
:101310002F202F402F802F7EFE7EFD7EFB7EF77ECE
:10132000EF7EDF7EBF7E7F000100005B13120002B4
:1013300000006D134300030000B01304010309040F
:10134000B4131802030904CE131603030904E613A9
:101350000C0001C102018036018136120100020237
:10136000000020C0168304000101020301090243AA
:1013700000020100C0320904000001020201000560
:10138000240010010524010001042402060524069E
:1013900000010705820308004009040100020A0059
:1013A000000007050302400000070584024000001A
:1013B0000403090418035400650065006E007300FF
:1013C00079006400750069006E006F00000016036C
:1013D0005500530042002000530065007200690070
:1013E00061006C0000000C03310032003300340057
:1013F00035000000494E46494E4954594E414ECDA4
:10140000CCCC3D0AD7233C17B7D13877CC2B3295BB
:1014100095E6241FB14F0A000020410000C8420099
:10142000401C4620BCBE4CCA1B0E5AAEC59D740063
:10143000571B6381501B11241FBECFEFD0E2DEBFCC
:10144000CDBF12E0A0E0B1E0E4E8FEE001E00BBFB8
:1014500002C007900D92A83FB107D9F71BBE1DE04F
:10146000A8EFB2E001C01D92A83EB107E1F714E178
:10147000C4E3D4E104C02297FE010E94E786C03392
:10148000D107C9F70E94587E0C9435870C94000050
:10149000A0E0B0E0EEE4FAE00C940487EC015B011C
:1014A0006115710519F0FB0191838083F9908F2DEF
:1014B00090E00E94EB86892BC9F7FDE2FF1621F42C
:1014C000F990EE24E39405C02BE2F21609F4F990AA
:1014D000EE248E0101501040C80164EF73E143E037
:1014E00050E00E94D70C892B01F58E010E5F1F4F33
:1014F000C80167EF73E145E050E00E94D70C892BEB
:1015000019F48E01095F1F4FA114B10419F0F50100
:1015100011830083E0FC04C070E090E080E814C018
:1015200070E090E080E86FEF08C1C8016CEF73E1F4
:1015300043E050E00E94D70C892B69F4A114B10458
:1015400029F470E090E080EC6FE7F7C02296F50197
:10155000D183C083F6CF8824992440E050E060E036
:1015600070E0EF2DE053EA30A0F5F2E0EF2A8E2D87
:1015700090E09C0128703070E2FE06C0232B79F5C4
:101580000894811C911C2BC0232B19F0089481080E
:101590009108DB01CA0112E0880F991FAA1FBB1F27
:1015A0001A95D1F7480F591F6A1F7B1F440F551F0B
:1015B000661F771F4E0F511D611D711D483929E9A6
:1015C000520729E9620729E1720748F084E0E82A16
:1015D00006C0EE3F31F4E3FC39C098E0E92AF99007
:1015E000C0CFE53311F0E53189F529912D3219F499
:1015F000E0E1EE2A05C02B3219F081E090E003C053
:10160000299182E090E0E22FE053EA3018F0C81B05
:10161000D90B1CC020E030E0FCE020383F075CF430
:10162000C901880F991F880F991F280F391F220F92
:10163000331F2E0F311DE991E053EA3068F3E4FEC9
:1016400003C0309521953F4F820E931ECE2CDD2492
:10165000E1FE07C0A114B10421F02197F501D18367
:10166000C083CB01BA010E9450837B018C01F3E05F
:10167000CF22DD2423E0C216D10421F417FB1095FC
:1016800017F9109557016801C801B70120E030E053
:1016900040E050E00E94B082882309F44AC097FEDF
:1016A0000DC023E1E22E24E1F22E90948194910862
:1016B0009394C0E2D0E000E010E012C09BE2E92E7B
:1016C00094E1F92EF6CFF70125913591459154918A
:1016D000C601B5010E9490855B016C018C1A9D0AC0
:1016E0008C169D0684F7D595C7950F5F1F4F063062
:1016F000110529F08CEF9FEFE80EF91EF1CFC5011F
:10170000D6017C018D018C2D880F8D2D881F8F3F78
:1017100051F0C601B50120E030E040E050E00E9409
:10172000B082882331F482E290E09093E70D8093B9
:10173000E60D7E2D9F2D802F612F272F392F482FCB
:10174000562FB901CA01CDB7DEB7ECE00C94208763
:101750002F923F925F926F927F928F929F92AF9261
:10176000BF92CF92DF92EF92FF920F931F93CF938E
:10177000DF938C011B01EA016115710519F0FB0172
:1017800091838083209749F0CE010297839728F0B8
:1017900020E030E040E050E0F6C0F801A1908F0179
:1017A0008A2D90E00E94EB86892BB9F7FDE2AF16F7
:1017B00031F4F801A1908F015524539407C0FBE246
:1017C000AF1619F4F801A1908F015524209719F054
:1017D000C031D105C1F4F0E3AF1679F4F80180818E
:1017E000883711F0883549F4F801A1800E5F1F4F4A
:1017F000F2E05F2AC0E1D0E006C0209721F480E348
:10180000A816E9F427C0C830D10531F1C930D10597
:1018100024F4C230D10531F50CC0CA30D10589F0AD
:10182000C031D105F9F4C12CD12CE12CB8E0FB2E4C
:1018300028C0C12CD12CE12CA0E4FA2E22C0CAE091
:10184000D0E0FCECCF2EFCECDF2EFCECEF2EFCE02D
:10185000FF2E17C0C8E0D0E0C12CD12CE12CE0E174
:10186000FE2E0FC09E01442737FD4095542F60E0A7
:1018700070E080E090E80E949486C901DA016C0172
:101880007D0120E030E040E050E060E03E0188244F
:1018900077FC8094982C70EDB72EBA0CE9E0EB152C
:1018A00070F48A2D81548A3118F499ECB92E06C04F
:1018B0008A2D81568A3150F589EAB82EBA0C8B2DC3
:1018C00090E08C179D0714F56F3FE1F0C216D30628
:1018D000E406F506B0F0CA01B901A40193010E9423
:1018E00062869B01AC012B0D311D411D511D213024
:1018F000F0E03F07F0E04F07F0E85F0710F461E029
:1019000001C06FEFF801A1908F01C5CF2114310400
:1019100081F0662331F001501040F1011183008302
:1019200008C051FE1AC002501040F101118300831B
:1019300014C067FF12C050FC05C02FEF3FEF4FEF00
:101940005FE704C020E030E040E050E882E290E051
:101950009093E70D8093E60D16C050FE08C0509599
:101960004095309521953F4F4F4F5F4F0CC057FF2B
:101970000AC082E290E09093E70D8093E60D2FEF8E
:101980003FEF4FEF5FE7B901CA01DF91CF911F91A0
:101990000F91FF90EF90DF90CF90BF90AF909F900E
:1019A0008F907F906F905F903F902F900895FB01F4
:1019B000DC014150504088F08D9181341CF08B3512
:1019C0000CF4805E659161341CF06B350CF4605E44
:1019D000861B611171F3990B0895881BFCCFFB01E5
:1019E000DC0104C08D910190801921F441505040D8
:1019F000C8F7881B990B0895FB01DC0102C0019018
:101A00000D9241505040D8F70895FB01DC010D9034
:101A10000020E9F7119701900D920020E1F7089559
:101A2000FC018191861721F08823D9F79927089521
:101A30003197CF010895FB01DC0101900D92002048
:101A4000E1F70895FB01DC014150504030F08D91E9
:101A50000190801919F40020B9F7881B990B08959B
:101A6000FB01DC014150504048F001900D920020F4
:101A7000C9F701C01D9241505040E0F70895FB01A5
:101A800051915523A9F0BF01DC014D91451741113A
:101A9000E1F759F4CD010190002049F04D91401536
:101AA0004111C9F3FB014111EFCF81E090E00197B3
:101AB0000895AEE0B0E0EFE5FDE00C940C870D89F1
:101AC0001E8986E08C831A8309838FEF9FE79E83AC
:101AD0008D839E01275E3F4FCE0101966F89788DE1
:101AE000A9010E947D0D2F813885020F131FF80177
:101AF00010822E96E4E00C942887ABE0B0E0E3E897
:101B0000FDE00C94FE863C012B015A01FC0117827A
:101B10001682838181FD03C06FEF7FEFC6C19AE01B
:101B2000892E1E010894211C311CF3012381F2012E
:101B300023FD859123FF81912F01882309F4B2C1F0
:101B4000853239F423FD859123FF81912F01853260
:101B500029F490E0B3010E94700FE7CF982FFF2483
:101B6000EE249924FFE1FF15D0F09B3269F09C32FE
:101B700028F4903259F0933291F40EC09D3249F01E
:101B8000903369F441E024C052E0F52A84E0F82A59
:101B900028C098E0F92A25C0E0E1FE2A22C0F7FC1F
:101BA00029C0892F80538A3070F4F6FE05C0989CB6
:101BB000902C1124980E15C0E89CE02C1124E80EFE
:101BC000F0E2FF2A0EC09E3229F4F6FC6BC140E41D
:101BD000F42A07C09C3619F450E8F52A02C098365A
:101BE00049F4F20123FD959123FF91912F0199234F
:101BF00009F0B8CF892F8554833018F08052833094
:101C000038F444E050E0A40EB51E5FE359830FC0E2
:101C1000933631F0933779F0933509F056C020C0F0
:101C2000F5018081898342E050E0A40EB51E610178
:101C300001E010E012C0F501C080D180F6FC03C0C5
:101C40006FEF7FEF02C0692D70E042E050E0A40E1C
:101C5000B51EC6010E94650F8C015FE7F52214C016
:101C6000F501C080D180F6FC03C06FEF7FEF02C0AA
:101C7000692D70E042E050E0A40EB51EC6010E943E
:101C80005A0F8C0150E8F52AF3FE07C01AC080E213
:101C900090E0B3010E94700FEA948E2D90E0081737
:101CA0001907A8F30EC0F601F7FC8591F7FE8191A4
:101CB0006F0190E0B3010E94700FE110EA940150AF
:101CC00010400115110579F7EAC0943611F09936E4
:101CD00069F5F7FE08C0F501208131814281538109
:101CE00084E090E00AC0F501808191819C01442745
:101CF00037FD4095542F82E090E0A80EB91E9FE674
:101D0000F92257FF09C050954095309521953F4FD6
:101D10004F4F5F4FE0E8FE2ACA01B901A1012AE056
:101D200030E00E949C0FD82ED21840C0953729F47D
:101D30001F2D1F7E2AE030E01DC01F2D197F9F360A
:101D400061F0903720F4983509F0ACC00FC090379F
:101D500039F0983709F0A6C004C028E030E00AC086
:101D6000106114FD146020E130E004C014FD166021
:101D700020E132E017FF08C0F501608171818281A6
:101D8000938144E050E008C0F50180819181BC015D
:101D900080E090E042E050E0A40EB51EA1010E9458
:101DA0009C0FD82ED2188FE7F82EF122F6FE0BC02A
:101DB0005EEFF522D91438F4F4FE07C0F2FC05C03A
:101DC0008FEEF82202C01D2D01C0192DF4FE0DC0AA
:101DD000FE01ED0DF11D8081803319F499EEF92299
:101DE00008C01F5FF2FE05C003C08F2D867809F082
:101DF0001F5F0F2DF3FC14C0F0FE0FC01E1510F076
:101E00009D2C0BC09D2C9E0C911A1E2D06C080E2AD
:101E100090E0B3010E94700F1F5F1E15C0F304C055
:101E20001E1510F4E11A01C0EE2404FF0FC080E378
:101E300090E0B3010E94700F02FF1DC001FD03C0BE
:101E400088E790E00EC088E590E00BC0802F867890
:101E500091F001FF02C08BE201C080E2F7FC8DE24D
:101E600090E0B3010E94700F06C080E390E0B301E0
:101E70000E94700F9A94D914C0F3DA94F101ED0D19
:101E8000F11D808190E0B3010E94700FDD20A9F761
:101E900006C080E290E0B3010E94700FEA94EE2049
:101EA000C1F743CEF30166817781CB012B96E2E146
:101EB0000C941A87FC010590615070400110D8F70E
:101EC000809590958E0F9F1F0895FC016150704082
:101ED00001900110D8F7809590958E0F9F1F08955F
:101EE0000F931F93CF93DF938C01EB018B8181FFC5
:101EF0001BC082FF0DC02E813F818C819D812817E0
:101F0000390764F4E881F9810193F983E88306C015
:101F1000E885F985802F0995892B31F48E819F8181
:101F200001969F838E8302C00FEF1FEFC801DF91E0
:101F3000CF911F910F910895FA01AA27283051F1EE
:101F4000203181F1E8946F936E7F6E5F7F4F8F4FEA
:101F50009F4FAF4FB1E03ED0B4E03CD0670F781F49
:101F6000891F9A1FA11D680F791F8A1F911DA11D2E
:101F70006A0F711D811D911DA11D20D009F4689467
:101F80003F912AE0269F11243019305D3193DEF60F
:101F9000CF010895462F4770405D4193B3E00FD0C5
:101FA000C9F7F6CF462F4F70405D4A3318F0495DB0
:101FB00031FD4052419302D0A9F7EACFB4E0A69593
:101FC0009795879577956795BA95C9F700976105B5
:101FD000710508959B01AC010A2E0694579547950B
:101FE00037952795BA95C9F7620F731F841F951F00
:101FF000A01D0895DF93CF930F92CDB7DEB7FC01FC
:102000006983A081B18112962D913C911397BE01F5
:102010006F5F7F4F41E050E0F90109950F90CF913C
:10202000DF910895FC01148A178A138A2DED32E09E
:10203000328B218B14AA17AA13AA32AB21ABEE5A0A
:10204000FF4F10823396108234971082329322937E
:10205000B196108233961082349710823293229375
:102060007F9689E1808333961082789610823A9623
:1020700010823396108234971082329322937E9688
:10208000108211821282138238961082118212827B
:102090001382E45DF040118212821082E852FF4FF9
:1020A00081E08083E85DF040108A17860FB6F894CF
:1020B0008091D40D9091D50DA091D60DB091D70DF2
:1020C0000FBEE053FF4F88579C4EAF4FBF4F8083EA
:1020D0009183A283B3830895FC0111821282089533
:1020E000FC018281882311F081E081830895FC0145
:1020F00081818111118208950F931F938C010E9499
:1021000049660E942666F801118280E091E00E94F3
:10211000E53D1F910F910895CF93DF93DB010D9063
:102120000020E9F71197A61BB70BEC01E881F981B4
:102130000280F381E02DAD010995DF91CF910895E3
:10214000FC018DED92E0918380838681882321F0CC
:10215000CF0103960E9407590895EF92FF920F93C3
:102160001F937C018C010F541F4FC8010E94B75868
:10217000C8010E940759F70110821F910F91FF902B
:10218000EF900895CF92DF92EF92FF920F931F93FB
:10219000CF93DF937C016B01DB010D900020E9F709
:1021A0008D0101501040061B170BE1EBF0E0EE0E25
:1021B000FF1ED7011C92EFE4FFEFEE0EFF1ECB01D6
:1021C0006EE470E00E94100DEC01009731F4F8010C
:1021D0003197EC0DFD1D86010EC060E270E00E949B
:1021E000100D8C010F5F1F4FCE016AE270E00E945C
:1021F000100DFC0131978DE081838AE08283138288
:10220000C70182559F4FB8010E94A06081EB90E00A
:10221000E80EF91ED7018C91882309F1EEEFF0E06A
:102220006491EF0107C08CED9DE00E94FA0F2196AA
:10223000FE0164916623B9F7E5E0F1E06491EF01F6
:1022400007C08CED9DE00E94FA0F2196FE0164917B
:102250006623B9F78CED9DE06AE00E94FA0FDF91EA
:10226000CF911F910F91FF90EF90DF90CF90089545
:102270000F931F93CF93DF938C01FC0182818823FE
:1022800009F437C0EDE2F1E06491EF0107C08CED95
:102290009DE00E94FA0F2196FE0164916623B9F732
:1022A0000C521F4FF8014081518162817381045D9E
:1022B00010408CED9DE020E00E94A57EEBE2F1E075
:1022C0006491EF0107C08CED9DE00E94FA0F21960A
:1022D000FE0164916623B9F704531F4FF801408152
:1022E0005181628173818CED9DE020E00E94A57E8A
:1022F0000EC0EBE1F1E06491EF0107C08CED9DE0D1
:102300000E94FA0F2196FE0164916623B9F78CEDC5
:102310009DE06AE00E94FA0FDF91CF911F910F912B
:1023200008952F923F924F925F926F927F928F9279
:102330009F92AF92BF92CF92DF92EF92FF920F9354
:102340001F93DF93CF93CDB7DEB7AC970FB6F8945A
:10235000DEBF0FBECDBF5C014B014CA7FC018281EB
:10236000882309F4A3C131EB432E512C4A0C5B1C8A
:10237000C2010E940759F5011182198A1C8A188A24
:102380008DED92E09F878E87C501419690AB87A720
:10239000F40180818F3209F080C0C4016FE270E0E7
:1023A0000E94100D7C010894E11CF11C3E01089470
:1023B000611C711C21E1222E312C2C0E3D1E68C0A7
:1023C000C7016FE270E00E94100D6C01009709F4E4
:1023D0006CC0E816F90608F068C08C010E191F09D8
:1023E000C301B701A8010E94300D060D171DF801A9
:1023F00010828CED9DE0B3010E948C108CED9DE06D
:102400006AE00E94FA0FF50167A570A961157105D0
:1024100019F460E070E002C06D5F7F4FC101A3015D
:1024200021E00E949E5F882341F5EFEDF1E0649189
:102430007F0109C08CED9DE00E94FA0F0894E11C19
:10244000F11CF70164916623A9F78CED9DE0BE01B4
:102450006F5F7F4F0E948C10EDEDF1E064917F0182
:1024600009C08CED9DE00E94FA0F0894E11CF11C5C
:10247000F70164916623A9F710C12EE030E02C0F1C
:102480003D1FF50130AB27A776010894E11CF11C34
:10249000E114F10409F094CF05C0C501C196F5011E
:1024A00090AB87A7082DD92C02C00E2DDF2CF5018B
:1024B00067A570A9FCA5FF2309F4A0C061157105EB
:1024C00019F460E070E002C06D5F7F4FC201402FE1
:1024D0005D2D21E00E949E5F882309F468C0A5015C
:1024E00044535F4F22EC30E0A20EB31EF501808111
:1024F0009181A281B3812EE33FEFA20EB31EFA01B8
:1025000080839183A283B383E0EDF1E064917F0146
:1025100009C08CED9DE00E94FA0F0894E11CF11CAB
:10252000F70164916623A9F78CED9DE0602F7D2D66
:102530000E948C10E9ECF1E064917F0109C08CED00
:102540009DE00E94FA0F0894E11CF11CF7016491D0
:102550006623A9F72CEC30E0A20EB31EF5014081F2
:102560005181628173818CED9DE020E00E94A57E07
:102570008CED9DE06AE00E94FA0F28E030E0A20EA8
:10258000B31EF5011082118212821382EBEBF1E08F
:1025900064917F0109C08CED9DE00E94FA0F0894C0
:1025A000E11CF11CF70164916623A9F776C0E7EA04
:1025B000F1E064917F0109C08CED9DE00E94FA0F6B
:1025C0000894E11CF11CF70164916623A9F78CEDD6
:1025D0009DE0602F7D2D0E948C10E5EAF1E0649172
:1025E0007F0109C08CED9DE00E94FA0F0894E11C68
:1025F000F11CF70164916623A9F74FC061157105BD
:1026000019F460E070E002C06D5F7F4FC201402F9F
:102610005D2D26E50E949E5F882339F5E1E9F1E012
:1026200064917F0109C08CED9DE00E94FA0F08942F
:10263000E11CF11CF70164916623A9F78CED9DE084
:10264000602F7D2D0E948C10EFE8F1E064917F01F6
:1026500009C08CED9DE00E94FA0F0894E11CF11C6A
:10266000F70164916623A9F718C081E0F501808322
:10267000EDE7F1E064917F0109C08CED9DE00E94DF
:10268000FA0F0894E11CF11CF70164916623A9F785
:102690008CED9DE0B4010E948C108CED9DE06AE011
:1026A0000E94FA0FCE010E960E94A010AC960FB6B3
:1026B000F894DEBF0FBECDBFCF91DF911F910F9178
:1026C000FF90EF90DF90CF90BF90AF909F908F9052
:1026D0007F906F905F904F903F902F9008952F9232
:1026E0003F924F925F926F927F928F929F92AF92A2
:1026F000BF92CF92DF92EF92FF920F931F93DF93DF
:10270000CF93CDB7DEB7AB970FB6F894DEBF0FBE51
:10271000CDBF5C014B01FC018281882309F400C11B
:10272000C5018F549F4F0E940759F5011182198AE4
:102730001C8A188A8DED92E09F878E87C50141968D
:1027400090AB87A7F40180818F3209F081C0C4016A
:102750006FE270E00E94100D7C010894E11CF11CF6
:102760003E010894611C711C5EE0252E312C2C0E5C
:102770003D1E41E1442E512C4C0E5D1E64C0C7012C
:102780006FE270E00E94100D6C01009709F468C0C0
:10279000E816F90608F064C08C010E191F09C30180
:1027A000B701A8010E94300D060D171DF801108217
:1027B0008CED9DE0B3010E948C108CED9DE06AE0F1
:1027C0000E94FA0FF50167A570A96115710519F44A
:1027D00060E070E002C06D5F7F4FC201A30121E0A5
:1027E0000E949E5F882341F5E9E6F1E064917F0154
:1027F00009C08CED9DE00E94FA0F0894E11CF11CC9
:10280000F70164916623A9F78CED9DE0BE016F5F2F
:102810007F4F0E948C10E7E6F1E064917F0109C0D0
:102820008CED9DE00E94FA0F0894E11CF11CF70169
:1028300064916623A9F76BC0F50130AA27A676013B
:102840000894E11CF11CE114F10409F098CF05C0D3
:10285000C501C196F50190AB87A7D82C092D02C000
:10286000DE2C0F2DF50187A590A9009719F480E0C3
:1028700090E001C003966D2D702F0E947060882338
:1028800001F1E9E5F1E064917F0109C08CED9DE083
:102890000E94FA0F0894E11CF11CF7016491662371
:1028A000A9F78CED9DE06D2D702F0E948C1084EDAA
:1028B00090E0A80EB91EF5011082118212821382D7
:1028C0002BC0E1E4F1E064917F0109C08CED9DE053
:1028D0000E94FA0F0894E11CF11CF7016491662331
:1028E000A9F78CED9DE06D2D702F0E948C10EFE309
:1028F000F1E064917F0109C08CED9DE00E94FA0F28
:102900000894E11CF11CF70164916623A9F78CED92
:102910009DE06AE00E94FA0FCE010E960E94A01080
:10292000AB960FB6F894DEBF0FBECDBFCF91DF914F
:102930001F910F91FF90EF90DF90CF90BF90AF90DD
:102940009F908F907F906F905F904F903F902F90CF
:102950000895EF92FF920F931F93CF93DF937C0123
:10296000FC0112828789882321F0C70144960E94C6
:102970000759870105571F4FC80160E04AE10E94CF
:10298000C8568823E9F4E3EEF0E06491EF0107C054
:102990008CED9DE00E94FA0F2196FE016491662362
:1029A000B9F7E9E4F2E06491EF0107C08CED9DE036
:1029B0000E94FA0F2196FE0164916623B9F771C057
:1029C000E701C057DF4FCE01B80141E00E943561F9
:1029D000882321F5CE01B80140E00E9435618823AB
:1029E000E9F4EEEFF0E06491EF0107C08CED9DE0BB
:1029F0000E94FA0F2196FE0164916623B9F7E6E37F
:102A0000F2E06491EF0107C08CED9DE00E94FA0FA7
:102A10002196FE0164916623B9F743C0C70144962D
:102A2000BE010E94915B8823E9F4EEEFF0E064912F
:102A3000EF0107C08CED9DE00E94FA0F2196FE0188
:102A400064916623B9F7E6E2F2E06491EF0107C012
:102A50008CED9DE00E94FA0F2196FE0164916623A1
:102A6000B9F71FC081E0F7018283E3EEF0E06491E3
:102A7000EF0107C08CED9DE00E94FA0F2196FE0148
:102A800064916623B9F7EBE1F2E06491EF0107C0CE
:102A90008CED9DE00E94FA0F2196FE016491662361
:102AA000B9F78CED9DE06AE00E94FA0FC7014196EC
:102AB000F70190AB87A7C701C49620E930E0E20E8A
:102AC000F31EB7010E94915B882399F4E7E0F2E0DE
:102AD0006491EF0107C08CED9DE00E94FA0F2196F2
:102AE000FE0164916623B9F78CED9DE06AE00E94D7
:102AF000FA0FDF91CF911F910F91FF90EF90089502
:102B00002F923F924F925F927F928F929F92AF92BD
:102B1000BF92CF92DF92EF92FF920F931F93DF93BA
:102B2000CF93CDB7DEB7CC55D0400FB6F894DEBF0B
:102B30000FBECDBF7C01662359F528ED30E0E20ED3
:102B4000F31ED7018C91E8E2FFEFEE0EFF1E882303
:102B500009F4F3C00FB6F8942091D40D3091D50D3F
:102B60004091D60D5091D70D0FBE60ED70E0E60E8E
:102B7000F71EF70180819181A281B38160E37FEF2D
:102B8000E60EF71E82179307A407B50708F4D5C011
:102B900088ED90E0E80EF91ED7011C92E8E2FFEF05
:102BA000EE0EFF1ED70112968C91882341F4C701C7
:102BB0000E94A914F7018281882309F4BEC000D0C5
:102BC00000D000D0EDB7FEB731968E010F5F1F4FDA
:102BD000ADB7BEB712961C930E9311978CE091E09F
:102BE00093838283D7011F968D919C9150979583F3
:102BF00084830E94590DCC24DD24EDB7FEB73696B0
:102C00000FB6F894FEBF0FBEEDBF58010AC0D80141
:102C10008C91992787FD90950E94F386F801819306
:102C20008F01C601F50101900020E9F73197EA19FB
:102C3000FB090894C11CD11C8E179F0744F3E4E1E3
:102C40008E2E912C8E0C9F1CC40140E050E060E061
:102C500070E00E94ED5777247DE3A72EB12CAC0ED7
:102C6000BD1E1E010894211C311C6FE1462E512C03
:102C70004C0E5D1E48C0D6018C9190E00E94F386F8
:102C8000F60181936F01C801F50101900020E9F779
:102C90003197EA19FB090F5F1F4F8E179F075CF3EF
:102CA00027968FAD27978E3771F1C501B10145E0A9
:102CB00050E00E94220D009731F500D000D000D0E6
:102CC000EDB7FEB73196ADB7BEB712965C924E9295
:102CD000119725E131E033832283358224820E94DB
:102CE000590D6DB77EB76A5F7F4F0FB6F8947EBF00
:102CF0000FBE6DBFC2010E94E53D8CE191E00E94D4
:102D0000E53D77247394C401B5010E94075B181652
:102D100024F4650100E010E0B6CF772041F48FEF96
:102D20009FEFD70150969C938E931F9706C0F70193
:102D3000878590890196908B8787C45ADF4F0FB69D
:102D4000F894DEBF0FBECDBFCF91DF911F910F91E1
:102D5000FF90EF90DF90CF90BF90AF909F908F90BB
:102D60007F905F904F903F902F9008952F923F92C9
:102D70004F925F926F927F928F929F92AF92BF928B
:102D8000CF92DF92EF92FF920F931F93DF93CF9337
:102D9000CDB7DEB7CB58D0400FB6F894DEBF0FBE2C
:102DA000CDBF6C012B015A0183E090E0A80EB91E43
:102DB000F6013396CC57DF4FF983E883C458D040EF
:102DC000CA57DF4F1882C658D04014E6E12EF12CC6
:102DD000EC0EFD1EC7010B96C957DF4F9983888300
:102DE000C758D040B9ED6B2E712C6C0C7D1CABED2F
:102DF0008A2E912C8C0C9D1CF6E42F2E312C2C0E3F
:102E00003D1EF1013396C757DF4FF983E883C95858
:102E1000D040E3EEF0E08491C557DF4F8883CB5874
:102E2000D04026C1F7018385482F50E0BA01687170
:102E300070706031710509F023C1F3012081318187
:102E40002130310509F41CC12230310509F418C1C3
:102E5000F701DE0111969081903239F08E2F8E1994
:102E6000883011F48EE28D939D933196C957DF4FD0
:102E700088819981C758D040E817F90761F71C92FB
:102E80001E86F2018081882331F4CE010E9660E225
:102E900071E00E94050DCE010E96B2010E94050D53
:102EA000CE010E96BE016F5F7F4F0E94050DCE01D1
:102EB0000E9660E271E00E94050D1BA61EA61AA6E2
:102EC0008DED92E099A788A7CE018B96B501AE0152
:102ED0004F5F5F4F21E00E949E5F882371F5F301F1
:102EE00080819181892B49F5C557DF4F6881CB5887
:102EF000D04003EE10E008C08CED9DE00E94FA0F78
:102F00000F5F1F4FF80164916623B1F78CED9DE0D0
:102F100062E271E00E948C108CED9DE06AE00E94FC
:102F2000FA0F8CED9DE0BE016F5F7F4F0E948C1009
:102F30008CED9DE06AE00E94FA0FC757DF4FA88131
:102F4000B981C958D040FE01BB968BE101900D922A
:102F50008150E1F78AA5F10182838DED92E09183A2
:102F60008083C601BE01625F7F4FA1010E94B61639
:102F7000C1010E94A010CE0188960E94A01078C0C6
:102F8000953E09F475C09E3209F472C09F3509F46C
:102F90006FC043FD6DC080E06031710509F481E0D0
:102FA000F6018687882349F4F7018085873409F084
:102FB0005FC081858E3709F45BC0CC57DF4FA88195
:102FC000B981C458D040F7018081803241F08E2F02
:102FD0008E19883011F48EE28D9380818D93319615
:102FE000C957DF4F88819981C758D040E817F90742
:102FF00059F71C92F301808191810097A9F48CED1F
:103000009DE0B2010E948C108CED9DE0CC57DF4F0B
:1030100068817981C458D0400E948C108CED9DE06D
:103020006AE00E94FA0F24C08130910539F4F4015E
:10303000808191810196918380831AC00297C1F4A7
:10304000CA57DF4FF881C658D0402F2F30E0F40127
:103050008081918128173907C1F0CA57DF4FF88165
:10306000C658D040FF5FCA57DF4FF883C658D040DC
:10307000C501B7010E94075B18160CF4D3CE05C03A
:10308000F7019081992309F07BCFC557DF4F0FB629
:10309000F894DEBF0FBECDBFCF91DF911F910F918E
:1030A000FF90EF90DF90CF90BF90AF909F908F9068
:1030B0007F906F905F904F903F902F900895EF9288
:1030C000FF920F931F93DF93CF93CDB7DEB76E9729
:1030D0000FB6F894DEBF0FBECDBF7C0189ED90E046
:1030E000E80EF91EF7011182108287E29FEFE80EC9
:1030F000F91E87010C5E1F4FC80140E050E060E000
:1031000070E00E94ED57DE011496F8018BE101900A
:103110000D928150E1F7F70183898B838DED92E069
:103120009A838983C70165E371E08E010F5F1F4FAA
:10313000A8010E94B616C8010E94A0106E960FB694
:10314000F894DEBF0FBECDBFCF91DF911F910F91DD
:10315000FF90EF9008950F931F93DF93CF93CDB718
:10316000DEB728970FB6F894DEBF0FBECDBF8091B3
:10317000360190913701A0913801B09139018983CE
:103180009A83AB83BC8380E090E09E012F5F3F4F2A
:10319000F901E80FF91FE081F999FECF1FBA8C59A8
:1031A0009F4F92BD81BDE0BD0FB6F894FA9AF99A8F
:1031B0000FBE835690408430910551F7EEEEF5E056
:1031C00088E690E02191F999FECF1FBA92BD81BDAA
:1031D00020BD0FB6F894FA9AF99A0FBE019625E031
:1031E000EE3FF20779F7EEEDF5E088E790E0219108
:1031F000F999FECF1FBA92BD81BD20BD0FB6F894DC
:10320000FA9AF99A0FBE019625E0EE3EF20779F799
:10321000EEEFF5E088E890E02191F999FECF1FBA32
:1032200092BD81BD20BD0FB6F894FA9AF99A0FBEEF
:10323000019626E0EE30F20779F7E2E1F6E088E960
:1032400090E02191F999FECF1FBA92BD81BD20BDBA
:103250000FB6F894FA9AF99A0FBE019626E0E63175
:10326000F20779F7E6E1F6E08CE990E02191F9992F
:10327000FECF1FBA92BD81BD20BD0FB6F894FA9A59
:10328000F99A0FBE019626E0EA31F20779F7EEE0EF
:10329000F6E080EA90E02191F999FECF1FBA92BD45
:1032A00081BD20BD0FB6F894FA9AF99A0FBE019627
:1032B00026E0E231F20779F7E6E2F6E084EA90E010
:1032C0002191F999FECF1FBA92BD81BD20BD0FB6E5
:1032D000F894FA9AF99A0FBE019626E0EA32F207BC
:1032E00079F7EAEDF5E088EA90E02191F999FECFCF
:1032F0001FBA92BD81BD20BD0FB6F894FA9AF99A13
:103300000FBE019625E0EE3DF20779F7EAE1F6E01F
:103310008CEA90E02191F999FECF1FBA92BD81BD50
:1033200020BD0FB6F894FA9AF99A0FBE019626E0DE
:10333000EE31F20779F7EEE1F6E080EB90E02191D3
:10334000F999FECF1FBA92BD81BD20BD0FB6F8948A
:10335000FA9AF99A0FBE019626E0E232F20779F75F
:10336000E2E2F6E084EB90E02191F999FECF1FBAFA
:1033700092BD81BD20BD0FB6F894FA9AF99A0FBE9E
:10338000019626E0E632F20779F7EFE4F2E088EB07
:1033900090E02191F999FECF1FBA92BD81BD20BD69
:1033A0000FB6F894FA9AF99A0FBE019622E0E33527
:1033B000F20779F7E3E5F2E08CEB90E02191F999DF
:1033C000FECF1FBA92BD81BD20BD0FB6F894FA9A08
:1033D000F99A0FBE019622E0E735F20779F7E7E5A3
:1033E000F2E080EC90E02191F999FECF1FBA92BDF6
:1033F00081BD20BD0FB6F894FA9AF99A0FBE0196D6
:1034000022E0EB35F20779F7E0E3F2E084EC90E0BC
:103410002191F999FECF1FBA92BD81BD20BD0FB693
:10342000F894FA9AF99A0FBE019622E0E233F20775
:1034300079F7E2E3F2E086EC90E02191F999FECF92
:103440001FBA92BD81BD20BD0FB6F894FA9AF99AC1
:103450000FBE019622E0E433F20779F7E4E3F2E0ED
:1034600088EC90E02191F999FECF1FBA92BD81BD01
:1034700020BD0FB6F894FA9AF99A0FBE019622E091
:10348000E633F20779F7ECEFF3E08AEC90E0219174
:10349000F999FECF1FBA92BD81BD20BD0FB6F89439
:1034A000FA9AF99A0FBE019624E0E030F20779F714
:1034B000E0E0F4E08EEC90E02191F999FECF1FBAA4
:1034C00092BD81BD20BD0FB6F894FA9AF99A0FBE4D
:1034D000019624E0E430F20779F780913A01909167
:1034E0003B01A0913C01B0913D018D839E83AF8350
:1034F000B88780E090E09E012B5F3F4FF901E80F15
:10350000F91FE081F999FECF1FBA8C599F4F92BDE8
:1035100081BDE0BD0FB6F894FA9AF99A0FBE8356B2
:1035200090408430910551F7E9E8F2E064918F0111
:1035300008C08CED9DE00E94FA0F0F5F1F4FF8014D
:1035400064916623B1F7E1EBF3E064918F0108C069
:103550008CED9DE00E94FA0F0F5F1F4FF801649100
:103560006623B1F78CED9DE06AE00E94FA0F289681
:103570000FB6F894DEBF0FBECDBFCF91DF911F9184
:103580000F910895CF93DF930FB6F8948091D40DE7
:103590009091D50DA091D60DB091D70D0FBE80930F
:1035A0000C0490930D04A0930E04B0930F04E091CB
:1035B0003504F0913604E95CFB4F8081882399F44F
:1035C000EEE7F2E06491EF0107C08CED9DE00E9410
:1035D000FA0F2196FE0164916623B9F78CED9DE008
:1035E0006AE00E94FA0FDF91CF9108958130910532
:1035F00049F46F5F7F4F09F052C088EF92E00E945C
:1036000012100895892B09F04AC06F5F7F4F09F0AF
:1036100046C08DED92E09093A7038093A60380911E
:10362000AC03882321F089EA93E00E9407598DEDCD
:1036300092E0909366038093650380916B038823E7
:1036400021F088E693E00E9407598DED92E0909377
:1036500048038093470380914D03882321F08AE437
:1036600093E00E9407598DED92E090932A03809396
:10367000290380912F03882321F08CE293E00E949C
:1036800007598DED92E090930A038093090380918E
:103690000F03882321F08CE093E00E9407590895DE
:1036A00080E090E06FEF7FEF0E94F61A089581E0CE
:1036B00090E06FEF7FEF0E94F61A0895CF93DF93AB
:1036C000E6E5F2E06491EF0107C08CED9DE00E9419
:1036D000FA0F2196FE0164916623B9F7EDE5F2E059
:1036E0006491EF0107C08CED9DE00E94FA0F2196D6
:1036F000FE0164916623B9F78CED9DE06AE00E94BB
:10370000FA0F0E942574779A769A479A439AF8940A
:10371000DF91CF910895EF92FF920F931F930FB611
:10372000F8948091D40D9091D50DA091D60DB091C3
:10373000D70D0FBEE0901004F09011040091120418
:103740001091130420910C0430910D0440910E044B
:1037500050910F04821B930BA40BB50BE816F906CE
:103760000A071B0738F4E114F1040105110511F0F3
:103770000E945E1BE0904102F090420200914302E1
:1037800010914402E114F1040105110531F10FB665
:10379000F8948091D40D9091D50DA091D60DB09153
:1037A000D70D0FBE20910C0430910D0440910E04F2
:1037B00050910F04821B930BA40BB50BE816F9066E
:1037C0000A071B0750F490911A0B80911B0B981756
:1037D00021F4779A769A479A439A0E9456421F910B
:1037E0000F91FF90EF9008956F927F928F929F922A
:1037F000AF92BF92CF92DF92EF92FF920F931F93FF
:10380000F82E609114047091150480911604909123
:103810001704209118043091190440911A04509112
:103820001B040E94CB843B014C0160912C027091DF
:103830002D0200D000D000D00DB71EB70F5F1F4F74
:10384000882777FD8095982F0E945283209145020A
:103850003091460240914702509148020E94908563
:1038600020E030E040E752E40E94B78220E030E000
:1038700048EC52E40E94B7825B016C01F80160825F
:10388000718282829382F4828091FA0385838EED25
:1038900093E060E274E044E154E020E001E032E0D3
:1038A000E32E0E945C3E8091200490912104A0911F
:1038B0002204B09123048093DE039093DF03A0934E
:1038C000E003B093E1038091240490912504A0913A
:1038D0002604B09127048093E2039093E303A0931E
:1038E000E403B093E5038091280490912904A0910A
:1038F0002A04B0912B048093E6039093E703A093EE
:10390000E803B093E90380912C0490912D04A091D9
:103910002E04B0912F048093EA039093EB03A093BD
:10392000EC03B093ED030FB6F8948091D40D909111
:10393000D50DA091D60DB091D70D0FBE80930C047C
:1039400090930D04A0930E04B0930F048DB79EB70F
:1039500006960FB6F8949EBF0FBE8DBF1F910F91B4
:10396000FF90EF90DF90CF90BF90AF909F908F909F
:103970007F906F900895CF92DF92EF92FF920F9316
:103980001F936091200470912104809122049091F2
:10399000230420E030E040E050E00E94B082882321
:1039A00064F480E090E0A0E0B0E080932004909385
:1039B0002104A0932204B093230460912404709105
:1039C0002504809126049091270420E030E040E017
:1039D00050E00E94B082882364F480E090E0A0E090
:1039E000B0E08093240490932504A0932604B09320
:1039F0002704609128047091290480912A049091F1
:103A00002B0420E030E040E050E00E94B0828823A8
:103A100064F480E090E0A0E0B0E08093280490930C
:103A20002904A0932A04B0932B0460913002709172
:103A30003102882777FD8095982F0E9452837B0161
:103A40008C01609120047091210480912204909156
:103A50002304A80197010E94BE84181644F4E09242
:103A60002004F09221040093220410932304609117
:103A7000320270913302882777FD8095982F0E943B
:103A800052837B018C016091240470912504809104
:103A9000260490912704A80197010E94BE8418165D
:103AA00044F4E0922404F092250400932604109339
:103AB00027046091340270913502882777FD809544
:103AC000982F0E9452837B018C0160912804709191
:103AD000290480912A0490912B04A80197010E9447
:103AE000BE84181644F4E0922804F092290400934E
:103AF0002A0410932B040FB6F8948091D40D909162
:103B0000D50DA091D60DB091D70D0FBE80930C04AA
:103B100090930D04A0930E04B0930F0460912C02B7
:103B200070912D02882777FD8095982F0E945283EF
:103B3000209145023091460240914702509148023F
:103B40000E94908520E030E040E752E40E94B78276
:103B500020E030E048EC52E40E94B7827B018C0107
:103B600080E294E064E274E048E254E02CE234E065
:103B7000EAEFCE2EE3E0DE2E0E943848809120044A
:103B800090912104A0912204B09123048093DE033C
:103B90009093DF03A093E003B093E10380912404AA
:103BA00090912504A0912604B09127048093E2030C
:103BB0009093E303A093E403B093E503809128047A
:103BC00090912904A0912A04B0912B048093E603DC
:103BD0009093E703A093E803B093E90380912C044A
:103BE00090912D04A0912E04B0912F048093EA03AC
:103BF0009093EB03A093EC03B093ED031F910F910F
:103C0000FF90EF90DF90CF900895CF93DF938CEDEE
:103C10009DE00E943880E1E8F2E06491EF0107C086
:103C20008CED9DE00E94FA0F2196FE0164916623BF
:103C3000B9F740913B0450913C0460913D04709170
:103C40003E044F5F5F4F6F4F7F4F8CED9DE00E94B2
:103C5000057F8CED9DE06AE00E94FA0F0E94C21A77
:103C6000DF91CF910895409135045091360420E6BC
:103C700030E0B901469F9001479F300D569F300DAF
:103C80001124682F772767FD7095C901875B9B4FCB
:103C90000E94100D9C01909344048093430480E0A3
:103CA000232B09F081E008950F931F93CF93DF93A7
:103CB00009E812E0F8016491E80107C08CED9DE08D
:103CC0000E94FA0F2196FE0164916623B9F7E1E99B
:103CD000F5E06491EF0107C08CED9DE00E94FA0FC2
:103CE0002196FE0164916623B9F78CED9DE06AE0B0
:103CF0000E94FA0FF8016491C9E8D2E007C08CED88
:103D00009DE00E94FA0F2196FE0164916623B9F7A7
:103D1000E9E8F5E06491EF0107C08CED9DE00E94B9
:103D2000FA0F2196FE0164916623B9F74091EE05E2
:103D30005091EF056091F0057091F1058CED9DE0DB
:103D400022E00E94147FE6E8F5E06491EF0107C0ED
:103D50008CED9DE00E94FA0F2196FE01649166238E
:103D6000B9F74091F2055091F3056091F405709117
:103D7000F5058CED9DE022E00E94147FE3E8F5E07C
:103D80006491EF0107C08CED9DE00E94FA0F21962F
:103D9000FE0164916623B9F74091F6055091F7054D
:103DA0006091F8057091F9058CED9DE022E00E948C
:103DB000147FE0E8F5E06491EF0107C08CED9DE031
:103DC0000E94FA0F2196FE0164916623B9F7409193
:103DD000FA055091FB056091FC057091FD058CED95
:103DE0009DE022E00E94147F8CED9DE06EE371E087
:103DF0000E948C108CED9DE06AE00E94FA0FF801A1
:103E00006491C9E8D2E007C08CED9DE00E94FA0FF2
:103E10002196FE0164916623B9F7E6E6F5E0649128
:103E2000EF0107C08CED9DE00E94FA0F2196FE0184
:103E300064916623B9F78CED9DE06AE00E94FA0F69
:103E4000F8016491C9E8D2E007C08CED9DE00E94C2
:103E5000FA0F2196FE0164916623B9F7EDE5F5E0CE
:103E60006491EF0107C08CED9DE00E94FA0F21964E
:103E7000FE0164916623B9F74091DE055091DF059C
:103E80006091E0057091E1058CED9DE022E00E94DB
:103E9000147FEAE5F5E06491EF0107C08CED9DE049
:103EA0000E94FA0F2196FE0164916623B9F74091B2
:103EB000E2055091E3056091E4057091E5058CED14
:103EC0009DE022E00E94147FE7E5F5E06491EF01B8
:103ED00007C08CED9DE00E94FA0F2196FE016491CF
:103EE0006623B9F74091E6055091E7056091E80532
:103EF0007091E9058CED9DE022E00E94147FE4E5DD
:103F0000F5E06491EF0107C08CED9DE00E94FA0F8F
:103F10002196FE0164916623B9F74091EA0550911C
:103F2000EB056091EC057091ED058CED9DE022E0D4
:103F30000E94147F8CED9DE06EE371E00E948C1076
:103F40008CED9DE06AE00E94FA0FF8016491C9E8E7
:103F5000D2E007C08CED9DE00E94FA0F2196FE0191
:103F600064916623B9F7E6E3F5E06491EF0107C0D9
:103F70008CED9DE00E94FA0F2196FE01649166236C
:103F8000B9F78CED9DE06AE00E94FA0FF8016491A8
:103F9000C9E8D2E007C08CED9DE00E94FA0F21969F
:103FA000FE0164916623B9F7EDE2F5E06491EF015B
:103FB00007C08CED9DE00E94FA0F2196FE016491EE
:103FC0006623B9F74091FE055091FF056091000608
:103FD000709101068CED9DE020E00E94A57EEAE252
:103FE000F5E06491EF0107C08CED9DE00E94FA0FAF
:103FF0002196FE0164916623B9F740910206509123
:10400000030660910406709105068CED9DE020E0AA
:104010000E94A57EE7E2F5E06491EF0107C08CED18
:104020009DE00E94FA0F2196FE0164916623B9F784
:1040300040910606509107066091080670910906A6
:104040008CED9DE020E00E94A57EE4E2F5E0649125
:10405000EF0107C08CED9DE00E94FA0F2196FE0152
:1040600064916623B9F740910A0650910B0660915E
:104070000C0670910D068CED9DE020E00E94A57E5F
:104080008CED9DE06EE371E00E948C108CED9DE064
:104090006AE00E94FA0FF8016491C9E8D2E007C013
:1040A0008CED9DE00E94FA0F2196FE01649166233B
:1040B000B9F7EFEEF4E06491EF0107C08CED9DE0FD
:1040C0000E94FA0F2196FE0164916623B9F78CEDE8
:1040D0009DE06AE00E94FA0FF8016491C9E8D2E01D
:1040E00007C08CED9DE00E94FA0F2196FE016491BD
:1040F0006623B9F7E6EEF4E06491EF0107C08CEDBA
:104100009DE00E94FA0F2196FE0164916623B9F7A3
:104110004091120650911306609114067091150695
:104120008CED9DE022E00E94147FE3EEF4E06491C8
:10413000EF0107C08CED9DE00E94FA0F2196FE0171
:1041400064916623B9F74091160650911706609165
:104150001806709119068CED9DE022E00E94147FF4
:104160008CED9DE06EE371E00E948C108CED9DE083
:104170006AE00E94FA0FF8016491C9E8D2E007C032
:104180008CED9DE00E94FA0F2196FE01649166235A
:10419000B9F7EAE4F4E06491EF0107C08CED9DE02B
:1041A0000E94FA0F2196FE0164916623B9F78CED07
:1041B0009DE06AE00E94FA0FF8016491C9E8D2E03C
:1041C00007C08CED9DE00E94FA0F2196FE016491DC
:1041D0006623B9F7E1E4F4E06491EF0107C08CEDE8
:1041E0009DE00E94FA0F2196FE0164916623B9F7C3
:1041F00040910E0650910F066091100670911106C5
:104200008CED9DE022E00E94147FEEE3F4E06491E7
:10421000EF0107C08CED9DE00E94FA0F2196FE0190
:1042200064916623B9F74091260650912706609164
:104230002806709129068CED9DE022E00E94147FF3
:10424000EBE3F4E06491EF0107C08CED9DE00E9488
:10425000FA0F2196FE0164916623B9F74091DA05C1
:104260005091DB056091DC057091DD058CED9DE0E2
:1042700020E00E94A57EE8E3F4E06491EF0107C02E
:104280008CED9DE00E94FA0F2196FE016491662359
:10429000B9F740911A0650911B0660911C06709167
:1042A0001D068CED9DE022E00E94147FE5E3F4E022
:1042B0006491EF0107C08CED9DE00E94FA0F2196FA
:1042C000FE0164916623B9F740911E0650911F06C6
:1042D00060912006709121068CED9DE022E00E9405
:1042E000147FE2E3F4E06491EF0107C08CED9DE000
:1042F0000E94FA0F2196FE0164916623B9F740915E
:1043000022065091230660912406709125068CEDBB
:104310009DE022E00E94147F8CED9DE06EE371E051
:104320000E948C108CED9DE06AE00E94FA0FF8016B
:104330006491C9E8D2E007C08CED9DE00E94FA0FBD
:104340002196FE0164916623B9F7E4E2F4E06491FA
:10435000EF0107C08CED9DE00E94FA0F2196FE014F
:1043600064916623B9F78CED9DE06AE00E94FA0F34
:10437000F8016491C9E8D2E007C08CED9DE00E948D
:10438000FA0F2196FE0164916623B9F7EAE1F4E0A1
:104390006491EF0107C08CED9DE00E94FA0F219619
:1043A000FE0164916623B9F740914F02509150028B
:1043B00060915102709152028CED9DE022E00E94CA
:1043C000147FE7E1F4E06491EF0107C08CED9DE01C
:1043D0000E94FA0F2196FE0164916623B9F760915D
:1043E00053027091540280915502909156022DEB28
:1043F00037E346E05EE30E94B782AB01BC018CED7F
:104400009DE022E00E94147FE4E1F4E06491EF017A
:1044100007C08CED9DE00E94FA0F2196FE01649189
:104420006623B9F760915702709158028091590242
:1044300090915A022DEB37E346E05EE30E949085AF
:10444000AB01BC018CED9DE022E00E94147F8CED5D
:104450009DE06EE371E00E948C108CED9DE06AE0BF
:104460000E94FA0FF8016491C9E8D2E007C08CED10
:104470009DE00E94FA0F2196FE0164916623B9F730
:10448000E7E0F4E06491EF0107C08CED9DE00E944D
:10449000FA0F2196FE0164916623B9F78CED9DE039
:1044A0006AE00E94FA0FF8016491C9E8D2E007C0FF
:1044B0008CED9DE00E94FA0F2196FE016491662327
:1044C000B9F7EDEFF3E06491EF0107C08CED9DE0EB
:1044D0000E94FA0F2196FE0164916623B9F740917C
:1044E000300250913102662757FD6095762F8CED92
:1044F0009DE00E94057FEAEFF3E06491EF0107C0C1
:104500008CED9DE00E94FA0F2196FE0164916623D6
:10451000B9F74091320250913302662757FD6095FA
:10452000762F8CED9DE00E94057FE7EFF3E064912C
:10453000EF0107C08CED9DE00E94FA0F2196FE016D
:1045400064916623B9F74091340250913502662791
:1045500057FD6095762F8CED9DE00E94057F8CEDD8
:104560009DE06EE371E00E948C108CED9DE06AE0AE
:104570000E94FA0FF8016491C9E8D2E007C08CEDFF
:104580009DE00E94FA0F2196FE0164916623B9F71F
:10459000E9EEF3E06491EF0107C08CED9DE00E942D
:1045A000FA0F2196FE0164916623B9F78CED9DE028
:1045B0006AE00E94FA0FF8016491C9E8D2E007C0EE
:1045C0008CED9DE00E94FA0F2196FE016491662316
:1045D000B9F7EFEDF3E06491EF0107C08CED9DE0DA
:1045E0000E94FA0F2196FE0164916623B9F740916B
:1045F000FC035091FD036091FE037091FF038CED6D
:104600009DE022E00E94147FECEDF3E06491EF0165
:1046100007C08CED9DE00E94FA0F2196FE01649187
:104620006623B9F74091000450910104609102049F
:10463000709103048CED9DE022E00E94147F8CEDCC
:104640009DE06EE371E00E948C108CED9DE06AE0CD
:104650000E94FA0FDF91CF911F910F9108950F9350
:104660001F93DF93CF93CDB7DEB7E8970FB6F894DB
:10467000DEBF0FBECDBF682F80913A0190913B0104
:10468000A0913C01B0913D018D839E83AF83B8879B
:10469000FE01319624E630E0AE014C5F5F4FF999A0
:1046A000FECF32BD21BDF89A80B580832F5F3F4F8A
:1046B000E417F50711F03196F2CF662309F094C1A3
:1046C000CE010596BE016F5F7F4F43E050E00E9430
:1046D000220D009709F088C1EEEEF5E028E630E003
:1046E000F999FECF32BD21BDF89A80B580832F5F46
:1046F0003F4F85E0ED3FF80711F03196F1CFEEED39
:10470000F5E028E730E0F999FECF32BD21BDF89AF7
:1047100080B580832F5F3F4F85E0ED3EF80711F0B5
:104720003196F1CFEEEFF5E028E830E0F999FECFD1
:1047300032BD21BDF89A80B580832F5F3F4F86E060
:10474000ED30F80711F03196F1CFE2E1F6E028E91B
:1047500030E0F999FECF32BD21BDF89A80B5808353
:104760002F5F3F4F86E0E531F80711F03196F1CF2A
:10477000E6E1F6E02CE930E0F999FECF32BD21BD4B
:10478000F89A80B580832F5F3F4F86E0E931F807C4
:1047900011F03196F1CFEEE0F6E020EA30E0F99941
:1047A000FECF32BD21BDF89A80B580832F5F3F4F89
:1047B00086E0E131F80711F03196F1CFE6E2F6E05C
:1047C00024EA30E0F999FECF32BD21BDF89A80B5D8
:1047D00080832F5F3F4F86E0E932F80711F0319672
:1047E000F1CFEAEDF5E028EA30E0F999FECF32BDED
:1047F00021BDF89A80B580832F5F3F4F85E0ED3D66
:10480000F80711F03196F1CFEAE1F6E02CEA30E05A
:10481000F999FECF32BD21BDF89A80B580832F5F14
:104820003F4F86E0ED31F80711F03196F1CFEEE120
:10483000F6E020EB30E0F999FECF32BD21BDF89AC9
:1048400080B580832F5F3F4F86E0E132F80711F09B
:104850003196F1CFE2E2F6E024EB30E0F999FECFB9
:1048600032BD21BDF89A80B580832F5F3F4F86E02F
:10487000E532F80711F03196F1CFEFE4F2E028EBE2
:1048800030E0F999FECF32BD21BDF89A80B5808322
:104890002F5F3F4F82E0E235F80711F03196F1CFFC
:1048A000E3E5F2E02CEB30E0F999FECF32BD21BD1B
:1048B000F89A80B580832F5F3F4F82E0E635F80796
:1048C00011F03196F1CFE7E5F2E020EC30E0F99914
:1048D000FECF32BD21BDF89A80B580832F5F3F4F58
:1048E00082E0EA35F80711F03196F1CFE0E3F2E02B
:1048F00024EC30E0F999FECF32BD21BDF89A80B5A5
:1049000080832F5F3F4F82E0E133F80711F031964B
:10491000F1CFE2E3F2E026EC30E0F999FECF32BDD0
:1049200021BDF89A80B580832F5F3F4F82E0E3334B
:10493000F80711F03196F1CFE4E3F2E028EC30E033
:10494000F999FECF32BD21BDF89A80B580832F5FE3
:104950003F4F82E0E533F80711F03196F1CFECEFED
:10496000F3E02AEC30E0F999FECF32BD21BDF89A90
:1049700080B580832F5F3F4F83E0EF3FF80711F052
:104980003196F1CFE0E0F4E02EEC30E0F999FECF83
:1049900032BD21BDF89A80B580832F5F3F4F84E000
:1049A000E330F80711F03196F1CFE9E8F2E06491D5
:1049B0008F0108C08CED9DE00E94FA0F0F5F1F4F22
:1049C000F80164916623B1F7E1ECF3E064918F01A3
:1049D00008C08CED9DE00E94FA0F0F5F1F4FF80199
:1049E00064916623B1F738C1DE011996E9ECF2E073
:1049F00080E101900D928150E1F7DE015996E9EBDB
:104A0000F2E080E101900D928150E1F7DE0199968C
:104A1000E9EAF2E080E101900D928150E1F78985A9
:104A20009A85AB85BC858093EE059093EF05A093A6
:104A3000F005B093F105898D9A8DAB8DBC8D809377
:104A4000DE059093DF05A093E005B093E10589A50D
:104A50009AA5ABA5BCA58093FE059093FF05A093F6
:104A60000006B09301068D859E85AF85B889809339
:104A7000F2059093F305A093F405B093F5058D8DA1
:104A80009E8DAF8DB8A18093E2059093E305A0932E
:104A9000E405B093E5058DA59EA5AFA5B8A98093C3
:104AA000020690930306A0930406B0930506898935
:104AB0009A89AB89BC898093F6059093F705A093FA
:104AC000F805B093F90589A19AA1ABA1BCA1809387
:104AD000E6059093E705A093E805B093E90589A959
:104AE0009AA9ABA9BCA98093060690930706A09348
:104AF0000806B09309068D899E89AF89B88D809389
:104B0000FA059093FB05A093FC05B093FD058DA1DC
:104B10009EA1AFA1B8A58093EA059093EB05A09361
:104B2000EC05B093ED058DA99EA9AFA9B8AD809312
:104B30000A0690930B06A0930C06B0930D0680E036
:104B400090E8ABE3B5E48093120690931306A0932C
:104B50001406B09315068093160690931706A0933B
:104B60001806B093190620E030E040E050E02093B2
:104B70000E0630930F06409310065093110680E204
:104B80009EE4A0E0B0E08093DA059093DB05A0936B
:104B9000DC05B093DD05209326063093270640936D
:104BA00028065093290680E090E0A0EAB1E48093C3
:104BB0001A0690931B06A0931C06B0931D068DEC5D
:104BC0009CECACECBEE380931E0690931F06A09372
:104BD0002006B093210680E090E0A0EAB0E4809344
:104BE000220690932306A0932406B09325068DEC0D
:104BF00090E090933102809330029093330280933F
:104C0000320288EC90E09093350280933402209336
:104C1000FC033093FD034093FE035093FF03209366
:104C20000004309301044093020450930304E9E824
:104C3000F2E064918F0108C08CED9DE00E94FA0FB4
:104C40000F5F1F4FF80164916623B1F78CED9DE073
:104C50006FE371E00E948C108CED9DE06AE00E9491
:104C6000FA0F0E94541EE8960FB6F894DEBF0FBEEE
:104C7000CDBFCF91DF911F910F9108958091430493
:104C800090914404019660E070E04AE050E00E9498
:104C9000A80B08958091430490914404019660E02C
:104CA00070E00E94480A0895AF92BF92CF92DF92BF
:104CB000EF92FF920F931F93CF93DF93FEEDEF2EB2
:104CC000F3E0FF2EC0E2D4E000E010E0F801E55987
:104CD000FD4F80810E94331E882339F10E944A26AD
:104CE0005B016C01F801E952FC4F8081882311F0CF
:104CF00061E002C06091300470E0882777FD809504
:104D0000982F0E945283F701208131814281538183
:104D10000E9490859B01AC01C601B5010E94D7811C
:104D2000688379838A839B8309C0F701808191819D
:104D3000A281B38188839983AA83BB830F5F1F4FAE
:104D400084E090E0E80EF91E24960430110509F085
:104D5000BDCF86E40E94331E8823E1F00E944A26DC
:104D60007B018C016093310470933204809333048F
:104D70009093340420E030E040E050E00E94BE8494
:104D8000181644F4E0924502F0924602009347025E
:104D900010934802DF91CF911F910F91FF90EF90F8
:104DA000DF90CF90BF90AF9008950E94542689E481
:104DB0000E94331E882351F00E944A2660931404F7
:104DC0007093150480931604909317048AE40E944C
:104DD000331E882351F00E944A2660931804709372
:104DE000190480931A0490931B0408952F923F9204
:104DF0004F925F926F927F928F929F92AF92BF92EB
:104E0000CF92DF92EF92FF920F931F93DF93CF9396
:104E1000CDB7DEB7A1970FB6F894DEBF0FBECDBFFA
:104E200087E40E94331E882309F4FFC40E944A26A7
:104E30000E941F8364307105A9F16530710554F437
:104E40006230710521F1633071052CF57723CCF4C4
:104E50000C949F376A35710509F483C46B3571056D
:104E600034F46C31710511F00C949F3777C06B35B9
:104E7000710509F47AC46C35710511F00C949F37F3
:104E800079C40E9454260E94BB1C0C94D2370E9405
:104E9000D52681E003C00E94D52680E00E94F41B45
:104EA0000C94D23780E50E94331E882321F4EE242F
:104EB000FF24870106C00E944A260E9424837B01AA
:104EC0008C0183E50E94331E882361F00E944A26EC
:104ED00020E030E04AE754E40E9490850E94248359
:104EE0007B018C010E9449660FB6F894A090D40D06
:104EF000B090D50DC090D60DD090D70D0FBEAE0C92
:104F0000BF1CC01ED11E0FB6F8948091D40D909195
:104F1000D50DA091D60DB091D70D0FBE80930C0486
:104F200090930D04A0930E04B0930F0405C00E944B
:104F3000A67181E00E948B1B0FB6F8948091D40D6E
:104F40009091D50DA091D60DB091D70D0FBE8A15B9
:104F50009B05AC05BD0558F30C949F378091450225
:104F600090914602A0914702B091480280933F047D
:104F700090934004A0934104B093420480912C028A
:104F800090912D029093DC038093DB0384E690E004
:104F900090932D0280932C020FB6F8948091D40D3B
:104FA0009091D50DA091D60DB091D70D0FBE8093E5
:104FB0000C0490930D04A0930E04B0930F0481E0B1
:104FC0000E947965109240028091DE039091DF0388
:104FD000A091E003B091E103809320049093210419
:104FE000A0932204B09323048091E2039091E30301
:104FF000A091E403B091E5038093240490932504E9
:10500000A0932604B09327048091E6039091E703D0
:10501000A091E803B091E9038093280490932904B8
:10502000A0932A04B0932B048091EA039091EB03A0
:10503000A091EC03B091ED0380932C0490932D0488
:10504000A0932E04B0932F0480E090E0A0E0B0E0A5
:105050008093450290934602A0934702B093480282
:1050600088E50E94331E882361F489E50E94331E7F
:10507000882339F48AE50E94331E882311F481E0E5
:1050800001C080E080934902882331F488E50E94C2
:10509000331E882309F4E6C00F2EF0E08F2EF0E0D7
:1050A0009F2EF0E0AF2EF0E0BF2EF02D8092DE03B9
:1050B0009092DF03A092E003B092E1038EED93E0C3
:1050C00062EE73E046EE53E02AEE33E00E94F442D3
:1050D0006091300270913102882777FD8095982F7A
:1050E0000E94528320E030E040EC5FEB0E9490850C
:1050F00060932004709321048093220490932304EE
:1051000060911C0270911D0280911E0290911F02FD
:105110006093450270934602809347029093480241
:1051200020E030E040E752E40E94B7827B018C012E
:1051300080E294E064E274E048E254E02CE234E07F
:10514000BAEFCB2EB3E0DB2E0E9438480E944966AE
:105150008092DE039092DF03A092E003B092E1031D
:105160008EED93E062EE73E046EE53E02AEE33E01C
:105170000E94F44280E090E0A0EAB0E48093200432
:1051800090932104A0932204B093230460914502DC
:1051900070914602809147029091480220E030E0F1
:1051A00040E752E40E94B7827B018C0180E294E0E8
:1051B00064E274E048E254E02CE234E00E943848B3
:1051C0000E94496680E090E0A0E2B1EC8093200468
:1051D00090932104A0932204B093230460911C02B5
:1051E00070911D0280911E0290911F0220E030E01C
:1051F00040E05FE30E949085609345027093460211
:10520000809347029093480220E030E040E752E468
:105210000E94B7827B018C0180E294E064E274E03A
:1052200048E254E02CE234E00E9438480E9449668B
:105230008092DE039092DF03A092E003B092E1033C
:105240008092200490922104A0922204B092230420
:105250008092450290924602A0924702B092480284
:105260000E94726580914902882331F489E50E9489
:10527000331E882309F4E6C00F2EF0E08F2EF0E0F5
:105280009F2EF0E0AF2EF0E0BF2EF02D8092E203D3
:105290009092E303A092E403B092E5038EED93E0D5
:1052A00062EE73E046EE53E02AEE33E00E94F442F1
:1052B0006091320270913302882777FD8095982F94
:1052C0000E94528320E030E040EC5FEB0E9490852A
:1052D00060932404709325048093260490932704FC
:1052E000609120027091210280912202909123020C
:1052F0006093450270934602809347029093480260
:1053000020E030E040E752E40E94B7827B018C014C
:1053100080E294E064E274E048E254E02CE234E09D
:10532000AAEFCA2EA3E0DA2E0E9438480E944966EE
:105330008092E2039092E303A092E403B092E5032B
:105340008EED93E062EE73E046EE53E02AEE33E03A
:105350000E94F44280E090E0A0EAB0E4809324044C
:1053600090932504A0932604B093270460914502EE
:1053700070914602809147029091480220E030E00F
:1053800040E752E40E94B7827B018C0180E294E006
:1053900064E274E048E254E02CE234E00E943848D1
:1053A0000E94496680E090E0A0E2B1EC8093240482
:1053B00090932504A0932604B093270460912002C3
:1053C00070912102809122029091230220E030E02E
:1053D00040E05FE30E94908560934502709346022F
:1053E000809347029093480220E030E040E752E487
:1053F0000E94B7827B018C0180E294E064E274E059
:1054000048E254E02CE234E00E9438480E944966A9
:105410008092E2039092E303A092E403B092E5034A
:105420008092240490922504A0922604B09227042E
:105430008092450290924602A0924702B0924802A2
:105440000E94726580914902882331F48AE50E94A6
:10545000331E882309F4E6C00F2EF0E08F2EF0E013
:105460009F2EF0E0AF2EF0E0BF2EF02D8092E603ED
:105470009092E703A092E803B092E9038EED93E0E7
:1054800062EE73E046EE53E02AEE33E00E94F4420F
:105490006091340270913502882777FD8095982FAE
:1054A0000E94528320E030E040EC5FEB0E94908548
:1054B000609328047093290480932A0490932B040A
:1054C000609124027091250280912602909127021A
:1054D000609345027093460280934702909348027E
:1054E00020E030E040E752E40E94B7827B018C016B
:1054F00080E294E064E274E048E254E02CE234E0BC
:10550000FAEFCF2EF3E0DF2E0E9438480E94496662
:105510008092E6039092E703A092E803B092E90339
:105520008EED93E062EE73E046EE53E02AEE33E058
:105530000E94F44280E090E0A0E8BFE3809328045A
:1055400090932904A0932A04B0932B046091450200
:1055500070914602809147029091480220E030E02D
:1055600040E752E40E94B7827B018C0180E294E024
:1055700064E274E048E254E02CE234E00E943848EF
:105580000E94496680E090E0A0E0B0EC809328049F
:1055900090932904A0932A04B0932B0460912402D1
:1055A00070912502809126029091270220E030E040
:1055B00040E05FE30E94908560934502709346024D
:1055C000809347029093480220E030E040E752E4A5
:1055D0000E94B7827B018C0180E294E064E274E077
:1055E00048E254E02CE234E00E9438480E944966C8
:1055F0008092E6039092E703A092E803B092E90359
:105600008092280490922904A0922A04B0922B043C
:105610008092450290924602A0924702B0924802C0
:105620000E94726588E50E94331E8823D9F00E948B
:105630003E266115710581059105A1F00E944A265B
:105640002091EE033091EF034091F0035091F1036C
:105650000E94D7816093DE037093DF038093E003A1
:105660009093E10389E50E94331E8823D9F00E94BC
:105670003E266115710581059105A1F00E944A261B
:105680002091F2033091F3034091F4035091F5031C
:105690000E94D7816093E2037093E3038093E40355
:1056A0009093E5038AE50E94331E8823D9F00E9477
:1056B0003E266115710581059105A1F00E944A26DB
:1056C0002091F6033091F7034091F8035091F903CC
:1056D0000E94D7816093E6037093E7038093E80309
:1056E0009093E9038EED93E062EE73E046EE53E0B3
:1056F0002AEE33E00E94F44280E00E94796581E066
:105700008093400280913F0490914004A091410415
:10571000B09142048093450290934602A0934702C1
:10572000B09348028091DB039091DC0390932D02AB
:1057300080932C020FB6F8948091D40D9091D50DE2
:10574000A091D60DB091D70D0FBE80930C0490930D
:105750000D04A0930E04B0930F040E9472650C9484
:105760009F37109230040C949F3781E0809330046F
:105770000C949F3785E40E94331E882311F40E9405
:105780004966EEEDEE2EE3E0FE2E7EEEC72E73E0D0
:10579000D72E00E010E0F801E559FD4F80810E940E
:1057A000331E8823A1F10E944A26F601208131810F
:1057B000428153810E94D781F70160837183828384
:1057C0009383033061F40E944A26F701608371835A
:1057D000828393838AEE93E00E94D64218C00E948F
:1057E0004A26F60120813181428153810E94D7816E
:1057F000F70160837183828393838EED93E062EE81
:1058000073E046EE53E02AEE33E00E94F4420F5F6D
:105810001F4F44E050E0E40EF51EC40ED51E0430C8
:10582000110509F0B8CF0C949F378DE40E94331E08
:10583000882311F40C9405370E944A260E941F8386
:105840006D36710509F4ECC36E3671050CF081C03C
:105850006E31710509F4EEC16F317105ECF56731F8
:10586000710509F44FC168317105DCF464317105CB
:1058700009F413C16531710554F46131710509F4FE
:1058800006C16231710511F00C949F3757C665311E
:10589000710509F42BC16631710511F00C949F3725
:1058A0002BC16A31710509F464C16B31710554F47F
:1058B0006831710509F43EC16931710511F00C942C
:1058C0009F3751C16B31710509F472C16C3171059B
:1058D00011F00C949F3772C16535710509F477C6D4
:1058E00066357105DCF46235710509F420C663354F
:1058F000710554F46F31710509F4E1C16A32710523
:1059000011F00C949F3757C26335710509F412C624
:105910006435710511F00C949F3710C66936710516
:1059200009F4F1C26A36710554F46C35710509F455
:1059300064C66836710511F00C949F3782C26A36CE
:10594000710509F4C9C56B36710511F00C949F37C8
:10595000EBC5613D710511F40C946C35623D710528
:105960000CF044C0693C710511F40C9453346A3C4A
:105970007105E4F46737710511F40C940434683749
:10598000710554F46237710509F465C66337710512
:1059900011F00C949F374FC66C38710509F49EC204
:1059A0006E3B710511F00C949F37E2C46D3C71059C
:1059B00011F40C94CB346E3C710564F46B3C7105AE
:1059C00011F40C948D346C3C710511F00C949F37DC
:1059D0000C94AB346E3C710511F40C942935603D88
:1059E000710511F00C949F370C94473551E06039E4
:1059F000750711F40C947B3681E0613978071CF54A
:105A000091E06D32790711F40C94AF35E1E06E321C
:105A10007E0764F46C3D710511F40C948E356D3D78
:105A2000710511F00C949F370C94A035F1E06E32A3
:105A30007F0711F40C9468366F52714011F00C948A
:105A40009F370C946C3641E0663F740711F40C9458
:105A5000833651E0673F75076CF481E0643F780757
:105A600011F40C947E36655F714011F00C949F37F1
:105A70000C948136E1E0673F7E0711F40C94873681
:105A80006C5B724011F00C949F370C948A367798B7
:105A90007698479843980C949F37E1EAF3E0649135
:105AA0008F0108C08CED9DE00E94FA0F0F5F1F4F21
:105AB000F80164916623B1F78CED9DE06AE00E94E5
:105AC000FA0F88EF92E00E945F18E3E9F3E0649137
:105AD0008F0108C08CED9DE00E94FA0F0F5F1F4FF1
