:100000000C940C0A0C94370A0C94370A0C94370A97
:100010000C94370A0C94370A0C94370A0C94370A5C
:100020000C94370A0C94370A0C94E17B0C945A7A9E
:100030000C94370A0C94370A0C94370A0C94370A3C
:100040000C94370A0C946D1C0C94370A0C94370AE4
:100050000C94370A0C94370A0C94BE5B0C941D79EF
:100060000C94370A0C94370A0C94370A0C94370A0C
:100070000C94370A0C94370A0C94370A0C94370AFC
:100080000C94370A0C94370A0C94370A0C94370AEC
:100090000C94370A0C94370A084AD73B3BCE016EC2
:1000A00084BCBFFDC12F3D6C74319ABD56833DDACF
:1000B0003D00C77F11BED9E4BB4C3E916BAAAABEDE
:1000C000000000803F05A84CCDB2D44EB93836A907
:1000D000020C50B9918688083CA6AAAA2ABE000044
:1000E00000803F6563686F3A0043616E6E6F7420F5
:1000F000656E746572207375626469723A00457248
:10010000726F723A006572726F72207772697469E9
:100110006E6720746F2066696C65004E6F742053A3
:1001200044207072696E74696E67002F005344201A
:100130007072696E74696E67206279746520002E32
:100140000044656C6574696F6E206661696C6564F6
:100150002C2046696C653A200046696C6520646510
:100160006C657465643A002E006F70656E20666180
:10017000696C65642C2046696C653A200057726989
:1001800074696E6720746F2066696C653A20002E72
:10019000006F70656E206661696C65642C2046692D
:1001A0006C653A20002E006F70656E206661696C88
:1001B00065642C2046696C653A200046696C6520B0
:1001C00073656C6563746564002053697A653A00F1
:1001D00046696C65206F70656E65643A002E006F2D
:1001E00070656E206661696C65642C2046696C657B
:1001F0003A2000776F726B446972206F70656E20D1
:100200006661696C656400776F726B446972206F18
:1002100070656E206661696C65640053442063619B
:100220007264206F6B006F70656E526F6F74206622
:1002300061696C656400766F6C756D652E696E69B9
:1002400074206661696C656400534420696E69744A
:10025000206661696C0024F404D9201BC40C5C0E78
:100260009804C4095F0265077101F405F900FB04F5
:10027000B30048048700C103690058035500030315
:100280004500BE023A008402310053022A002902CE
:10029000250004022000E4011C00C8011900AF0180
:1002A000170098011400840113007101100061010E
:1002B000100051010E0043010D0036010B002B010F
:1002C0000B0020010B00150109000C0109000301BE
:1002D0000800FB000800F3000800EB000700E40042
:1002E0000600DE000600D8000600D2000600CC00A2
:1002F0000500C7000500C2000500BD000400B900EC
:100300000400B5000400B1000400AD000400A90021
:100310000400A5000300A20003009F0004009B004E
:100320000300980003009500020093000300900072
:1003300003008D0002008B0003008800020086008D
:10034000020084000300810002007F0002007D00A3
:1003500002007B00020079000200770001007600B5
:1003600002007400020072000100710002006F00C0
:1003700002006D0001006C0002006A0001006900CB
:1003800002006700010066000100650001006400D2
:1003900002006200010061000100600001005F00D6
:1003A00002005D0001005C0001005B0001005A00DA
:1003B00001005900010058000100570001005600DB
:1003C00001005500010054000100530000005300DB
:1003D00001005200010051000100500001004F00D7
:1003E00001004E0000004E0001004D0001004C00D5
:1003F00001004B0000004B0001004A0001004900D1
:1004000001004800000048000100470001004600CC
:1004100000004600010045000000450001004400C6
:1004200001004300000043000100420000004200C0
:1004300001004100000041000100400001003F00B8
:1004400000003F0001003E0000003E0001003D00B2
:1004500000003D0001003C0000003C0000003C00AA
:1004600001003B0000003B0001003A0000003A00A0
:100470000100390000003900010038000000380098
:10048000000038000100370000003700010036008E
:100490000000360000003600010035000000350085
:1004A000000035000100340000003400000034007A
:1004B000010033000000330000003300010032006F
:1004C0000000320000003200010031000000310065
:1004D000000031000100300000003000000030005A
:1004E00001002F0000002F0000002F0000002F004F
:1004F00001002E0000002E0000002E0001002D0043
:1005000000002D0000002D0000002D0001002C0037
:1005100000002C0000002C0000002C0001002B002B
:1005200000002B0000002B0000002B0001002A001F
:1005300000002A0000002A0000002A000100290013
:100540000000290000002900000029000000290007
:1005500001002800000028000000280000002800FA
:1005600000002800010027000000270000002700ED
:1005700000002700000027000100260000002600E0
:1005800000002600000026000000260001002500D3
:1005900000002500000025000000250000002500C7
:1005A00000002500010024000000240000002400B9
:1005B00000002400000024000100230000002300AC
:1005C000000023000000230000002300000023009F
:1005D0000000230001002200000022000000220091
:1005E0000000220000002200000022000100210083
:1005F0000000210000002100000021000000210077
:100600000000210000002100010020000000200067
:10061000000020000000200000002000000020005A
:10062000000020000000200001001F0000001F004B
:1006300000001F0000001F0000001F0000001F003E
:1006400000001F0001001E0000001E0000001E0030
:1006500000001E00000024F4D43050C38E20C2A23B
:100660004017828B7011127A910D816CD90AA861A2
:10067000E108C7586607615143061E4B5D05C14539
:10068000A7041A411104093D98037139310340361A
:10069000DB0265339102D4305402802E1D02632C9C
:1006A000EE01752AC501B028A001102781018F2510
:1006B00064012B244B01E0223401AC211F018D2069
:1006C0000D01801FFC00841EED00971DDF00B81C8B
:1006D000D200E61BC600201BBC00641AB200B2198F
:1006E000A8000A19A0006A189900D11791004017B4
:1006F0008B00B516840031167E00B31579003A15CB
:100700007300C7146F0058146A00EE136600881354
:10071000630025135E00C7125B006C1257001512B0
:100720005400C111510070114F0021114B00D6101F
:1007300049008D1047004610440002104200C00FCF
:100740004000800F3E00420F3C00060F3B00CB0EE6
:100750003800930E37005C0E3500270E3400F30D81
:100760003200C10D3100900D3000600D2E00320DB1
:100770002D00050D2C00D90C2B00AE0C2900850C8A
:1007800029005C0C2700350C27000E0C2600E80B16
:100790002400C40B2400A00B23007D0B23005A0B64
:1007A0002100390B2100180B2000F80A1F00D90A7C
:1007B0001E00BB0A1E009D0A1D00800A1D00630A60
:1007C0001C00470A1B002C0A1B00110A1A00F7091B
:1007D0001A00DD091900C4091900AB0919009209B2
:1007E00017007B091800630917004C091600360929
:1007F0001600200916000A091500F5081500E00882
:100800001400CC081400B8081400A40814009008C0
:1008100013007D0812006B081300580812004608E8
:1008200012003408110023081100120811000108F9
:100830001100F0071000E0071000D0071000C007FB
:100840001000B0070F00A107100091070E008307EA
:100850000F0074070F0065070E0057070E004907C9
:100860000E003B070D002E070E0020070D0013079A
:100870000D0006070D00F9060C00ED060D00E00660
:100880000C00D4060C00C8060C00BC060C00B00618
:100890000C00A4060B0099060C008D060B008206C6
:1008A0000B0077060B006C060B0061060A0057066A
:1008B0000B004C060A0042060A0038060A002E0603
:1008C0000A0024060A001A060A0010060900070694
:1008D0000A00FD050900F4050900EB050900E20521
:1008E0000900D9050900D0050900C7050900BE05A2
:1008F0000900B5050800AD050800A50509009C051F
:100900000800940508008C050800840508007C0593
:100910000800740508006C050700650508005D0502
:100920000700560508004E0507004705070040056B
:10093000080038050700310507002A0507002305D0
:1009400007001C050600160507000F05070008052F
:10095000060002050700FB040600F5040700EE048C
:100960000600E8040600E2040700DB040600D504E4
:100970000600CF040600C9040600C3040600BD0437
:100980000600B7040600B1040500AC040600A60486
:100990000600A00405009B040600950405009004D1
:1009A00006008A04050085040500800406007A0418
:1009B000050075040500700405006B04050066045D
:1009C0000500610405005C0405005704050052049D
:1009D00005004D04050048040500430405003E04DD
:1009E00004003A04050035040500300404002C041A
:1009F000050027040400230405001E0404001A0453
:100A0000040016040500110404000D040400090488
:100A100005000404040000040400FC030400F803BF
:100A20000400F4030400F0030400EC030400E803F2
:100A30000400E4030400E0030400DC030400D80322
:100A40000400D4030400D0030400CC030400C80352
:100A50000300C50303006563686F3A00205A3A003B
:100A600020593A0020583A00656E6473746F7073B1
:100A7000206869743A20006563686F3A0020746FDB
:100A80006F206C6F6E6720657874727573696F6E16
:100A90002070726576656E7465640020636F6C64A7
:100AA00020657874727573696F6E207072657665F3
:100AB0006E746564004572726F723A005072696EAE
:100AC0007465722068616C7465642E206B696C6C4F
:100AD00028292063616C6C6564202121006F6B0004
:100AE000526573656E643A006563686F3A00220070
:100AF000556E6B6E6F776E20636F6D6D616E643ACD
:100B000022007A5F6D696E3A00795F6D696E3A0016
:100B1000785F6D696E3A005A3A00593A0020436F87
:100B2000756E7420583A00453A005A3A00593A0016
:100B3000583A004649524D574152455F4E414D4546
:100B40003A4D61726C696E2056313B205370726968
:100B50006E7465722F6772626C206D617368757058
:100B600020666F722067656E36204649524D5741A8
:100B700052455F55524C3A687474703A2F2F77770C
:100B8000772E6D656E64656C2D70617274732E6363
:100B90006F6D2050524F544F434F4C5F5645525348
:100BA000494F4E3A312E30204D414348494E455F22
:100BB000545950453A4D656E64656C204558545201
:100BC000554445525F434F554E543A310A00204236
:100BD0003A0020453A00543A0020573A0020453A5E
:100BE00000543A0020403A0020423A006F6B2054F3
:100BF0003A00456E642066696C65206C6973740008
:100C0000426567696E2066696C65206C6973740063
:100C100053657474696E67732053746F72656400F2
:100C200053746F7265642073657474696E677320A2
:100C30007265747265697665643A00205A002059BD
:100C4000002020204D3230382058004D6178206C33
:100C5000656E677468733A002044002049002020C4
:100C6000204D333031205000504944207365747456
:100C7000696E67733A00204500205A002058002012
:100C8000420020540020204D323035205300416472
:100C900076616E636564207661726961626C65730A
:100CA0003A20533D4D696E206665656472617465D6
:100CB00020286D6D2F73292C20543D4D696E2074B2
:100CC000726176656C206665656472617465202862
:100CD0006D6D2F73292C20423D6D696E696D756DA8
:100CE000207365676D656E742074696D6520286D6D
:100CF00073292C20583D6D6178696D756D20785988
:100D0000206A65726B20286D6D2F73292C20205A64
:100D10003D6D6178696D756D205A206A65726B2032
:100D2000286D6D2F73290020540020204D3230345F
:100D3000205300416363656C65726174696F6E3A3C
:100D400020533D616363656C65726174696F6E2CDD
:100D500020543D7265747261637420616363656CD5
:100D600065726174696F6E00204500205A00205939
:100D70000020204D3230312058004D6178696D756A
:100D80006D20416363656C65726174696F6E2028C4
:100D90006D6D2F7332293A00204500205A002059EA
:100DA0000020204D3230332058004D6178696D7538
:100DB0006D2066656564726174657320286D6D2FA2
:100DC00073293A00204500205A0020590020204D68
:100DD0003932205800537465707320706572207525
:100DE0006E69743A00446F6E65207072696E746942
:100DF0006E672066696C65006F6B004E6F204C69F2
:100E00006E65204E756D6265722077697468206327
:100E10006865636B73756D2C204C617374204C692D
:100E20006E653A004E6F20436865636B73756D2085
:100E300077697468206C696E65206E756D62657285
:100E40002C204C617374204C696E653A00636865B0
:100E5000636B73756D206D69736D617463682C20AD
:100E60004C617374204C696E653A004C696E652064
:100E70004E756D626572206973206E6F74204C61CF
:100E80007374204C696E65204E756D6265722B31EE
:100E90002C204C617374204C696E653A00446F6E6F
:100EA0006520736176696E672066696C652E006FD8
:100EB0006B002020506C616E6E65724275666665CF
:100EC0007242797465733A20002046726565204D40
:100ED000656D6F72793A2000656C6B6E697774008E
:100EE000207C20417574686F723A200032303133B3
:100EF0002D30372D323700204C61737420557064CB
:100F0000617465643A2000312E302E302052433215
:100F1000004D61726C696E3A200020536F667477E1
:100F2000617265205265736574002057617463684F
:100F3000646F67205265736574002042726F776E2C
:100F4000206F757420526573657400204578746550
:100F5000726E616C20526573657400506F776572B4
:100F60005570007374617274002200656E7175654E
:100F7000696E672022004572726F723A0054656D87
:100F8000706572617475726520686561746564204E
:100F9000626564207377697463686564206F666650
:100FA0002E204D415854454D502074726967676535
:100FB000726564202121003A204578747275646559
:100FC00072207377697463686564206F66662E208B
:100FD0004D494E54454D502074726967676572657E
:100FE000642021003A20457874727564657220731C
:100FF00077697463686564206F66662E204D41587A
:1010000054454D502074726967676572656420218C
:1010100000C001FA00F001F5003002F0007002EBB0
:1010200000A002E600C002E1001003DC005003D77C
:1010300000E003D2009004CD008004C800E005BEAB
:10104000006006B9004007AA00F008A000700B96E7
:1010500000F00D8C00E0108200E0137800F0176EB5
:1010600000D0196900701B6400401E5F0010205AF8
:1010700000F025500080294600D0303C00A03237D7
:10108000001035320020392D0020392800703A2315
:1010900000A03B1E00A03C1900203D1600003F03AD
:1010A00000202D20496E76616C6964206578747229
:1010B00075646572206E756D626572202100202D49
:1010C00020496E76616C6964206578747275646518
:1010D00072206E756D626572210020403A006F6B60
:1010E00020543A00504944204175746F74756E6500
:1010F000206661696C656420212C2054656D7065E3
:1011000072617475726520746F2068696768002069
:101110004B643A2000204B693A2000204B703A2063
:1011200000204E6F206F76657273686F6F742000B9
:10113000204B643A2000204B693A2000204B703A43
:10114000200020536F6D65206F76657273686F6F36
:10115000742000204B643A2000204B693A20002084
:101160004B703A200020436C6173696320504944FE
:1011700020002054753A2000204B753A2000206D45
:1011800061783A2000206D696E3A200020643A2090
:101190000020626961733A200070012C01900127E0
:1011A00001B0012201C0011D01F00118011002135C
:1011B0000130020E016002090190020401C002FF29
:1011C000000003FA004003F5008003F000D003EBB9
:1011D000002004E6007004E100E004DC004005D7D4
:1011E00000C005D2004006CD00D006C8008007C36D
:1011F000003008BE00F008B900C009B400B00AAF62
:1012000000B00BAA00D00CA500000EA000500F9B50
:1012100000C01096005012910000148C00C0158779
:1012200000B0178200B0197D00D01B7800001E733B
:101230000040206E0090226900F024640040275F87
:101240000090295A00E02B5500102E500020304B02
:101250000010324600E033410090353C0010373733
:101260000070383200A0392D00B03A2800A03B238E
:1012700000603C1E00103D1900903D1400103E0F10
:1012800000703E0A00C03E0500003F00007C3C3E6E
:101290005E2B3D3F2F5B5D3B2C2A225C0001290227
:1012A00029042908291029202940298029012C02F4
:1012B0002C012602260426082610262026402680F9
:1012C00026402C802C0123022304230823102320F2
:1012D0002340238023012002200420082010202006
:1012E0002040208020102C202C012F022F042F08BA
:1012F0002F102F202F402F802F7EFE7EFD7EFB7E25
:10130000F77EEF7EDF7EBF7E7F000100003D13127F
:10131000000200004F134300030000921304010376
:10132000090496131802030904B0131603030904F1
:10133000C8130C0001C10201803601813612010080
:101340000202000020C0168304000101020301090B
:10135000024300020100C032090400000102020140
:1013600000052400100105240100010424020605E3
:101370002406000107058203080040090401000259
:101380000A00000007050302400000070584024030
:1013900000000403090418035400650065006E0092
:1013A000730079006400750069006E006F00000032
:1013B00016035500530042002000530065007200E0
:1013C000690061006C0000000C0331003200330042
:1013D000340035000000494E46494E4954594E41AB
:1013E0004ECDCCCC3D0AD7233C17B7D13877CC2B88
:1013F000329595E6241FB14F0A000020410000C835
:101400004200401C4620BCBE4CCA1B0E5AAEC59DB5
:1014100074000838FA7D013811241FBECFEFD0E2E6
:10142000DEBFCDBF12E0A0E0B1E0EAEFFAE001E0FC
:101430000BBF02C007900D92A43FB107D9F71BBEA6
:101440001DE0A4EFB2E001C01D92A23DB107E1F79B
:1014500014E1C6E1D4E104C02297FE010E94228576
:10146000C231D107C9F70E94607C0C9470850C943E
:101470000000A0E0B0E0EFE3FAE00C943F85EC015F
:101480005B016115710519F0FB0191838083F9906F
:101490008F2D90E00E942685892BC9F7FDE2FF166B
:1014A00021F4F990EE24E39405C02BE2F21609F43E
:1014B000F990EE248E0101501040C80166ED73E1F1
:1014C00043E050E00E94C80C892B01F58E010E5FAD
:1014D0001F4FC80169ED73E145E050E00E94C80C60
:1014E000892B19F48E01095F1F4FA114B10419F063
:1014F000F50111830083E0FC04C070E090E080E817
:1015000014C070E090E080E86FEF08C1C8016EED94
:1015100073E143E050E00E94C80C892B69F4A114E8
:10152000B10429F470E090E080EC6FE7F7C02296F8
:10153000F501D183C083F6CF8824992440E050E0A0
:1015400060E070E0EF2DE053EA30A0F5F2E0EF2A22
:101550008E2D90E09C0128703070E2FE06C0232B97
:1015600079F50894811C911C2BC0232B19F0089449
:1015700081089108DB01CA0112E0880F991FAA1F98
:10158000BB1F1A95D1F7480F591F6A1F7B1F440FC5
:10159000551F661F771F4E0F511D611D711D483964
:1015A00029E9520729E9620729E1720748F084E036
:1015B000E82A06C0EE3F31F4E3FC39C098E0E92A9E
:1015C000F990C0CFE53311F0E53189F529912D323D
:1015D00019F4E0E1EE2A05C02B3219F081E090E029
:1015E00003C0299182E090E0E22FE053EA3018F046
:1015F000C81BD90B1CC020E030E0FCE020383F07BE
:101600005CF4C901880F991F880F991F280F391F93
:10161000220F331F2E0F311DE991E053EA3068F39A
:10162000E4FE03C0309521953F4F820E931ECE2CD1
:10163000DD24E1FE07C0A114B10421F02197F501DA
:10164000D183C083CB01BA010E948B817B018C01C5
:10165000F3E0CF22DD2423E0C216D10421F417FBEE
:10166000109517F9109557016801C801B70120E0DE
:1016700030E040E050E00E94EB80882309F44AC04B
:1016800097FE0DC025EFE22E23E1F22E9094819477
:1016900091089394C0E2D0E000E010E012C09DE019
:1016A000E92E94E1F92EF6CFF70125913591459178
:1016B0005491C601B5010E94CB835B016C018C1A69
:1016C0009D0A8C169D0684F7D595C7950F5F1F4F11
:1016D0000630110529F08CEF9FEFE80EF91EF1CFCF
:1016E000C501D6017C018D018C2D880F8D2D881FA1
:1016F0008F3F51F0C601B50120E030E040E050E0FE
:101700000E94EB80882331F482E290E09093D10D27
:101710008093D00D7E2D9F2D802F612F272F392F65
:10172000482F562FB901CA01CDB7DEB7ECE00C94B3
:101730005B852F923F925F926F927F928F929F92E2
:10174000AF92BF92CF92DF92EF92FF920F931F93CF
:10175000CF93DF938C011B01EA016115710519F02C
:10176000FB0191838083209749F0CE0102978397F4
:1017700028F020E030E040E050E0F6C0F801A19011
:101780008F018A2D90E00E942685892BB9F7FDE212
:10179000AF1631F4F801A1908F015524539407C07E
:1017A000FBE2AF1619F4F801A1908F0155242097A0
:1017B00019F0C031D105C1F4F0E3AF1679F4F801A6
:1017C0008081883711F0883549F4F801A1800E5FD7
:1017D0001F4FF2E05F2AC0E1D0E006C0209721F45D
:1017E00080E3A816E9F427C0C830D10531F1C9302B
:1017F000D10524F4C230D10531F50CC0CA30D10571
:1018000089F0C031D105F9F4C12CD12CE12CB8E01C
:10181000FB2E28C0C12CD12CE12CA0E4FA2E22C032
:10182000CAE0D0E0FCECCF2EFCECDF2EFCECEF2E7F
:10183000FCE0FF2E17C0C8E0D0E0C12CD12CE12C79
:10184000E0E1FE2E0FC09E01442737FD4095542F46
:1018500060E070E080E090E80E94CF84C901DA0186
:101860006C017D0120E030E040E050E060E03E01AE
:10187000882477FC8094982C70EDB72EBA0CE9E0A0
:10188000EB1570F48A2D81548A3118F499ECB92E35
:1018900006C08A2D81568A3150F589EAB82EBA0CD5
:1018A0008B2D90E08C179D0714F56F3FE1F0C21669
:1018B000D306E406F506B0F0CA01B901A40193010C
:1018C0000E949D849B01AC012B0D311D411D511DBA
:1018D0002130F0E03F07F0E04F07F0E85F0710F439
:1018E00061E001C06FEFF801A1908F01C5CF211415
:1018F000310481F0662331F001501040F101118371
:10190000008308C051FE1AC002501040F10111833B
:10191000008314C067FF12C050FC05C02FEF3FEFDB
:101920004FEF5FE704C020E030E040E050E882E2A3
:1019300090E09093D10D8093D00D16C050FE08C05A
:1019400050954095309521953F4F4F4F5F4F0CC0BC
:1019500057FF0AC082E290E09093D10D8093D00DA2
:101960002FEF3FEF4FEF5FE7B901CA01DF91CF9152
:101970001F910F91FF90EF90DF90CF90BF90AF90AD
:101980009F908F907F906F905F903F902F900895E1
:10199000FB01DC014150504088F08D9181341CF0F6
:1019A0008B350CF4805E659161341CF06B350CF462
:1019B000605E861B611171F3990B0895881BFCCF43
:1019C000FB01DC0104C08D910190801921F441508C
:1019D0005040C8F7881B990B0895FB01DC0102C039
:1019E00001900D9241505040D8F70895FB01DC0161
:1019F0000D900020E9F7119701900D920020E1F77A
:101A00000895FC018191861721F08823D9F7992741
:101A100008953197CF010895FB01DC0101900D92EB
:101A20000020E1F70895FB01DC014150504030F007
:101A30008D910190801919F40020B9F7881B990B3A
:101A40000895FB01DC014150504048F001900D9297
:101A50000020C9F701C01D9241505040E0F70895A1
:101A6000FB0151915523A9F0BF01DC014D914517B0
:101A70004111E1F759F4CD010190002049F04D9159
:101A800040154111C9F3FB014111EFCF81E090E016
:101A900001970895AEE0B0E0E0E5FDE00C944785E5
:101AA0000D891E8986E08C831A8309838FEF9FE757
:101AB0009E838D839E01275E3F4FCE0101966F89E5
:101AC000788DA9010E946E0D2F813885020F131F9A
:101AD000F80110822E96E4E00C946385ABE0B0E050
:101AE000E4E7FDE00C9439853C012B015A01FC012F
:101AF00017821682838181FD03C06FEF7FEFC6C11D
:101B00009AE0892E1E010894211C311CF3012381C7
:101B1000F20123FD859123FF81912F01882309F490
:101B2000B2C1853239F423FD859123FF81912F01C4
:101B3000853229F490E0B3010E94610FE7CF982F1E
:101B4000FF24EE249924FFE1FF15D0F09B3269F0C9
:101B50009C3228F4903259F0933291F40EC09D32A9
:101B600049F0903369F441E024C052E0F52A84E062
:101B7000F82A28C098E0F92A25C0E0E1FE2A22C010
:101B8000F7FC29C0892F80538A3070F4F6FE05C017
:101B9000989C902C1124980E15C0E89CE02C1124E0
:101BA000E80EF0E2FF2A0EC09E3229F4F6FC6BC16B
:101BB00040E4F42A07C09C3619F450E8F52A02C024
:101BC000983649F4F20123FD959123FF91912F015D
:101BD000992309F0B8CF892F8554833018F08052AB
:101BE000833038F444E050E0A40EB51E5FE359831F
:101BF0000FC0933631F0933779F0933509F056C022
:101C000020C0F5018081898342E050E0A40EB51E1A
:101C1000610101E010E012C0F501C080D180F6FC46
:101C200003C06FEF7FEF02C0692D70E042E050E02B
:101C3000A40EB51EC6010E94560F8C015FE7F52267
:101C400014C0F501C080D180F6FC03C06FEF7FEFB8
:101C500002C0692D70E042E050E0A40EB51EC6013E
:101C60000E944B0F8C0150E8F52AF3FE07C01AC002
:101C700080E290E0B3010E94610FEA948E2D90E023
:101C800008171907A8F30EC0F601F7FC8591F7FEB7
:101C900081916F0190E0B3010E94610FE110EA941D
:101CA000015010400115110579F7EAC0943611F082
:101CB000993669F5F7FE08C0F5012081318142812E
:101CC000538184E090E00AC0F501808191819C01FC
:101CD000442737FD4095542F82E090E0A80EB91EAE
:101CE0009FE6F92257FF09C0509540953095219500
:101CF0003F4F4F4F5F4FE0E8FE2ACA01B901A101F3
:101D00002AE030E00E948D0FD82ED21840C09537BF
:101D100029F41F2D1F7E2AE030E01DC01F2D197FE2
:101D20009F3661F0903720F4983509F0ACC00FC0B1
:101D3000903739F0983709F0A6C004C028E030E0A9
:101D40000AC0106114FD146020E130E004C014FDED
:101D5000166020E132E017FF08C0F5016081718153
:101D60008281938144E050E008C0F5018081918137
:101D7000BC0180E090E042E050E0A40EB51EA1015D
:101D80000E948D0FD82ED2188FE7F82EF122F6FE82
:101D90000BC05EEFF522D91438F4F4FE07C0F2FC54
:101DA00005C08FEEF82202C01D2D01C0192DF4FED2
:101DB0000DC0FE01ED0DF11D8081803319F499EE07
:101DC000F92208C01F5FF2FE05C003C08F2D867880
:101DD00009F01F5F0F2DF3FC14C0F0FE0FC01E159D
:101DE00010F09D2C0BC09D2C9E0C911A1E2D06C030
:101DF00080E290E0B3010E94610F1F5F1E15C0F3E7
:101E000004C01E1510F4E11A01C0EE2404FF0FC037
:101E100080E390E0B3010E94610F02FF1DC001FD4D
:101E200003C088E790E00EC088E590E00BC0802FEB
:101E3000867891F001FF02C08BE201C080E2F7FCDE
:101E40008DE290E0B3010E94610F06C080E390E054
:101E5000B3010E94610F9A94D914C0F3DA94F1018E
:101E6000ED0DF11D808190E0B3010E94610FDD2036
:101E7000A9F706C080E290E0B3010E94610FEA94E6
:101E8000EE20C1F743CEF30166817781CB012B961B
:101E9000E2E10C945585FC01059061507040011001
:101EA000D8F7809590958E0F9F1F0895FC01615083
:101EB000704001900110D8F7809590958E0F9F1F6C
:101EC00008950F931F93CF93DF938C01EB018B81C8
:101ED00081FF1BC082FF0DC02E813F818C819D81BF
:101EE0002817390764F4E881F9810193F983E883BD
:101EF00006C0E885F985802F0995892B31F48E81FC
:101F00009F8101969F838E8302C00FEF1FEFC80150
:101F1000DF91CF911F910F910895FA01AA272830E0
:101F200051F1203181F1E8946F936E7F6E5F7F4FA6
:101F30008F4F9F4FAF4FB1E03ED0B4E03CD0670F22
:101F4000781F891F9A1FA11D680F791F8A1F911D75
:101F5000A11D6A0F711D811D911DA11D20D009F4C5
:101F600068943F912AE0269F11243019305D319307
:101F7000DEF6CF010895462F4770405D4193B3E0F0
:101F80000FD0C9F7F6CF462F4F70405D4A3318F097
:101F9000495D31FD4052419302D0A9F7EACFB4E048
:101FA000A6959795879577956795BA95C9F7009700
:101FB0006105710508959B01AC010A2E06945795A1
:101FC000479537952795BA95C9F7620F731F841FF8
:101FD000951FA01D0895FC014281242F30E0C90106
:101FE0009595879580658CBD40FF02C080E004C058
:101FF00080E0463009F081E08DBD8081E82FF0E07F
:102000000E94EB770895DF92EF92FF920F931F9358
:10201000CF93DF93EC01D62E79018A010E94EB0F5A
:102020000FB6F8948091BE0D9091BF0DA091C00D98
:10203000B091C10D0FBE9C014FEF10C00FB6F894C8
:102040008091BE0D9091BF0DA091C00DB091C10DBA
:102050000FBE821B930B8C52914038F44EBD0DB4D1
:1020600007FEFDCF8EB58F3F49F78D2D80648EBD65
:102070000DB407FEFDCF28E130E0D801C701022EE4
:1020800004C0B695A795979587950A94D2F78EBD0B
:102090000DB407FEFDCF285030408FEF283F3807A2
:1020A00061F7DD2011F485E906C058E0D51611F47A
:1020B00087E801C08FEF8EBD0DB407FEFDCF8CE029
:1020C000D81631F48FEF8EBD0DB407FEFDCF8EB55F
:1020D0009FEF2FEF2EBD0DB407FEFDCF8EB587FF0E
:1020E00004C0992311F09150F5CF8B83DF91CF91EC
:1020F0001F910F91FF90EF90DF900895BF92CF92C4
:10210000DF92EF92FF920F931F938C01B62E69011D
:102110007A0167E320E030E040E050E00E940310E5
:10212000C8016B2DA70196010E9403101F910F910A
:10213000FF90EF90DF90CF90BF900895FC018081D9
:10214000E82FF0E00E94E5770895DC016EBDFA010A
:1021500020E030E00DB407FEFDCF80818EBD0DB4D0
:1021600007FEFDCF81818EBD2E5F3F4F329682E00C
:102170002030380779F70DB407FEFDCF8FEF8EBD05
:102180000DB407FEFDCF8FEF8EBD0DB407FEFDCF62
:102190008FEF8EBD0DB407FEFDCF8EB513968C93D9
:1021A00013978F71853011F481E0089583E11196C2
:1021B0008C931197CD010E949E1080E00895CF92DC
:1021C000DF92EF92FF920F931F93CF93DF93EC0177
:1021D0007A018B0169018C81833039F059E0EE0C72
:1021E000FF1C001F111F5A95D1F7CE0168E1A8010D
:1021F00097010E940310882311F086E037C0CE01BA
:102200006EEFA6010E94A510882389F10FB6F894FD
:102210008091BE0D9091BF0DA091C00DB091C10DE8
:102220000FBE9C014FEF10C00FB6F8948091BE0D09
:102230009091BF0DA091C00DB091C10D0FBE821B3A
:10224000930B8855924040F44EBD0DB407FEFDCF70
:102250001EB51F3F49F718C087E108C01EBD0DB469
:1022600007FEFDCF8EB58823D1F086E18983CE01AC
:102270000E949E1080E0DF91CF911F910F91FF90FF
:10228000EF90DF90CF900895CE016DE020E030E038
:1022900040E050E00E940310882339F7DFCFCE01E1
:1022A0000E949E1081E0E7CFCF93DF93EC010FB641
:1022B000F8948091BE0D9091BF0DA091C00DB0918A
:1022C000C10D0FBEFC013FEF13C00FB6F894809113
:1022D000BE0D9091BF0DA091C00DB091C10D0FBE6C
:1022E0008E1B9F0B8D52914018F02B8381E10BC008
:1022F0003EBD0DB407FEFDCF2EB52F3F31F32B832E
:102300002E3F39F08FE08983CE010E949E1080E03D
:102310002FC0DA011197452BD9F08FEF8EBD20E049
:1023200030E09FEF0BC00DB407FEFDCF8EB5FB0173
:10233000E20FF31F80839EBD2F5F3F4F2A173B079D
:1023400090F30DB407FEFDCF8EB5A60FB71F8C938B
:102350008FEF8EBD0DB407FEFDCF8EB58FEF8EBD16
:102360000DB407FEFDCF8EB5CE010E949E1081E018
:10237000DF91CF910895CF92DF92EF92FF920F936A
:102380001F93CF93DF93EC017A018B0169018C815C
:10239000833039F0A9E0EE0CFF1C001F111FAA9535
:1023A000D1F7CE0161E1A80197010E9403108823B3
:1023B00039F084E08983CE010E949E1080E006C03F
:1023C000CE01B60140E052E00E945411DF91CF915E
:1023D0001F910F91FF90EF90DF90CF900895BF92E3
:1023E000CF92DF92EF92FF920F931F93CF93DF93E1
:1023F000EC01B62E842F1C82198248830FB6F89404
:102400002091BE0D3091BF0D4091C00D5091C10D76
:102410000FBE69010E94D177CE010E949E102398C1
:102420002B98229A219A209A289A85E08A8382E51D
:102430008CBD1DBC80E09FEF9EBD0DB407FEFDCF9F
:102440008F5F8A30C9F712C00FB6F8948091BE0D25
:102450009091BF0DA091C00DB091C10D0FBE8C1910
:102460009D09815D974010F081E05FC0CE0160E082
:1024700020E030E040E050E00E940310182F8B83F2
:10248000813011F7CE0168E02AEA31E040E050E007
:102490000E94031082FF02C01C8311C080E02FEF56
:1024A0002EBD0DB407FEFDCF9EB58F5F8430C1F702
:1024B0009B839A3A11F082E038C082E08C838C8151
:1024C000823021F0EE24FF24870118C0E12CF12C8A
:1024D000012D00E4102F12C00FB6F8948091BE0DAC
:1024E0009091BF0DA091C00DB091C10D0FBE8C1980
:1024F0009D09815D974010F08AE017C0CE0169E226
:10250000A80197010E947E108B83882329F78C8174
:10251000823029F5CE016AE320E030E040E050E06F
:102520000E940310882331F088E08983CE010E9445
:102530009E1021C08FEF8EBD0DB407FEFDCF8EB56E
:10254000807C803C11F483E08C8380E09FEF9EBD13
:102550000DB407FEFDCF2EB58F5F8330C1F7CE01DE
:102560000E949E1086E08B1518F488E1898303C0D1
:10257000BA8281E001C080E0DF91CF911F910F917D
:10258000FF90EF90DF90CF90BF900895DF93CF93AF
:102590000F92CDB7DEB7FC016983A081B18112969D
:1025A0002D913C911397BE016F5F7F4F41E050E04A
:1025B000F90109950F90CF91DF910895FC01148ADC
:1025C000178A138A2AED32E0328B218B14AA17AABC
:1025D00013AA32AB21ABEE5AFF4F10823396108212
:1025E0003497108232932293B196108233961082E0
:1025F00034971082329322937F9689E180833396B9
:102600001082789610823A96108233961082349710
:102610001082329322937E9610821182128213824C
:1026200038961082118212821382E45DF04011828A
:1026300012821082E852FF4F81E08083E85DF04013
:10264000108A17860FB6F8948091BE0D9091BF0D39
:10265000A091C00DB091C10D0FBEE053FF4F885740
:102660009C4EAF4FBF4F80839183A283B383089565
:10267000FC01118212820895FC018281882311F0ED
:1026800081E081830895FC01818181111182089587
:102690000F931F938C010E94591C0E94361CF80155
:1026A000118280E091E00E9445591F910F91089599
:1026B000CF93DF93DB010D900020E9F71197A61B64
:1026C000B70BEC01E881F9810280F381E02DAD01C7
:1026D0000995DF91CF910895FC018AED92E09183F5
:1026E00080838681882321F0CF0103960E948A6728
:1026F0000895EF92FF920F931F937C018C010F546A
:102700001F4FC8010E943A67C8010E948A67F701FB
:1027100010821F910F91FF90EF900895CF92DF925A
:10272000EF92FF920F931F93CF93DF937C016B0186
:10273000DB010D900020E9F78D0101501040061BD0
:10274000170BE1EBF0E0EE0EFF1ED7011C92EFE459
:10275000FFEFEE0EFF1ECB016EE470E00E94010D54
:10276000EC01009731F4F8013197EC0DFD1D860165
:102770000EC060E270E00E94010D8C010F5F1F4FE0
:10278000CE016AE270E00E94010DFC0131978DE0FC
:1027900081838AE082831382C70182559F4FB801EB
:1027A0000E94BC5981EB90E0E80EF91ED7018C9194
:1027B000882309F1EEEFF0E06491EF0107C086ECA9
:1027C0009DE00E94C6122196FE0164916623B9F72E
:1027D000E5E0F1E06491EF0107C086EC9DE00E9426
:1027E000C6122196FE0164916623B9F786EC9DE03E
:1027F0006AE00E94C612DF91CF911F910F91FF9066
:10280000EF90DF90CF900895EF92FF920F93CF93C8
:10281000DF937C01FC018281882309F43FC0EDE253
:10282000F1E06491EF0107C086EC9DE00E94C612C2
:102830002196FE0164916623B9F784ED90E0E80EDD
:10284000F91EF70140815181628173818CE29FEF13
:10285000E80EF91E86EC9DE02AE000E00E94B37EBF
:10286000EBE2F1E06491EF0107C086EC9DE00E948D
:10287000C6122196FE0164916623B9F78CEC90E0B4
:10288000E80EF91EF701408151816281738186EC67
:102890009DE02AE000E00E94B37E0EC0EBE1F1E093
:1028A0006491EF0107C086EC9DE00E94C61221965C
:1028B000FE0164916623B9F786EC9DE06AE00E9410
:1028C000C612DF91CF910F91FF90EF9008952F9254
:1028D0003F924F925F926F927F928F929F92AF92B0
:1028E000BF92CF92DF92EF92FF920F931F93DF93ED
:1028F000CF93CDB7DEB7AC970FB6F894DEBF0FBE5F
:10290000CDBF5C014B014CA7FC018281882309F4F7
:10291000A4C131EB432E512C4A0C5B1CC2010E9416
:102920008A67F5011182198A1C8A188A8AED92E059
:102930009F878E87C501419690AB87A7F401808160
:102940008F3209F080C0C4016FE270E00E94010D77
:102950007C010894E11CF11C3E010894611C711C6F
:1029600021E1222E312C2C0E3D1E68C0C7016FE2E2
:1029700070E00E94010D6C01009709F46CC0E8162C
:10298000F90608F068C08C010E191F09C301B701D0
:10299000A8010E94210D060D171DF801108286EC7A
:1029A0009DE0B3010E94581386EC9DE06AE00E940E
:1029B000C612F50167A570A96115710519F460E0EB
:1029C00070E002C06D5F7F4FC101A30121E00E9452
:1029D000216E882341F5EFEDF1E064917F0109C09C
:1029E00086EC9DE00E94C6120894E11CF11CF701E0
:1029F00064916623A9F786EC9DE0BE016F5F7F4F6F
:102A00000E945813EDEDF1E064917F0109C086EC5E
:102A10009DE00E94C6120894E11CF11CF70164912C
:102A20006623A9F711C12EE030E02C0F3D1FF50100
:102A300030AB27A776010894E11CF11CE114F104E6
:102A400009F094CF05C0C501C196F50190AB87A7E9
:102A5000082DD92C02C00E2DDF2CF50167A570A919
:102A6000FCA5FF2309F4A1C06115710519F460E00C
:102A700070E002C06D5F7F4FC201402F5D2D21E0ED
:102A80000E94216E882309F469C0A50144535F4F59
:102A900022EC30E0A20EB31EF50180819181A2816B
:102AA000B3812EE33FEFA20EB31EFA018083918320
:102AB000A283B383E0EDF1E064917F0109C086EC6D
:102AC0009DE00E94C6120894E11CF11CF70164917C
:102AD0006623A9F786EC9DE0602F7D2D0E94581398
:102AE000E9ECF1E064917F0109C086EC9DE00E9471
:102AF000C6120894E11CF11CF70164916623A9F742
:102B00002CEC30E0A20EB31EF501408151816281B0
:102B1000738186EC9DE02AE000E00E94B37E86ECA3
:102B20009DE06AE00E94C61228E030E0A20EB31ECB
:102B3000F5011082118212821382EBEBF1E06491B5
:102B40007F0109C086EC9DE00E94C6120894E11C3A
:102B5000F11CF70164916623A9F776C0E7EAF1E07A
:102B600064917F0109C086EC9DE00E94C612089422
:102B7000E11CF11CF70164916623A9F786EC9DE046
:102B8000602F7D2D0E945813E5EAF1E064917F01EA
:102B900009C086EC9DE00E94C6120894E11CF11C5D
:102BA000F70164916623A9F74FC06115710519F407
:102BB00060E070E002C06D5F7F4FC201402F5D2D6D
:102BC00026E50E94216E882339F5E1E9F1E0649160
:102BD0007F0109C086EC9DE00E94C6120894E11CAA
:102BE000F11CF70164916623A9F786EC9DE0602F44
:102BF0007D2D0E945813EFE8F1E064917F0109C038
:102C000086EC9DE00E94C6120894E11CF11CF701BD
:102C100064916623A9F718C081E0F5018083EDE790
:102C2000F1E064917F0109C086EC9DE00E94C6122C
:102C30000894E11CF11CF70164916623A9F786EC66
:102C40009DE0B4010E94581386EC9DE06AE00E946A
:102C5000C612CE010E960E946C13AC960FB6F89475
:102C6000DEBF0FBECDBFCF91DF911F910F91FF90BF
:102C7000EF90DF90CF90BF90AF909F908F907F901C
:102C80006F905F904F903F902F9008952F923F92BA
:102C90004F925F926F927F928F929F92AF92BF926C
:102CA000CF92DF92EF92FF920F931F93DF93CF9318
:102CB000CDB7DEB7AB970FB6F894DEBF0FBECDBF72
:102CC0005C014B01FC018281882309F400C1C5012C
:102CD0008F549F4F0E948A67F5011182198A1C8ABE
:102CE000188A8AED92E09F878E87C501419690AB46
:102CF00087A7F40180818F3209F081C0C4016FE29F
:102D000070E00E94010D7C010894E11CF11C3E0161
:102D10000894611C711C5EE0252E312C2C0E3D1E8A
:102D200041E1442E512C4C0E5D1E64C0C7016FE280
:102D300070E00E94010D6C01009709F468C0E8166C
:102D4000F90608F064C08C010E191F09C301B70110
:102D5000A8010E94210D060D171DF801108286ECB6
:102D60009DE0B3010E94581386EC9DE06AE00E944A
:102D7000C612F50167A570A96115710519F460E027
:102D800070E002C06D5F7F4FC201A30121E00E948D
:102D9000216E882341F5E9E6F1E064917F0109C0E5
:102DA00086EC9DE00E94C6120894E11CF11CF7011C
:102DB00064916623A9F786EC9DE0BE016F5F7F4FAB
:102DC0000E945813E7E6F1E064917F0109C086ECA8
:102DD0009DE00E94C6120894E11CF11CF701649169
:102DE0006623A9F76BC0F50130AA27A676010894DF
:102DF000E11CF11CE114F10409F098CF05C0C501F4
:102E0000C196F50190AB87A7D82C092D02C0DE2C06
:102E10000F2DF50187A590A9009719F480E090E0A7
:102E200001C003966D2D702F0E94F36E882301F16F
:102E3000E9E5F1E064917F0109C086EC9DE00E9424
:102E4000C6120894E11CF11CF70164916623A9F7EE
:102E500086EC9DE06D2D702F0E94581384ED90E05C
:102E6000A80EB91EF50110821182128213822BC0A6
:102E7000E1E4F1E064917F0109C086EC9DE00E94ED
:102E8000C6120894E11CF11CF70164916623A9F7AE
:102E900086EC9DE06D2D702F0E945813EFE3F1E05A
:102EA00064917F0109C086EC9DE00E94C6120894DF
:102EB000E11CF11CF70164916623A9F786EC9DE003
:102EC0006AE00E94C612CE010E960E946C13AB9669
:102ED0000FB6F894DEBF0FBECDBFCF91DF911F912B
:102EE0000F91FF90EF90DF90CF90BF90AF909F90A9
:102EF0008F907F906F905F904F903F902F900895AC
:102F0000EF92FF920F931F93CF93DF937C01FC010D
:102F100012828789882321F0C70144960E948A671C
:102F2000870105571F4FC80160E04AE10E94EF1179
:102F30008823E9F4E3EEF0E06491EF0107C086EC4A
:102F40009DE00E94C6122196FE0164916623B9F7A6
:102F5000E9E4F2E06491EF0107C086EC9DE00E9495
:102F6000C6122196FE0164916623B9F771C0E7018C
:102F7000C057DF4FCE01B80141E00E94947388230F
:102F800021F5CE01B80140E00E9494738823E9F452
:102F9000EEEFF0E06491EF0107C086EC9DE00E9447
:102FA000C6122196FE0164916623B9F7E6E3F2E0CA
:102FB0006491EF0107C086EC9DE00E94C612219645
:102FC000FE0164916623B9F743C0C7014496BE0170
:102FD0000E94146A8823E9F4EEEFF0E06491EF01B7
:102FE00007C086EC9DE00E94C6122196FE01649106
:102FF0006623B9F7E6E2F2E06491EF0107C086ECE0
:103000009DE00E94C6122196FE0164916623B9F7E5
:103010001FC081E0F7018283E3EEF0E06491EF01ED
:1030200007C086EC9DE00E94C6122196FE016491C5
:103030006623B9F7EBE1F2E06491EF0107C086EC9B
:103040009DE00E94C6122196FE0164916623B9F7A5
:1030500086EC9DE06AE00E94C612C7014196F70126
:1030600090AB87A7C701C49620E930E0E20EF31EBB
:10307000B7010E94146A882399F4E7E0F2E06491B2
:10308000EF0107C086EC9DE00E94C6122196FE016A
:1030900064916623B9F786EC9DE06AE00E94C6124F
:1030A000DF91CF911F910F91FF90EF9008952F9294
:1030B0003F924F925F927F928F929F92AF92BF9278
:1030C000CF92DF92EF92FF920F931F93DF93CF93F4
:1030D000CDB7DEB7CC55D0400FB6F894DEBF0FBEEB
:1030E000CDBF7C01662359F528ED30E0E20EF31EDA
:1030F000D7018C91E8E2FFEFEE0EFF1E882309F462
:10310000F3C00FB6F8942091BE0D3091BF0D4091E1
:10311000C00D5091C10D0FBE60ED70E0E60EF71EC0
:10312000F70180819181A281B38160E37FEFE60E98
:10313000F71E82179307A407B50708F4D5C088EDDA
:1031400090E0E80EF91ED7011C92E8E2FFEFEE0EC8
:10315000FF1ED70112968C91882341F4C7010E946B
:103160008017F7018281882309F4BEC000D000D007
:1031700000D0EDB7FEB731968E010F5F1F4FADB790
:10318000BEB712961C930E9311978CE091E0938337
:103190008283D7011F968D919C915097958384834C
:1031A0000E944A0DCC24DD24EDB7FEB736960FB64B
:1031B000F894FEBF0FBEEDBF58010AC0D8018C9134
:1031C000992787FD90950E942E85F80181938F01A4
:1031D000C601F50101900020E9F73197EA19FB09D2
:1031E0000894C11CD11C8E179F0744F3E4E18E2E76
:1031F000912C8E0C9F1CC40140E050E060E070E018
:103200000E94706677247DE3A72EB12CAC0EBD1E04
:103210001E010894211C311C6FE1462E512C4C0ECE
:103220005D1E48C0D6018C9190E00E942E85F6016B
:1032300081936F01C801F50101900020E9F73197F2
:10324000EA19FB090F5F1F4F8E179F075CF3279644
:103250008FAD27978E3771F1C501B10145E050E080
:103260000E94130D009731F500D000D000D0EDB7CB
:10327000FEB73196ADB7BEB712965C924E921197DB
:1032800025E131E033832283358224820E944A0D76
:103290006DB77EB76A5F7F4F0FB6F8947EBF0FBEE3
:1032A0006DBFC2010E9445598CE191E00E944559D1
:1032B00077247394C401B5010E948A69181624F416
:1032C000650100E010E0B6CF772041F48FEF9FEF6B
:1032D000D70150969C938E931F9706C0F701878560
:1032E00090890196908B8787C45ADF4F0FB6F89468
:1032F000DEBF0FBECDBFCF91DF911F910F91FF9029
:10330000EF90DF90CF90BF90AF909F908F907F9085
:103310005F904F903F902F9008952F923F924F9241
:103320005F926F927F928F929F92AF92BF92CF9255
:10333000DF92EF92FF920F931F93DF93CF93CDB75E
:10334000DEB7CB58D0400FB6F894DEBF0FBECDBF6E
:103350006C012B015A0183E090E0A80EB91EF60122
:103360003396CC57DF4FF983E883C458D040CA570F
:10337000DF4F1882C658D04014E6E12EF12CEC0E37
:10338000FD1EC7010B96C957DF4F99838883C75825
:10339000D040B9ED6B2E712C6C0C7D1CABED8A2EE0
:1033A000912C8C0C9D1CF6E42F2E312C2C0E3D1EE6
:1033B000F1013396C757DF4FF983E883C958D040EE
:1033C000E3EEF0E08491C557DF4F8883CB58D040BF
:1033D00026C1F7018385482F50E0BA0168717070EB
:1033E0006031710509F023C1F30120813181213061
:1033F000310509F41CC12230310509F418C1F70167
:10340000DE0111969081903239F08E2F8E1988301E
:1034100011F48EE28D939D933196C957DF4F8881C9
:103420009981C758D040E817F90761F71C921E86AA
:10343000F2018081882331F4CE010E9660E271E0C2
:103440000E94F60CCE010E96B2010E94F60CCE013F
:103450000E96BE016F5F7F4F0E94F60CCE010E9656
:1034600060E271E00E94F60C1BA61EA61AA68AED69
:1034700092E099A788A7CE018B96B501AE014F5F68
:103480005F4F21E00E94216E882371F5F301808156
:103490009181892B49F5C557DF4F6881CB58D040C2
:1034A00003EE10E008C086EC9DE00E94C6120F5F9C
:1034B0001F4FF80164916623B1F786EC9DE062E24C
:1034C00071E00E94581386EC9DE06AE00E94C612EB
:1034D00086EC9DE0BE016F5F7F4F0E94581386EC23
:1034E0009DE06AE00E94C612C757DF4FA881B981EC
:1034F000C958D040FE01BB968BE101900D928150DE
:10350000E1F78AA5F10182838AED92E091838083BD
:10351000C601BE01625F7F4FA1010E948D19C101EA
:103520000E946C13CE0188960E946C1378C0953E61
:1035300009F475C09E3209F472C09F3509F46FC05A
:1035400043FD6DC080E06031710509F481E0F60152
:103550008687882349F4F7018085873409F05FC0A6
:1035600081858E3709F45BC0CC57DF4FA881B981C4
:10357000C458D040F7018081803241F08E2F8E19DF
:10358000883011F48EE28D9380818D933196C957E6
:10359000DF4F88819981C758D040E817F90759F75C
:1035A0001C92F301808191810097A9F486EC9DE043
:1035B000B2010E94581386EC9DE0CC57DF4F688122
:1035C0007981C458D0400E94581386EC9DE06AE08F
:1035D0000E94C61224C08130910539F4F401808123
:1035E00091810196918380831AC00297C1F4CA57D2
:1035F000DF4FF881C658D0402F2F30E0F401808192
:10360000918128173907C1F0CA57DF4FF881C65892
:10361000D040FF5FCA57DF4FF883C658D040C5017E
:10362000B7010E948A6918160CF4D3CE05C0F701C1
:103630009081992309F07BCFC557DF4F0FB6F894DF
:10364000DEBF0FBECDBFCF91DF911F910F91FF90D5
:10365000EF90DF90CF90BF90AF909F908F907F9032
:103660006F905F904F903F902F900895EF92FF9250
:103670000F931F93DF93CF93CDB7DEB76E970FB63F
:10368000F894DEBF0FBECDBF7C0189ED90E0E80E5F
:10369000F91EF7011182108287E29FEFE80EF91EF2
:1036A00087010C5E1F4FC80140E050E060E070E011
:1036B0000E947066DE011496F8018BE101900D9274
:1036C0008150E1F7F70183898B838AED92E09A8339
:1036D0008983C70165E371E08E010F5F1F4FA80169
:1036E0000E948D19C8010E946C136E960FB6F89453
:1036F000DEBF0FBECDBFCF91DF911F910F91FF9025
:10370000EF9008951092280310922A0310922C0330
:103710000895809320020895EFE6F0E080818260B2
:1037200080830895099A0B9A0D9A0F9A6F9A779A47
:103730006E9A769A3F9A479A3B9A439A6B98739AF5
:103740002098289A6C98749A089A779A0A9A769A86
:103750000C9A479A0E9A439AA1E8B0E08C918F7E1A
:103760008C938C9188608C93E0E8F0E080818D7F71
:10377000808380818E7F808380818F73808380812E
:103780008F7C80838C91887F82608C9380E090E432
:103790009093890080938800109285001092840095
:1037A000EFE6F0E0808182608083109220027894BE
:1037B00008951F93FC011FB7F89480819181A28125
:1037C000B3818093020390930303A0930403B09307
:1037D0000503FB0180819181A281B381809306035F
:1037E00090930703A0930803B0930903FA01808123
:1037F0009181A281B38180930A0390930B03A093DC
:103800000C03B0930D03F90180819181A281B381F2
:1038100080930E0390930F03A0931003B0931103B2
:103820001FBF1F910895FC012FB7F89480819181EB
:10383000A281B38180930E0390930F03A093100392
:10384000B09311032FBF0895E82F8FB7F894F0E0DD
:10385000EE0FFF1FEE0FFF1FEE5FFC4F2081318147
:10386000428153818FBFB901CA01089580916F00D1
:103870008D7F80936F0006C080917B088F5F8F7073
:1038800080937B0890917A0880917B08981751F477
:103890001092F5021092F40280916F008260809382
:1038A0006F00089590917A0880917B08981751F3E2
:1038B000E3CF90917A0880917B08981731F00E94AD
:1038C000095E81E00E943C38F4CF08950E94591CA3
:1038D000779A769A479A439A08951F920F920FB655
:1038E0000F920BB60F921124AF92BF92CF92DF923C
:1038F000EF92FF920F931F932F933F934F935F93FA
:103900006F937F938F939F93AF93BF93CF93DF93E7
:10391000EF93FF938091F4029091F502892B09F0C7
:103920008BC190917A0880917B08981719F4E0E098
:10393000F0E014C080917B0890E02DE430E0829F9D
:10394000F001839FF00D929FF00D1124E655FC4F7E
:10395000E45BFF4F81E08083EC54F040F093F5028C
:10396000E093F402309709F461C11092340310928D
:103970003503109236031092370344AD55AD509382
:103980003303409332032CE94134520718F040E4EA
:103990005CE904C03EE44132530730F05695479548
:1039A0005695479584E007C067E24131560730F0ED
:1039B0005695479582E080932D0308C081E080935F
:1039C0002D034032510510F440E250E08A010052CC
:1039D000104078E000301707E8F0412F50E0440F26
:1039E000551F440F551F4A5A5D4F9A012E5F3F4F96
:1039F000F901859194919C01AA27039FC001029F20
:103A0000810D9A1F06948A1F9A1F1124FA0145916D
:103A100054911EC0C801969587958C7F8A5A994FFC
:103A2000FC0145915491FC01329625913491802FEF
:103A300090E087709070BC01269FC001279F900D79
:103A4000369F900D1124F3E096958795FA95E1F74E
:103A5000481B590B44365105A8F486EC9DE066E3FB
:103A600071E00E945813A80160E070E086EC9DE0D0
:103A70002AE000E00E94B37E86EC9DE00E94977EE3
:103A800044E650E0CA01A0E0B0E080932E0390939A
:103A90002F03A0933003B0933103509389004093D8
:103AA0008800E091F402F091F50240AD51AD7CE95F
:103AB0004134570718F040E45CE904C08EE4413219
:103AC000580730F0569547955695479584E007C0BE
:103AD00097E24131590730F05695479582E080933F
:103AE0002D0308C081E080932D034032510510F46E
:103AF00040E250E08A0100521040E8E000301E072A
:103B0000E8F0412F50E0440F551F440F551F4A5A0B
:103B10005D4F9A012E5F3F4FF901859194919C0171
:103B2000AA27039FC001029F810D9A1F06948A1F36
:103B30009A1F1124FA01459154911EC0C80196950F
:103B400087958C7F8A5A994FFC0145915491FC01CD
:103B5000329625913491802F90E087709070BC014F
:103B6000269FC001279F900D369F900D112433E0B2
:103B7000969587953A95E1F7481B590B44365105C0
:103B8000A8F486EC9DE066E371E00E945813A8015A
:103B900060E070E086EC9DE02AE000E00E94B37EE9
:103BA00086EC9DE00E94977E44E650E050933903F6
:103BB00040933803E091F402F091F50280899189F5
:103BC000A289B389B695A79597958795B095A09545
:103BD000909581959F4FAF4FBF4F80931203909365
:103BE0001303A0931403B0931503809316039093CB
:103BF0001703A0931803B093190380931A039093AB
:103C00001B03A0931C03B0931D0380931E0390938A
:103C10001F03A0932003B09321031092220310925C
:103C20002303109224031092250306C080ED97E031
:103C30009093890080938800E091F402F091F5025E
:103C4000309709F448C480A18093260380FF3CC0CC
:103C5000119A8FEF80931C02809120028823C1F17A
:103C6000639902C080E02DC080912703882341F131
:103C700080819181A281B381181619061A061B064C
:103C8000FCF48091020390910303A0910403B0918E
:103C900005038093F6029093F702A093F802B09385
:103CA000F90281E08093280380899189A289B389F0
:103CB0008093220390932303A0932403B0932503BE
:103CC00081E08093270304C0119881E080931C0257
:103CD0008091260381FF3EC0139A8FEF80931D02CF
:103CE000809120028823D1F183B190E0817090709F
:103CF000282F882361F180912903882341F1848151
:103D00009581A681B781181619061A061B06FCF4C0
:103D10008091060390910703A0910803B0910903D5
:103D20008093FA029093FB02A093FC02B093FD02F1
:103D300081E080932A0380899189A289B389809345
:103D4000220390932303A0932403B093250320938D
:103D5000290304C0139881E080931D0280912603FB
:103D600082FF3CC0159A8FEF80931E028091200243
:103D70008823C1F1649902C080E02DC080912B039B
:103D8000882341F180859185A285B385181619068F
:103D90001A061B06FCF480910A0390910B03A09174
:103DA0000C03B0910D038093FE029093FF02A09349
:103DB0000003B093010381E080932C0380899189F3
:103DC000A289B3898093220390932303A0932403B1
:103DD000B093250381E080932B0304C0159881E004
:103DE00080931E028091260383FF06C017988FEFF1
:103DF00080931F0260E050C1179A81E0F9CF2081C3
:103E00003181428153818091120390911303A091DB
:103E10001403B0911503280F391F4A1F5B1F20930D
:103E20001203309313034093140350931503121697
:103E30001306140615066CF5109A80899189A289DB
:103E4000B389281B390B4A0B5B0B20931203309369
:103E50001303409314035093150310982091020309
:103E600030910303409104035091050380911C029B
:103E7000992787FD9095A92FB92F820F931FA41F13
:103E8000B51F8093020390930303A0930403B093A0
:103E900005032481358146815781809116039091D5
:103EA0001703A0911803B0911903280F391F4A1F57
:103EB0005B1F20931603309317034093180350930E
:103EC000190312161306140615066CF5129A80894A
:103ED0009189A289B389281B390B4A0B5B0B20936C
:103EE0001603309317034093180350931903129845
:103EF0002091060330910703409108035091090374
:103F000080911D02992787FD9095A92FB92F820FC7
:103F1000931FA41FB51F8093060390930703A093DC
:103F20000803B0930903208531854285538580912C
:103F30001A0390911B03A0911C03B0911D03280F3D
:103F4000391F4A1F5B1F20931A0330931B034093B2
:103F50001C0350931D0312161306140615066CF568
:103F6000149A80899189A289B389281B390B4A0B3D
:103F70005B0B20931A0330931B0340931C03509355
:103F80001D03149820910A0330910B0340910C03F8
:103F900050910D0380911E02992787FD9095A92FBE
:103FA000B92F820F931FA41FB51F80930A0390930C
:103FB0000B03A0930C03B0930D0324853585468530
:103FC000578580911E0390911F03A0912003B0910B
:103FD0002103280F391F4A1F5B1F20931E033093B4
:103FE0001F03409320035093210312161306140657
:103FF00015066CF5169A80899189A289B389281BC8
:10400000390B4A0B5B0B20931E0330931F03409325
:10401000200350932103169820910E0330910F0333
:10402000409110035091110380911F02992787FD41
:104030009095A92FB92F820F931FA41FB51F8093AE
:104040000E0390930F03A0931003B093110380917C
:10405000220390912303A0912403B091250301969C
:10406000A11DB11D8093220390932303A0932403E9
:10407000B093250320912203309123034091240320
:104080005091250380899189A289B389281739071E
:104090004A075B0730F46F5F80912D0368170CF4BB
:1040A000AECE2091220330912303409124035091FE
:1040B000250384899589A689B78982179307A40760
:1040C000B50708F4E4C0E0902E03F0902F030091B0
:1040D000300310913103A48CB58CC68CD78CA80109
:1040E0009701C601B501AA27279FB12D389FE0018E
:1040F000489FD00D479FC00DD11D289FB00DC11DF9
:10410000DA1F379FB00DC11DDA1F469FB00DC11DCC
:10411000DA1F369FB10DCA1FDA1FB695CA1FDA1F04
:10412000112484AD95AD8C0F9D1F90933303809324
:10413000320320AD31AD42AD53ADA0E0B0E0281761
:1041400039074A075B0720F4309333032093320387
:1041500040913203509133037CE94134570718F002
:1041600040E45CE904C08EE44132580730F05695D3
:1041700047955695479584E007C097E24131590726
:1041800030F05695479582E080932D0308C081E07A
:1041900080932D034032510510F440E250E08A0133
:1041A00000521040E8E000301E07E8F0412F50E0D8
:1041B000440F551F440F551F4A5A5D4F9A012E5FF9
:1041C0003F4FF901859194919C01AA27039FC0015B
:1041D000029F810D9A1F06948A1F9A1F1124FA01CB
:1041E000459154911EC0C801969587958C7F8A5A37
:1041F000994FFC0145915491FC01329625913491DF
:10420000802F90E087709070BC01269FC001279F8F
:10421000900D369F900D1124F3E096958795FA95B1
:10422000E1F7481B590B44365105A8F486EC9DE094
:1042300066E371E00E945813A80160E070E086EC2C
:104240009DE02AE000E00E94B37E86EC9DE00E94A3
:10425000977E44E650E050938900409388009A018D
:1042600040E050E080912E0390912F03A091300305
:10427000B0913103820F931FA41FB51F80932E03AB
:1042800090932F03A0933003B0933103FFC020918C
:104290002203309123034091240350912503808D04
:1042A000918DA28DB38D82179307A407B50708F0EF
:1042B000E5C060913403709135038091360390918D
:1042C0003703248D358D468D578DAA27639FB12DD9
:1042D000749F8001849F100D839F000D111D649FAA
:1042E000B00D011D1A1F739FB00D011D1A1F829F73
:1042F000B00D011D1A1F729FB10D0A1F1A1FB6952E
:104300000A1F1A1F112480913203909133038017E2
:10431000910738F4E05CFF4F40815181E054F04058
:1043200003C0AC01401B510BE05CFF4F00811181C9
:1043300022813381CA01A0E0B0E080179107A20773
:10434000B30708F4A8017CE94134570718F040E4AA
:104350005CE904C08EE44132580730F05695479529
:104360005695479584E007C097E24131590730F0F0
:104370005695479582E080932D0308C081E0809395
:104380002D034032510510F440E250E08A01005202
:104390001040E8E000301E07E8F0412F50E0440FE5
:1043A000551F440F551F4A5A5D4F9A012E5F3F4FCC
:1043B000F901859194919C01AA27039FC001029F56
:1043C000810D9A1F06948A1F9A1F1124FA014591A4
:1043D00054911EC0C801969587958C7F8A5A994F33
:1043E000FC0145915491FC01329625913491802F26
:1043F00090E087709070BC01269FC001279F900DB0
:10440000369F900D112423E0969587952A95E1F724
:10441000481B590B44365105A8F486EC9DE066E331
:1044200071E00E945813A80160E070E086EC9DE006
:104430002AE000E00E94B37E86EC9DE00E94977E19
:1044400044E650E050938900409388009A0140E090
:1044500050E08091340390913503A0913603B091E0
:104460003703820F931FA41FB51F809334039093CB
:104470003503A0933603B093370308C08091380307
:1044800090913903909389008093880020912203B2
:10449000309123034091240350912503E091F402CD
:1044A000F091F50280899189A289B389281739078B
:1044B0004A075B0780F01092F5021092F402909187
:1044C0007A0880917B08981731F080917B088F5F84
:1044D0008F7080937B08FF91EF91DF91CF91BF9117
:1044E000AF919F918F917F916F915F914F913F918C
:1044F0002F911F910F91FF90EF90DF90CF90BF9081
:10450000AF900F900BBE0F900FBE0F901F9018959D
:10451000EF92FF920F931F93DF93CF930F92CDB73C
:10452000DEB780912803882349F480912A038823E9
:1045300029F480912C03882309F4E7C0E6E5FAE02A
:1045400084918F017E010894E11CF11C0CC08983C9
:1045500086EC9DE0B70141E050E00E94E37C0F5FF4
:104560001F4FF8018491882391F7E8E6FAE08491DF
:104570008F017E010894E11CF11C0CC0898386EC3C
:104580009DE0B70141E050E00E94E37C0F5F1F4FC8
:10459000F8018491882391F780912803882391F171
:1045A000E4E6FAE084918F017E010894E11CF11C9D
:1045B0000CC0898386EC9DE0B70141E050E00E9489
:1045C000E37C0F5F1F4FF8018491882391F760917E
:1045D000F6027091F7028091F8029091F9020E9420
:1045E0008D8120914E0330914F03409150035091A3
:1045F00051030E94F280AB01BC0186EC9DE022E0F9
:104600000E94527F80912A03882391F1E0E6FAE02C
:1046100084918F017E010894E11CF11C0CC08983F8
:1046200086EC9DE0B70141E050E00E94E37C0F5F23
:104630001F4FF8018491882391F76091FA027091DD
:10464000FB028091FC029091FD020E948D812091DD
:1046500052033091530340915403509155030E94EB
:10466000F280AB01BC0186EC9DE022E00E94527F0B
:1046700080912C03882391F1ECE5FAE084918F017D
:104680007E010894E11CF11C0CC0898386EC9DE03E
:10469000B70141E050E00E94E37C0F5F1F4FF8013B
:1046A0008491882391F76091FE027091FF028091BE
:1046B0000003909101030E948D8120915603309157
:1046C000570340915803509159030E94F280AB0167
:1046D000BC0186EC9DE022E00E94527F86EC9DE0CA
:1046E0006AE471E00E9458138AE0898386EC9DE0B9
:1046F000BE016F5F7F4F41E050E00E94E37C10926B
:10470000280310922A0310922C030F90CF91DF916F
:104710001F910F91FF90EF900895CF93DF939091A9
:104720007B0880917A08981709F442C040917B0871
:10473000242F30E08DE490E0289FF001299FF00DB8
:10474000389FF00D1124EE50FC4F708160E050E076
:10475000CDE4D0E028C0242F30E02C9FF0012D9F25
:10476000F00D3C9FF00D1124E655FC4F808591859E
:10477000A285B3850097A105B10509F06F5F2C9F55
:10478000F0012D9FF00D3C9FF00D1124EE50FC4FD9
:1047900080819181A281B3810097A105B10509F0C3
:1047A0005F5F4F5F4F7080917A084817A1F612C083
:1047B00080919409882359F03E9A90E09093990053
:1047C000809398008091900080688093900050E0E2
:1047D00070E002C0662309F4479A80919409882307
:1047E00041F45523A1F43E9A10929900109298003A
:1047F00009C0772361F03E9A872F90E0909399004B
:104800008093980080919000806880939000DF9161
:10481000CF91089580937C080895FC016081718197
:104820008281938120915A0330915B0340915C0314
:1048300050915D030E94CB830E949B836093A603EB
:104840007093A7038093A8039093A90386EA93E04B
:104850000E94131C08958F929F92AF92BF92CF92A5
:10486000DF92EF92FF920F931F93FC018B015A018D
:104870004901608171818281938120914E03309141
:104880004F0340915003509151030E94CB830E94EB
:104890009B833AE9C32E33E0D32E60939A0370933F
:1048A0009B0380939C0390939D03F8016081718129
:1048B000828193812091520330915303409154039C
:1048C000509155030E94CB830E949B8324E0E22EEB
:1048D000F12CEC0CFD1C60939E03F7017183828325
:1048E0009383F501608171818281938120915603C8
:1048F0003091570340915803509159030E94CB8344
:104900000E949B838601085F1F4F6093A203F801FA
:10491000718382839383F4016081718182819381A9
:1049200020915A0330915B0340915C0350915D03E9
:104930000E94CB830E949B83F6013C966093A60362
:10494000718382839383C601B701A8019F010E94EE
:10495000D91B80E090E0A0E0B0E080937D089093C8
:104960007E08A0937F08B09380088093810890937D
:104970008208A0938308B09384088093850890935D
:104980008608A0938708B09388088093890890933D
:104990008A08A0938B08B0938C0880938D0890931D
:1049A0008E08A0938F08B09390081F910F91FF90ED
:1049B000EF90DF90CF90BF90AF909F908F90089531
:1049C0008F929F92AF92BF92CF92DF92EF92FF921F
:1049D0000F931F93CF93DF93EC016B01009709F4C2
:1049E0005CC08FA9882309F058C0EEA0FFA008A5DD
:1049F00019A5FB01B6A0A7A090A481A4C801B70186
:104A00002B2D3A2D492D582D0E94EB8088230CF038
:104A100044C0C801B701A80197010E94CB837B0164
:104A20008C016AA97BA98CA99DA9905820E030E04F
:104A300040E050EC0E94CB832EA53FA548A959A980
:104A40000E94CB839B01AC01C801B7010E94128078
:104A50000E9438847B018C016B2D7A2D892D982D35
:104A60009701A8010E94EB80882324F4EB2CFA2CF8
:104A7000092D182D6B2D7A2D892D982D9701A801C0
:104A80000E94EB80882349F0C701D801F60186A374
:104A900097A3A0A7B1A781E086ABDF91CF911F912B
:104AA0000F91FF90EF90DF90CF90BF90AF909F90CD
:104AB0008F900895EF92FF920F931F93CF93DF9300
:104AC000F0907B0800E010E020E030E04DE4E42EC0
:104AD00012C0FE9CE0011124C655DC4FC901B8018B
:104AE000AE010E94E0248F2D8F5F803109F480E0B9
:104AF000F82E98018E0180917A08F81651F7C901B5
:104B0000B80140E050E00E94E024DF91CF911F9176
:104B10000F91FF90EF900895AF92BF92CF92DF92E6
:104B2000EF92FF920F931F93CF93DF93EB018A01D4
:104B30006115710509F466C04115510509F462C09B
:104B4000DAA4CBA4BCA4ADA46EA17FA188A599A52D
:104B50002D2D3C2D4B2D5A2D0E94EB80882309F4DE
:104B600051C08FA9882309F043C0F801E6A0F7A03F
:104B700000A511A56D2D7C2D8B2D9A2DA8019701D7
:104B80000E94F9821816A4F5C801B701A80197017F
:104B90000E94CB837B018C016AA97BA98CA99DA96A
:104BA000905820E030E040E050EC0E94CB832EA5EE
:104BB0003FA548A959A90E94CB839B01AC01C8011C
:104BC000B7010E9412800E9438847B018C016D2DF8
:104BD0007C2D8B2D9A2D9701A8010E94EB808823B4
:104BE00024F4ED2CFC2C0B2D1A2DC701D80104C088
:104BF0008D2D9C2DAB2DBA2D8EA39FA3A8A7B9A751
:104C000081E08EABDF91CF911F910F91FF90EF90DC
:104C1000DF90CF90BF90AF900895CF92DF92FF9238
:104C20000F93DF93CF9300D0CDB7DEB780917A0892
:104C300080917A0820917B0890E04096821B910930
:104C40008F709070049714F100917A0803500F70E0
:104C5000CC24DD2440E050E06DE4F62E13C0802F1C
:104C6000002309F480E1082F01500F9DC001112499
:104C700086559C4F9A838983B6010E948C25A60194
:104C8000C980DA8080917B08081749F70F900F9050
:104C9000CF91DF910F91FF90DF90CF900895109208
:104CA0007A0810927B0880E1EAE9F3E0DF011D92C7
:104CB0008A95E9F780E090E0A0E0B0E08093810879
:104CC00090938208A0938308B0938408809385080A
:104CD00090938608A0938708B093880880938908EA
:104CE00090938A08A0938B08B0938C0880938D08CA
:104CF00090938E08A0938F08B093900880937D08BE
:104D000090937E08A0937F08B093800808952F9217
:104D10003F924F925F926F927F928F929F92AF924B
:104D2000BF92CF92DF92EF92FF920F931F93DF9388
:104D3000CF93CDB7DEB766970FB6F894DEBF0FBE40
:104D4000CDBF9E8B8D8B6A017B0148015901DC012F
:104D5000D8966D917D918D919C91DB970E948B816E
:104D6000698B7A8B8B8B9C8BA70196010E94CB83DE
:104D70000E94D8800E945F816D837E838F83988795
:104D800069897A898B899C89A50194010E94CB83CA
:104D90000E94D8800E945F8169837A838B839C8381
:104DA0002D813E814F8158852837310541055105B8
:104DB00040F448E750E060E070E04D835E836F832D
:104DC000788769817A818B819C816837710581053B
:104DD000910540F488E790E0A0E0B0E089839A83F1
:104DE000AB83BC83AD89BE89AC5BBF4FAD90BD903A
:104DF000CD90DC901397A454B040BE8BAD8BDC9665
:104E00006D917D918D919C91DF970E948B816D8733
:104E10007E878F87988BC601B5010E948D811B010B
:104E20002C0120E030E040E050E00E94EB8088233D
:104E300021F4E0E070E060E028C069897A898B891C
:104E40009C899B01AC010E94CB837B018C016D8509
:104E50007E858F8598899B01AC010E94CB839B0145
:104E6000AC01C801B7010E9411807B018C01C20115
:104E7000B101A20191010E9412809B01AC01C80105
:104E8000B7010E94F280E62F692F2E2F372F482F6F
:104E9000562FB901CA010E94D8800E945A813B0155
:104EA0004C01ED89FE89E05CFF4F60817181828158
:104EB00093810E948B8169877A878B879C8766277D
:104EC0007727CB016A197B098C099D090E948D8186
:104ED0005B016C0120E030E040E050E00E94EB809C
:104EE000882321F4E0E070E060E028C069857A85DD
:104EF0008B859C859B01AC010E94CB837B018C013F
:104F000069897A898B899C899B01AC010E94CB833A
:104F10009B01AC01C801B7010E9411807B018C018B
:104F2000C601B501A60195010E9412809B01AC014A
:104F3000C801B7010E94F280E62F692F2E2F372F6C
:104F4000482F562FB901CA010E94C881ED89FE89F8
:104F5000A088B188C288D38886017501E618F70851
:104F6000080919090E945A81A8019701261B370BCD
:104F7000480B590B57FF71C0C201B10120E030E06E
:104F800040E050E00E94EB80882321F4E0E070E0F4
:104F900060E044C0C201B101A20191010E941280EF
:104FA0007B018C01C601B5010E948B819B01AC0184
:104FB000C801B7010E94CB837B018C016D857E8582
:104FC0008F8598899B01AC010E94CB839B01AC012A
:104FD000C801B7010E9411807B018C0169857A8527
:104FE0008B859C859B01AC010E94CB839B01AC010E
:104FF000C801B7010E9412807B018C01C201B1017E
:1050000020E030E040E850E40E94CB839B01AC01FB
:10501000C801B7010E94F280E62F692F2E2F372F8B
:10502000482F562FB901CA010E94D8800E945A8188
:10503000AC01CB01DA013C014D0197FE03C06624AF
:10504000772443016A147B048C049D0410F035011D
:10505000460120E030E040E050E09FB7F8946D89D1
:105060007E89645B7F4FDB018C91AC54B040BE8B7A
:10507000AD8B882321F5FD01648A758A868A978A1B
:10508000260D371D481D591D58962D933D934D9360
:105090005C935B972D813E814F815885DC962D93E3
:1050A0003D934D935C93DF97A05CBF4F29813A817C
:1050B0004B815C812D933D934D935C9313979FBFE0
:1050C00066960FB6F894DEBF0FBECDBFCF91DF91CD
:1050D0001F910F91FF90EF90DF90CF90BF90AF9016
:1050E0009F908F907F906F905F904F903F902F9008
:1050F00008954F925F927F928F929F92AF92BF924C
:10510000CF92DF92EF92FF920F931F93CF93DF9393
:1051100070907B08C0E0D0E07DE4472E512C46C063
:105120002097B1F18EA9882361F4849CF001859CBD
:10513000F00D949CF00D1124E655FC4F86A98823B0
:1051400039F1EAA0FBA00CA11DA16EA17FA188A549
:1051500099A5A80197010E94F2805B016C01849CD3
:10516000F001859CF00D949CF00D1124E655FC4F48
:1051700066A177A180A591A5A80197010E94F28060
:105180008B019C01CE01B601A5010E9487261EAAB3
:10519000739480E1781609F47724849CE001859C5F
:1051A000D00D949CD00D1124C655DC4F872C99242A
:1051B00087FC909480917A0890E08816990609F00F
:1051C000AFCF2097F1F0EAA0FBA00CA11DA16EA12A
:1051D0007FA188A599A5A80197010E94F2805B0193
:1051E0006C0160E070E080E090E4A80197010E940B
:1051F000F2808B019C01CE01B601A5010E94872699
:105200001EAADF91CF911F910F91FF90EF90DF9039
:10521000CF90BF90AF909F908F907F905F904F9076
:1052200008950E940D260E945A250E94792808950B
:105230002F923F924F925F926F927F928F929F92A6
:10524000AF92BF92CF92DF92EF92FF920F931F9394
:10525000DF93CF93CDB7DEB7C558D0400FB6F894E3
:10526000DEBF0FBECDBF5C014B013A012901CE5715
:10527000DF4FE882C258D040CD57DF4FF882C35885
:10528000D040CC57DF4F0883C458D040CB57DF4FB6
:105290001883C558D040A296DFAECEAEA2978091BB
:1052A0007A088F5F803109F480E0282F332727FDAB
:1052B000309539AB28AB05C00E94095E81E00E94A1
:1052C0003C3880917B0890E048A959A9841795073C
:1052D00099F3D5016D917D918D919C9120914E0313
:1052E00030914F0340915003509151030E94CB8362
:1052F0000E949B83AF966FAFAF97E0967FAFE0972A
:10530000E1968FAFE197E2969FAFE297F40160815B
:105310007181828193812091520330915303409196
:105320005403509155030E94CB830E949B83E396C4
:105330006FAFE397E4967FAFE497E5968FAFE5977D
:10534000E6969FAFE697D3016D917D918D919C91EB
:1053500020915603309157034091580350915903BF
:105360000E94CB830E949B83E7966FAFE797E896F6
:105370007FAFE897E9968FAFE997EA969FAFEA97F4
:10538000F201608171818281938120915A03309171
:105390005B0340915C0350915D030E94CB830E94AC
:1053A0009B83EB966FAFEB97EC967FAFEC97ED9608
:1053B0008FAFED97EE969FAFEE978091A6039091F9
:1053C000A703A091A803B091A903EE962CAD3DAD23
:1053D0004EAD5FADEE97281739074A075B0709F412
:1053E0005FC060919309E62FF0E0EE0FFF1FE959CF
:1053F000F44F808191810E94E55C20E030E04AE238
:1054000053E40E94EB8088230CF04AC080917C0812
:10541000882309F045C0EE964CAD5DAD6EAD7FAD15
:10542000EE974093A6035093A7036093A80370934D
:10543000A903E7E7FAE084918F017E010894E11C5B
:10544000F11C0CC0898386EC9DE0B70141E050E07F
:105450000E94E37C0F5F1F4FF8018491882391F72E
:10546000EBE9FAE084918F017E010894E11CF11CC4
:105470000CC0898386EC9DE0B70141E050E00E94BA
:10548000E37C0F5F1F4FF8018491882391F78AE036
:10549000898386EC9DE0B70141E050E00E94E37C07
:1054A0008091A6039091A703A091A803B091A903AE
:1054B000EE962CAD3DAD4EAD5FADEE97281B390B92
:1054C0004A0B5B0BCA01B90157FF07C09095809545
:1054D000709561957F4F8F4F9F4F0E948D817B010B
:1054E0008C01609137027091380220913502309121
:1054F0003602620F731F882777FD8095982F0E94D0
:105500008D8120915A0330915B0340915C0350914F
:105510005D030E94CB839B01AC01C801B7010E94CF
:10552000F98218160CF045C0EE964CAD5DAD6EAD2F
:105530007FADEE974093A6035093A7036093A80313
:105540007093A903E7E7FAE084918F017E01089444
:10555000E11CF11C0CC0898386EC9DE0B70141E0A1
:1055600050E00E94E37C0F5F1F4FF8018491882375
:1055700091F7EDE7FAE084918F017E010894E11C38
:10558000F11C0CC0898386EC9DE0B70141E050E03E
:105590000E94E37C0F5F1F4FF8018491882391F7ED
:1055A0008AE0898386EC9DE0B70141E050E00E94EB
:1055B000E37C80917A08282F30E0A0963FAF2EAF91
:1055C000A0978DE490E0289FF001299FF00D389F6F
:1055D000F00D1124E655FC4FE45BFF4F1082EC54B4
:1055E000F04040919A0350919B0360919C0370910D
:1055F0009D036E964CAF5DAF6EAF7FAF6E97E29638
:105600008CAD9DADAEADBFADE297841B950BA60BE7
:10561000B70B6A968CAF9DAFAEAFBFAF6A97808372
:105620009183A283B383B7FF0BC0B095A0959095EB
:1056300081959F4FAF4FBF4F80839183A283B383E8
:1056400020919E0330919F034091A0035091A103AC
:1056500066962CAF3DAF4EAF5FAF6697E6966CADEA
:105660007DAD8EAD9FADE697621B730B840B950BE2
:1056700062966CAF7DAF8EAF9FAF62978DE490E086
:10568000A096AEADBFADA097A89FF001A99FF00D69
:10569000B89FF00D1124E655FC4F62962CAD3DAD40
:1056A0004EAD5FAD6297248335834683578357FFA2
:1056B0000DC0DA01C901B095A095909581959F4FD5
:1056C000AF4FBF4F84839583A683B7834091A203D6
:1056D0005091A3036091A4037091A5032E964CAF43
:1056E0005DAF6EAF7FAF2E97EA968CAD9DADAEAD40
:1056F000BFADEA97841B950BA60BB70B2A968CAF10
:105700009DAFAEAFBFAF2A978DE490E0A096AEAD4F
:10571000BFADA097A89FF001A99FF00DB89FF00D15
:105720001124E655FC4F2A962CAD3DAD4EAD5FAD34
:105730002A97208731874287538757FF0DC0DA01A8
:10574000C901B095A095909581959F4FAF4FBF4FE0
:1057500080879187A287B3872090A6033090A70304
:105760004090A8035090A903EE964CAD5DAD6EAD90
:105770007FADEE9742195309640975094AA75BA7E3
:105780006CA77DA7E0913302F0913402CB01BA01FE
:1057900097FF07C090958095709561957F4F8F4FCB
:1057A0009F4F9F01442737FD4095542F0E949D84B1
:1057B00024E630E040E050E00E94F1848DE490E087
:1057C000A0966EAD7FADA097689FF001699FF00D28
:1057D000789FF00D1124E655FC4FDF011C962487BD
:1057E00011963C93119712964C93129713965C93D3
:1057F0006080718082809380A480B580C680D780CD
:10580000E084F18402851385C901DA018E159F05B4
:10581000A007B10714F4D801C7018A159B05AC0590
:10582000BD0514F4D601C5019C01AD01861597058F
:10583000A805B90514F4A40193018DE490E0A096A5
:10584000AEADBFADA097A89FB001A99F700DB89F46
:10585000700D112466557C4FFB01208B318B428BE0
:10586000538B263031054105510510F40C946C35ED
:10587000E85BFF4F8091940990E0A0E0B0E0808366
:105880009183A283B383DB0190961C92E2962CADA8
:105890003DAD4EAD5FADE2976E968CAD9DADAEADBC
:1058A000BFAD6E97281739074A075B0724F481E0DC
:1058B000DB0190968C93E6962CAD3DAD4EAD5FAD81
:1058C000E69766966CAD7DAD8EAD9FAD669726175B
:1058D00037074807590794F48DE490E0A096AEADE1
:1058E000BFADA097A89FF001A99FF00DB89FF00D44
:1058F0001124E655FC4F80A1826080A3EA962CAD6E
:105900003DAD4EAD5FADEA972E966CAD7DAD8EADE3
:105910009FAD2E97261737074807590794F48DE453
:1059200090E0A096AEADBFADA097A89FF001A99F53
:10593000F00DB89FF00D1124E655FC4F80A1846056
:1059400080A3EE962CAD3DAD4EAD5FADEE9722152A
:1059500033054405550594F48DE490E0A0964EADD2
:105960005FADA097489FF001499FF00D589FF00D43
:105970001124E655FC4F80A1886080A38DE490E05F
:10598000A0966EAD7FADA097689FF001699FF00D66
:10599000789FF00D1124E655FC4FA296AEADBFAD39
:1059A000A2978C9181A320813181428153812696D7
:1059B0002CAF3DAF4EAF5FAF2697211531054105A6
:1059C000510509F077988DE490E0A0964EAD5FAD5B
:1059D000A097489FF001499FF00D589FF00D1124AA
:1059E000E655FC4F648175818681978122966CAF64
:1059F0007DAF8EAF9FAF229761157105810591052F
:105A000009F076988DE490E0A096AEADBFADA0977A
:105A1000A89FF001A99FF00DB89FF00D1124E65545
:105A2000FC4F6084718482849384611471048104C6
:105A3000910409F047988DE490E0A0962EAD3FAD1B
:105A4000A097289FF001299FF00D389FF00D112499
:105A5000E655FC4F84859585A685B7850097A105F9
:105A6000B10551F0439820906E0330906F03409041
:105A700070035090710308C0209086033090870314
:105A80004090880350908903CE57DF4F6881C258F9
:105A9000D040CD57DF4F7881C358D040CC57DF4F2F
:105AA0008881C458D040CB57DF4F9881C558D0402B
:105AB000A20191010E94EB8087FD16C0CE57DF4FF7
:105AC0008881C258D040CD57DF4F9881C358D0400D
:105AD000CC57DF4FA881C458D040CB57DF4FB88197
