:100000000C941D0B0C94480B0C94480B0C94480B4F
:100010000C94480B0C94480B0C94480B0C94480B14
:100020000C94480B0C94480B0C949B800C94147FFC
:100030000C94480B0C94480B0C94480B0C94480BF4
:100040000C94480B0C94F3670C94480B0C94480BDD
:100050000C94480B0C94480B0C9488700C94D77D2E
:100060000C94480B0C94480B0C94480B0C94480BC4
:100070000C94480B0C94480B0C94480B0C94480BB4
:100080000C94480B0C94480B0C94480B0C94480BA4
:100090000C940C7B0C94480B084AD73B3BCE016E6A
:1000A00084BCBFFDC12F3D6C74319ABD56833DDACF
:1000B0003D00C77F11BED9E4BB4C3E916BAAAABEDE
:1000C000000000803F05A84CCDB2D44EB93836A907
:1000D000020C50B9918688083CA6AAAA2ABE000044
:1000E00000803F4D383420582059205A2045006563
:1000F00063686F3A0043616E6E6F7420656E74655D
:1001000072207375626469723A20004D3234004D7A
:100110003233202573006175746F25692E670045A1
:1001200072726F723A006572726F722077726974C0
:10013000696E6720746F2066696C65004E6F74206D
:100140005344207072696E74696E67002F005344C7
:10015000207072696E74696E672062797465200020
:100160002E0044656C6574696F6E206661696C650C
:10017000642C2046696C653A200046696C652064F1
:10018000656C657465643A002E006F70656E20665C
:1001900061696C65642C2046696C653A2000577271
:1001A0006974696E6720746F2066696C653A200017
:1001B0002E006F70656E206661696C65642C204648
:1001C000696C653A20002E006F70656E206661696B
:1001D0006C65642C2046696C653A200046696C6544
:1001E0002073656C6563746564002053697A653AB1
:1001F000200046696C65206F70656E65643A20006A
:100200002E006F70656E206661696C65642C2046F7
:10021000696C653A200053442063617264206F6BFF
:10022000006F70656E526F6F74206661696C6564F3
:1002300000766F6C756D652E696E697420666169F4
:100240006C656400534420696E6974206661696C52
:10025000006563686F3A0048617264636F64656447
:100260002044656661756C742053657474696E67AB
:1002700073204C6F616465640053746F7265642011
:1002800073657474696E67732072657472696576DC
:100290006564002044002049002020204D33303187
:1002A0002050005049442073657474696E67733A36
:1002B00000205A0020590020204D323036205800AE
:1002C000486F6D65206F666673657420286D6D29B3
:1002D0003A00204500205A002058002042002054B7
:1002E0000020204D323035205300416476616E632A
:1002F0006564207661726961626C65733A20533D72
:100300004D696E20666565647261746520286D6D47
:100310002F73292C20543D4D696E207472617665CF
:100320006C20666565647261746520286D6D2F733D
:10033000292C20423D6D696E696D756D207365676E
:100340006D656E742074696D6520286D73292C208D
:10035000583D6D6178696D756D205859206A6572D8
:100360006B20286D6D2F73292C20205A3D6D6178EC
:10037000696D756D205A206A65726B20286D6D2F2E
:1003800073292C2020453D6D6178696D756D204580
:10039000206A65726B20286D6D2F73290020540030
:1003A00020204D323034205300416363656C657208
:1003B0006174696F6E3A20533D616363656C657269
:1003C0006174696F6E2C20543D7265747261637440
:1003D00020616363656C65726174696F6E002045AE
:1003E00000205A0020590020204D32303120580082
:1003F0004D6178696D756D20416363656C657261EF
:1004000074696F6E20286D6D2F7332293A00204574
:1004100000205A0020590020204D3230332058004F
:100420004D6178696D756D2066656564726174658E
:100430007320286D6D2F73293A00204500205A0043
:1004400020590020204D39322058005374657073B4
:100450002070657220756E69743A00536574746912
:100460006E67732053746F726564006563686F3ADA
:10047000004572726F723A005072696E7465722034
:1004800073746F707065642064756520746F206587
:1004900072726F72732E20466978207468652065C9
:1004A00072726F7220616E6420757365204D3939E8
:1004B0003920746F20726573746172742E20285411
:1004C000656D7065726174757265206973207265FF
:1004D0007365742E20536574206974206166746599
:1004E000722072657374617274696E67290050724C
:1004F000696E7465722068616C7465642E206B6926
:100500006C6C28292063616C6C656421006F6B0042
:10051000526573656E643A20002200556E6B6E6FF3
:10052000776E20636F6D6D616E643A2022007A5F92
:100530006D696E3A2000795F6D696E3A2000785FD0
:100540006D696E3A20005A3A00593A0020436F759F
:100550006E7420583A2000453A005A3A00593A0041
:10056000583A004649524D574152455F4E414D451C
:100570003A4D61726C696E2056313B20537072693E
:100580006E7465722F6772626C206D61736875702E
:1005900020666F722067656E36204649524D57417E
:1005A00052455F55524C3A687474703A2F2F7777E2
:1005B000772E6D656E64656C2D70617274732E6339
:1005C0006F6D2050524F544F434F4C5F564552531E
:1005D000494F4E3A312E30204D414348494E455FF8
:1005E000545950453A4D656E64656C2045585452D7
:1005F000554445525F434F554E543A310A0020420C
:100600003A0020453A00543A0020573A0020453A33
:1006100000543A002042403A0020403A00202F0087
:1006200020423A00202F006F6B20543A00256920A9
:100630006D696E2C2025692073656300456E64200A
:1006400066696C65206C69737400426567696E2029
:1006500066696C65206C6973740000004D4300008E
:100660004D43000048430000A0400000A0400000AF
:10067000803FFFFFFF0000000000000000000000BE
:100680000000000000000000000000000000004D1D
:100690004300004D4300004843256920686F757290
:1006A00073202569206D696E7574657300446F6EE3
:1006B00065207072696E74696E672066696C65008A
:1006C0005072696E7465722073746F707065642007
:1006D00064756520746F206572726F72732E204688
:1006E000697820746865206572726F7220616E642B
:1006F00020757365204D39393920746F2072657308
:10070000746172742E202854656D70657261747501
:1007100072652069732072657365742E2053657449
:1007200020697420616674657220726573746172E9
:1007300074696E6729006F6B004E6F204C696E659F
:10074000204E756D626572207769746820636865F4
:10075000636B73756D2C204C617374204C696E65EE
:100760003A20004E6F20436865636B73756D207788
:10077000697468206C696E65206E756D6265722C97
:10078000204C617374204C696E653A200063686583
:10079000636B73756D206D69736D617463682C2074
:1007A0004C617374204C696E653A20004C696E652B
:1007B000204E756D626572206973206E6F74204CD7
:1007C000617374204C696E65204E756D6265722B85
:1007D000312C204C617374204C696E653A20004DB9
:1007E00031313000446F6E6520736176696E672029
:1007F00066696C652E006F6B004D32390020205009
:100800006C616E6E6572427566666572427974657A
:10081000733A20002046726565204D656D6F7279D0
:100820003A20004A756E20203120323031330043A7
:100830006F6D70696C65643A2000286E6F6E652C70
:100840002064656661756C7420636F6E66696729E4
:1008500000207C20417574686F723A20004A756EE2
:1008600020203120323031332031353A35313A31A0
:100870003600204C61737420557064617465643A6D
:100880002000312E302E30004D61726C696E2000D8
:1008900020536F66747761726520526573657400CA
:1008A000205761746368646F6720526573657400D4
:1008B0002042726F776E206F757420526573657475
:1008C000002045787465726E616C205265736574A2
:1008D00000506F77657255700073746172740022F6
:1008E00000656E717565696E672022002200656E75
:1008F000717565696E672022006563686F3A002034
:10090000746F6F206C6F6E67206578747275736991
:100910006F6E2070726576656E7465640020636F1B
:100920006C6420657874727573696F6E207072657F
:1009300076656E746564007C3C3E5E2B3D3F2F5BAC
:100940005D3B2C2A225C0045313A200045303A209C
:10095000005A3A2000593A2000583A20004D5331AD
:100960002C4D53322050696E730A0024F404D920B0
:100970001BC40C5C0E9804C4095F0265077101F486
:1009800005F900FB04B30048048700C1036900585F
:1009900003550003034500BE023A008402310053B0
:1009A000022A002902250004022000E4011C00C8DC
:1009B000011900AF011700980114008401130071A0
:1009C0000110006101100051010E0043010D0036BD
:1009D000010B002B010B0020010B00150109000C7D
:1009E00001090003010800FB000800F3000800EB08
:1009F000000700E4000600DE000600D8000600D272
:100A0000000600CC000500C7000500C2000500BDBF
:100A1000000400B9000400B5000400B1000400ADFA
:100A2000000400A9000400A5000300A20003009F29
:100A30000004009B0003009800030095000200934F
:100A4000000300900003008D0002008B000300886B
:100A50000002008600020084000300810002007F83
:100A60000002007D0002007B000200790002007796
:100A700000010076000200740002007200010071A3
:100A80000002006F0002006D0001006C0002006AAD
:100A900000010069000200670001006600010065B6
:100AA00000010064000200620001006100010060BA
:100AB0000001005F0002005D0001005C0001005BBE
:100AC0000001005A000100590001005800010057C0
:100AD00000010056000100550001005400010053C0
:100AE00000000053000100520001005100010050BD
:100AF0000001004F0001004E0000004E0001004DBB
:100B00000001004C0001004B0000004B0001004AB6
:100B100000010049000100480000004800010047B2
:100B200000010046000000460001004500000045AD
:100B300000010044000100430000004300010042A6
:100B4000000000420001004100000041000100409F
:100B50000001003F0000003F0001003E0000003E99
:100B60000001003D0000003D0001003C0000003C91
:100B70000000003C0001003B0000003B0001003A87
:100B80000000003A0001003900000039000100387F
:100B90000000003800000038000100370000003776
:100BA000000100360000003600000036000100356C
:100BB0000000003500000035000100340000003462
:100BC0000000003400010033000000330000003357
:100BD000000100320000003200000032000100314C
:100BE0000000003100000031000100300000003042
:100BF000000000300001002F0000002F0000002F37
:100C00000000002F0001002E0000002E0000002E2A
:100C10000001002D0000002D0000002D0000002D1F
:100C20000001002C0000002C0000002C0000002C13
:100C30000001002B0000002B0000002B0000002B07
:100C40000001002A0000002A0000002A0000002AFB
:100C500000010029000000290000002900000029EF
:100C600000000029000100280000002800000028E2
:100C700000000028000000280001002700000027D5
:100C800000000027000000270000002700010026C8
:100C900000000026000000260000002600000026BC
:100CA00000010025000000250000002500000025AF
:100CB00000000025000000250001002400000024A1
:100CC0000000002400000024000000240001002394
:100CD0000000002300000023000000230000002388
:100CE0000000002300000023000100220000002279
:100CF000000000220000002200000022000000226C
:100D0000000100210000002100000021000000215E
:100D1000000000210000002100000021000100204F
:100D20000000002000000020000000200000002043
:100D30000000002000000020000000200001001F33
:100D40000000001F0000001F0000001F0000001F27
:100D50000000001F0000001F0001001E0000001E18
:100D60000000001E0000001E00000024F4D43050DB
:100D7000C38E20C2A24017828B7011127A910D810E
:100D80006CD90AA861E108C7586607615143061E7D
:100D90004B5D05C145A7041A411104093D98037133
:100DA0003931034036DB0265339102D4305402807E
:100DB0002E1D02632CEE01752AC501B028A001107A
:100DC0002781018F2564012B244B01E0223401ACE3
:100DD000211F018D200D01801FFC00841EED009756
:100DE0001DDF00B81CD200E61BC600201BBC00643F
:100DF0001AB200B219A8000A19A0006A189900D105
:100E000017910040178B00B516840031167E00B391
:100E10001579003A157300C7146F0058146A00EE74
:100E20001366008813630025135E00C7125B006C15
:100E300012570015125400C111510070114F0021BA
:100E4000114B00D61049008D104700461044000297
:100E5000104200C00F4000800F3E00420F3C0006D1
:100E60000F3B00CB0E3800930E37005C0E35002789
:100E70000E3400F30D3200C10D3100900D300060D2
:100E80000D2E00320D2D00050D2C00D90C2B00AEBF
:100E90000C2900850C29005C0C2700350C27000E5E
:100EA0000C2600E80B2400C40B2400A00B23007DBB
:100EB0000B23005A0B2100390B2100180B2000F8DE
:100EC0000A1F00D90A1E00BB0A1E009D0A1D0080D1
:100ED0000A1D00630A1C00470A1B002C0A1B001194
:100EE0000A1A00F7091A00DD091900C4091900AB34
:100EF000091900920917007B091800630917004CB3
:100F000009160036091600200916000A091500F511
:100F1000081500E0081400CC081400B8081400A458
:100F2000081400900813007D0812006B0813005885
:100F3000081200460812003408110023081100129C
:100F400008110001081100F0071000E0071000D0A0
:100F5000071000C0071000B0070F00A10710009194
:100F6000070E0083070F0074070F0065070E005778
:100F7000070E0049070E003B070D002E070E00204C
:100F8000070D0013070D0006070D00F9060C00ED14
:100F9000060D00E0060C00D4060C00C8060C00BCD0
:100FA000060C00B0060C00A4060B0099060C008D80
:100FB000060B0082060B0077060B006C060B006127
:100FC000060A0057060B004C060A0042060A0038C3
:100FD000060A002E060A0024060A001A060A001055
:100FE00006090007060A00FD050900F4050900EBE3
:100FF000050900E2050900D9050900D0050900C767
:10100000050900BE050900B5050800AD050800A5E5
:101010000509009C050800940508008C050800845B
:101020000508007C050800740508006C05070065CC
:101030000508005D050700560508004E0507004736
:101040000507004005080038050700310507002A9C
:10105000050700230507001C050600160507000FFD
:101060000507000805060002050700FB040600F559
:10107000040700EE040600E8040600E2040700DBB3
:10108000040600D5040600CF040600C9040600C308
:10109000040600BD040600B7040600B1040500AC58
:1010A000040600A6040600A00405009B04060095A3
:1010B000040500900406008A0405008504050080EC
:1010C0000406007A04050075040500700405006B31
:1010D00004050066040500610405005C0405005772
:1010E000040500520405004D0405004804050043B2
:1010F0000405003E0404003A0405003504050030F0
:101100000404002C04050027040400230405001E29
:101110000404001A04040016040500110404000D60
:10112000040400090405000404040000040400FC95
:10113000030400F8030400F4030400F0030400ECCB
:10114000030400E8030400E4030400E0030400DCFB
:10115000030400D8030400D4030400D0030400CC2B
:10116000030400C8030300C50303006563686F3A06
:1011700000205A3A0020593A0020583A00656E641F
:1011800073746F7073206869743A20004572726FCF
:10119000723A0054656D706572617475726520688D
:1011A000656174656420626564207377697463683F
:1011B0006564206F66662E204D415854454D502081
:1011C000747269676765726564202121003A204561
:1011D0007874727564657220737769746368656486
:1011E000206F66662E204D494E54454D5020747236
:1011F000696767657265642021003A2045787472DA
:1012000075646572207377697463686564206F66BE
:10121000662E204D415854454D50207472696767C1
:1012200065726564202100202D20496E76616C690D
:1012300064206578747275646572206E756D626580
:101240007220210010005E01C001FA00F001F500DB
:101250003002F0007002EB00A002E600C002E100E4
:101260001003DC005003D700E003D2007004CD006F
:10127000E004C800E005BE006006B9004007AA000F
:10128000F008A000700B9600F00D8C00E0108200BA
:10129000E0137800F0176E00D0196900701B64002D
:1012A000401E5F0010205A00F025500080294600A3
:1012B000D0303C00A03237001035320020392D00EC
:1012C00020392800703A2300A03B1E00A03C1900E2
:1012D000203D1600003F0300F03F0000504944202D
:1012E0004175746F74756E652066696E69736865A3
:1012F00064202120506C61636520746865204B7008
:101300002C204B6920616E64204B6420636F6E73E8
:1013100074616E747320696E2074686520636F6EEB
:1013200066696775726174696F6E2E680050494412
:10133000204175746F74756E65206661696C6564B3
:10134000212074696D656F75740020403A006F6BE1
:1013500020543A006F6B20423A00504944204175B6
:10136000746F74756E65206661696C6564212054C4
:10137000656D706572617475726520746F2068693F
:10138000676800204B643A2000204B693A20002017
:101390004B703A200020436C6173696320504944CC
:1013A00020002054753A2000204B753A2000206D13
:1013B00061783A2000206D696E3A200020643A205E
:1013C0000020626961733A200070012C01900127AE
:1013D00001B0012201C0011D01F00118011002132A
:1013E0000130020E016002090190020401C002FFF7
:1013F000000003FA004003F5008003F000D003EB87
:10140000002004E6007004E100E004DC004005D7A1
:1014100000C005D2004006CD00D006C8008007C33A
:10142000003008BE00F008B900C009B400B00AAF2F
:1014300000B00BAA00D00CA500000EA000500F9B1E
:1014400000C01096005012910000148C00C0158747
:1014500000B0178200B0197D00D01B7800001E7309
:101460000040206E0090226900F024640040275F55
:101470000090295A00E02B5500102E500020304BD0
:101480000010324600E033410090353C0010373701
:101490000070383200A0392D00B03A2800A03B235C
:1014A00000603C1E00103D1900903D1400103E0FDE
:1014B00000703E0A00C03E0500003F000001290206
:1014C00029042908291029202940298029012C02D2
:1014D0002C012602260426082610262026402680D7
:1014E00026402C802C0123022304230823102320D0
:1014F00023402380230120022004200820102020E4
:101500002040208020102C202C012F022F042F0897
:101510002F102F202F402F802F7EFE7EFD7EFB7E02
:10152000F77EEF7EDF7EBF7E7F000100005D15123B
:10153000000200006F154300030000B21504010310
:101540000904B6151802030904D01516030309048B
:10155000E8150C0001C1020180360181361201003C
:101560000202000020C016830400010102030109E9
:10157000024300020100C03209040000010202011E
:1015800000052400100105240100010424020605C1
:101590002406000107058203080040090401000237
:1015A0000A0000000705030240000007058402400E
:1015B00000000403090418035400650065006E0070
:1015C000730079006400750069006E006F00000010
:1015D00016035500530042002000530065007200BE
:1015E000690061006C0000000C0331003200330020
:1015F000340035000000494E46494E4954594E4189
:101600004ECDCCCC3D0AD7233C17B7D13877CC2B65
:10161000329595E6241FB14F0A000020410000C812
:101620004200401C4620BCBE4CCA1B0E5AAEC59D93
:101630007400C6237B7A5C84BF2311241FBECFEFC6
:10164000D0E2DEBFCDBF13E0A0E0B1E0E6E7F4E119
:1016500001E00BBF02C007900D92AE31B107D9F780
:101660001BBE1EE0AEE1B3E001C01D92A43FB10776
:10167000E1F716E1C8E3D6E104C02297FE010E941B
:10168000E089C233D107C9F70E941A810C942E8ACF
:101690000C940000A0E0B0E0E0E5FBE00C94FD89D4
:1016A000EC015B016115710519F0FB0191838083E9
:1016B000F9908F2D90E00E94E489892BC9F7FDE213
:1016C000FF1621F4F990EE24E39405C02BE2F21604
:1016D00009F4F990EE248E0101501040C80166EF24
:1016E00075E143E050E00E94E00D892B01F58E0189
:1016F0000E5F1F4FC80169EF75E145E050E00E94A1
:10170000E00D892B19F48E01095F1F4FA114B1045C
:1017100019F0F50111830083E0FC04C070E090E053
:1017200080E814C070E090E080E86FEF08C1C80165
:101730006EEF75E143E050E00E94E00D892B69F403
:10174000A114B10429F470E090E080EC6FE7F7C0D9
:101750002296F501D183C083F6CF8824992440E0F6
:1017600050E060E070E0EF2DE053EA30A0F5F2E0E9
:10177000EF2A8E2D90E09C0128703070E2FE06C0AA
:10178000232B79F50894811C911C2BC0232B19F075
:10179000089481089108DB01CA0112E0880F991FA3
:1017A000AA1FBB1F1A95D1F7480F591F6A1F7B1F2D
:1017B000440F551F661F771F4E0F511D611D711D70
:1017C000483929E9520729E9620729E1720748F0F7
:1017D00084E0E82A06C0EE3F31F4E3FC39C098E02B
:1017E000E92AF990C0CFE53311F0E53189F5299167
:1017F0002D3219F4E0E1EE2A05C02B3219F081E018
:1018000090E003C0299182E090E0E22FE053EA30BB
:1018100018F0C81BD90B1CC020E030E0FCE02038D9
:101820003F075CF4C901880F991F880F991F280F83
:10183000391F220F331F2E0F311DE991E053EA307B
:1018400068F3E4FE03C0309521953F4F820E931E4E
:10185000CE2CDD24E1FE07C0A114B10421F02197B4
:10186000F501D183C083CB01BA010E9449867B0177
:101870008C01F3E0CF22DD2423E0C216D10421F451
:1018800017FB109517F9109557016801C801B701AA
:1018900020E030E040E050E00E94A985882309F470
:1018A0004AC097FE0DC025E1E22E26E1F22E90946B
:1018B000819491089394C0E2D0E000E010E012C05F
:1018C0009DE2E92E96E1F92EF6CFF70125913591AB
:1018D00045915491C601B5010E9489885B016C0154
:1018E0008C1A9D0A8C169D0684F7D595C7950F5FB7
:1018F0001F4F0630110529F08CEF9FEFE80EF91EFF
:10190000F1CFC501D6017C018D018C2D880F8D2D65
:10191000881F8F3F51F0C601B50120E030E040E064
:1019200050E00E94A985882331F482E290E09093F0
:10193000F30E8093F20E7E2D9F2D802F612F272F87
:10194000392F482F562FB901CA01CDB7DEB7ECE0C9
:101950000C94198A2F923F925F926F927F928F928E
:101960009F92AF92BF92CF92DF92EF92FF920F932E
:101970001F93CF93DF938C011B01EA016115710561
:1019800019F0FB0191838083209749F0CE010297E3
:10199000839728F020E030E040E050E0F6C0F80106
:1019A000A1908F018A2D90E00E94E489892BB9F7DC
:1019B000FDE2AF1631F4F801A1908F015524539444
:1019C00007C0FBE2AF1619F4F801A1908F0155246E
:1019D000209719F0C031D105C1F4F0E3AF1679F4C6
:1019E000F8018081883711F0883549F4F801A18029
:1019F0000E5F1F4FF2E05F2AC0E1D0E006C02097E3
:101A000021F480E3A816E9F427C0C830D10531F1EC
:101A1000C930D10524F4C230D10531F50CC0CA302B
:101A2000D10589F0C031D105F9F4C12CD12CE12CBC
:101A3000B8E0FB2E28C0C12CD12CE12CA0E4FA2E5A
:101A400022C0CAE0D0E0FCECCF2EFCECDF2EFCEC98
:101A5000EF2EFCE0FF2E17C0C8E0D0E0C12CD12C47
:101A6000E12CE0E1FE2E0FC09E01442737FD40959A
:101A7000542F60E070E080E090E80E948D89C901F9
:101A8000DA016C017D0120E030E040E050E060E0F0
:101A90003E01882477FC8094982C70EDB72EBA0C08
:101AA000E9E0EB1570F48A2D81548A3118F499EC31
:101AB000B92E06C08A2D81568A3150F589EAB82E92
:101AC000BA0C8B2D90E08C179D0714F56F3FE1F059
:101AD000C216D306E406F506B0F0CA01B901A401A6
:101AE00093010E945B899B01AC012B0D311D411DAF
:101AF000511D2130F0E03F07F0E04F07F0E85F07AD
:101B000010F461E001C06FEFF801A1908F01C5CF23
:101B10002114310481F0662331F001501040F101AD
:101B20001183008308C051FE1AC002501040F10119
:101B30001183008314C067FF12C050FC05C02FEF53
:101B40003FEF4FEF5FE704C020E030E040E050E8B7
:101B500082E290E09093F30E8093F20E16C050FE56
:101B600008C050954095309521953F4F4F4F5F4F9E
:101B70000CC057FF0AC082E290E09093F30E80936E
:101B8000F20E2FEF3FEF4FEF5FE7B901CA01DF9190
:101B9000CF911F910F91FF90EF90DF90CF90BF906A
:101BA000AF909F908F907F906F905F903F902F901D
:101BB0000895FB01DC0105900D920020E1F70895E6
:101BC000FB01DC014150504088F08D9181341CF0C4
:101BD0008B350CF4805E659161341CF06B350CF430
:101BE000605E861B611171F3990B0895881BFCCF11
:101BF000FB0155915523A9F0BF01DC014D9145171B
:101C00004111E1F759F4CD010590002049F04D91C3
:101C100040154111C9F3FB014111EFCF81E090E084
:101C200001970895FB01DC0104C08D91019080199A
:101C300021F441505040C8F7881B990B0895FB01CF
:101C4000DC0102C001900D9241505040D8F7089538
:101C5000FB01DC010D900020E9F7119701900D9236
:101C60000020E1F70895FC018191861721F0882377
:101C7000D9F7992708953197CF010895FB01DC0129
:101C800001900D920020E1F70895FB01DC01415025
:101C9000504030F08D910190801919F40020B9F76F
:101CA000881B990B0895FB01DC014150504048F01E
:101CB00001900D920020C9F701C01D924150504083
:101CC000E0F70895AEE0B0E0E8E6FEE00C94058AA7
:101CD0000D891E898EE08C831A8309838FEF9FE71D
:101CE0009E838D839E01275E3F4FCE0101966F89B3
:101CF000788DA9010E94860E2F813885020F131F4F
:101D0000F80110822E96E4E00C94218AABE0B0E05A
:101D1000ECE8FEE00C94F7893C012B015A01FC0130
:101D200017821682838181FD03C06FEF7FEFC6C1EA
:101D30009AE0892E1E010894211C311CF301238195
:101D4000F20123FD859123FF81912F01882309F45E
:101D5000B2C1853239F423FD859123FF81912F0192
:101D6000853229F490E0B3010E947910E7CF982FD3
:101D7000FF24EE249924FFE1FF15D0F09B3269F097
:101D80009C3228F4903259F0933291F40EC09D3277
:101D900049F0903369F441E024C052E0F52A84E030
:101DA000F82A28C098E0F92A25C0E0E1FE2A22C0DE
:101DB000F7FC29C0892F80538A3070F4F6FE05C0E5
:101DC000989C902C1124980E15C0E89CE02C1124AE
:101DD000E80EF0E2FF2A0EC09E3229F4F6FC6BC139
:101DE00040E4F42A07C09C3619F450E8F52A02C0F2
:101DF000983649F4F20123FD959123FF91912F012B
:101E0000992309F0B8CF892F8554833018F0805278
:101E1000833038F444E050E0A40EB51E5FE35983EC
:101E20000FC0933631F0933779F0933509F056C0EF
:101E300020C0F5018081898342E050E0A40EB51EE8
:101E4000610101E010E012C0F501C080D180F6FC14
:101E500003C06FEF7FEF02C0692D70E042E050E0F9
:101E6000A40EB51EC6010E946E108C015FE7F5221C
:101E700014C0F501C080D180F6FC03C06FEF7FEF86
:101E800002C0692D70E042E050E0A40EB51EC6010C
:101E90000E9463108C0150E8F52AF3FE07C01AC0B7
:101EA00080E290E0B3010E947910EA948E2D90E0D8
:101EB00008171907A8F30EC0F601F7FC8591F7FE85
:101EC00081916F0190E0B3010E947910E110EA94D2
:101ED000015010400115110579F7EAC0943611F050
:101EE000993669F5F7FE08C0F501208131814281FC
:101EF000538184E090E00AC0F501808191819C01CA
:101F0000442737FD4095542F82E090E0A80EB91E7B
:101F10009FE6F92257FF09C05095409530952195CD
:101F20003F4F4F4F5F4FE0E8FE2ACA01B901A101C0
:101F30002AE030E00E94A510D82ED21840C0953774
:101F400029F41F2D1F7E2AE030E01DC01F2D197FB0
:101F50009F3661F0903720F4983509F0ACC00FC07F
:101F6000903739F0983709F0A6C004C028E030E077
:101F70000AC0106114FD146020E130E004C014FDBB
:101F8000166020E132E017FF08C0F5016081718121
:101F90008281938144E050E008C0F5018081918105
:101FA000BC0180E090E042E050E0A40EB51EA1012B
:101FB0000E94A510D82ED2188FE7F82EF122F6FE37
:101FC0000BC05EEFF522D91438F4F4FE07C0F2FC22
:101FD00005C08FEEF82202C01D2D01C0192DF4FEA0
:101FE0000DC0FE01ED0DF11D8081803319F499EED5
:101FF000F92208C01F5FF2FE05C003C08F2D86784E
:1020000009F01F5F0F2DF3FC14C0F0FE0FC01E156A
:1020100010F09D2C0BC09D2C9E0C911A1E2D06C0FD
:1020200080E290E0B3010E9479101F5F1E15C0F39B
:1020300004C01E1510F4E11A01C0EE2404FF0FC005
:1020400080E390E0B3010E94791002FF1DC001FD02
:1020500003C088E790E00EC088E590E00BC0802FB9
:10206000867891F001FF02C08BE201C080E2F7FCAC
:102070008DE290E0B3010E94791006C080E390E009
:10208000B3010E9479109A94D914C0F3DA94F10143
:10209000ED0DF11D808190E0B3010E947910DD20EB
:1020A000A9F706C080E290E0B3010E947910EA949B
:1020B000EE20C1F743CEF30166817781CB012B96E9
:1020C000E2E10C94138AFC0105906150704001100C
:1020D000D8F7809590958E0F9F1F0895FC01615051
:1020E000704001900110D8F7809590958E0F9F1F3A
:1020F00008950F931F93CF93DF938C01EB018B8196
:1021000081FF1BC082FF0DC02E813F818C819D818C
:102110002817390764F4E881F9810193F983E8838A
:1021200006C0E885F985802F0995892B31F48E81C9
:102130009F8101969F838E8302C00FEF1FEFC8011E
:10214000DF91CF911F910F910895FA01AA272830AE
:1021500051F1203181F1E8946F936E7F6E5F7F4F74
:102160008F4F9F4FAF4FB1E03ED0B4E03CD0670FF0
:10217000781F891F9A1FA11D680F791F8A1F911D43
:10218000A11D6A0F711D811D911DA11D20D009F493
:1021900068943F912AE0269F11243019305D3193D5
:1021A000DEF6CF010895462F4770405D4193B3E0BE
:1021B0000FD0C9F7F6CF462F4F70405D4A3318F065
:1021C000495D31FD4052419302D0A9F7EACFB4E016
:1021D000A6959795879577956795BA95C9F70097CE
:1021E0006105710508959B01AC010A2E069457956F
:1021F000479537952795BA95C9F7620F731F841FC6
:10220000951FA01D0895DF93CF930F92CDB7DEB732
:10221000FC016983A081B18112962D913C911397A5
:10222000BE016F5F7F4F41E050E0F90109950F90CB
:10223000CF91DF910895FC0112AA15AA11AA27EFE8
:1022400032E030AB27A7EE5AFF4F10823396108250
:102250003497108232932293B19610823396108273
:102260003497108232932293B19610823396108263
:1022700034971082329322937F9689E1808333963C
:102280001082789610823A96108233961082349794
:102290001082329322937E961082118212821382D0
:1022A00038961082118212821382E25FF04012820D
:1022B000138210821182EA50FF4F81E08083E65F33
:1022C000F04016A615A60FB6F8948091DF0E9091F7
:1022D000E00EA091E10EB091E20E0FBEE251FF4F71
:1022E00088579C4EAF4FBF4F80839183A283B383A7
:1022F0000895FC01128213820895FC0183818823D2
:1023000011F081E082830895FC01828181111282A3
:102310000895FC0187EF92E0918380838681882372
:1023200021F0CF0103960E94405A08950F931F9306
:10233000CF93DF938C010E94E0670E94BD67C801C4
:1023400081539F4F0E94405AF801128283EE90E021
:102350000E94C13E80918F06882301F110928F0662
:1023600080914904C82FD0E0CC0FDD1FC053D24F5D
:1023700068817981882777FD8095982F0E944B8608
:1023800020915C0230915D0240915E0250915F02AB
:102390000E94B787181614F419821882DF91CF9122
:1023A0001F910F910895CF93DF93DB010D900020D3
:1023B000E9F71197A61BB70BEC01E881F9810280C0
:1023C000F381E02DAD010995DF91CF910895EF9252
:1023D000FF920F931F938C013FECE32EF12CE80E3C
:1023E000F91EC7010E94F259C7010E94405AF80124
:1023F000108211821F910F91FF90EF900895CF925C
:10240000DF92EF92FF920F931F93CF93DF937C01A4
:102410006B01DB010D900020E9F78D0101501040A8
:10242000061B170BEFECF0E0EE0EFF1ED7011C921F
:10243000E1E3FFEFEE0EFF1ECB016EE470E00E94C1
:10244000330EEC01009731F4F8013197EC0DFD1DCE
:1024500086010EC060E270E00E94330E8C010F5FB7
:102460001F4FCE016AE270E00E94330EFC013197EB
:102470008DE081838AE082831382C70184539F4F5A
:10248000B8010E9433628FEC90E0E80EF91ED7018C
:102490008C91882309F1EFE1F1E06491EF0107C02D
:1024A00088EE9EE00E9403112196FE01649166234E
:1024B000B9F7E6E2F1E06491EF0107C088EE9EE033
:1024C0000E9403112196FE0164916623B9F788EEFC
:1024D0009EE06AE00E940311DF91CF911F910F915E
:1024E000FF90EF90DF90CF900895EF92FF920F93BF
:1024F000CF93DF937C01FC018381882309F43FC0E3
:10250000EEE4F1E06491EF0107C088EE9EE00E94E6
:1025100003112196FE0164916623B9F782EF90E0E2
:10252000E80EF91EF70140815181628173818EE0CE
:102530009FEFE80EF91E88EE9EE02AE000E00E9480
:102540006781ECE4F1E06491EF0107C088EE9EE062
:102550000E9403112196FE0164916623B9F78AEE69
:1025600090E0E80EF91EF70140815181628173818C
:1025700088EE9EE02AE000E00E9467810EC0ECE356
:10258000F1E06491EF0107C088EE9EE00E94031124
:102590002196FE0164916623B9F788EE9EE06AE019
:1025A0000E940311DF91CF910F91FF90EF9008955A
:1025B0002F923F924F925F926F927F928F929F9253
:1025C000AF92BF92CF92DF92EF92FF920F931F9341
:1025D000DF93CF93CDB7DEB7AC970FB6F894DEBFDD
:1025E0000FBECDBF5C014B014CA7FC01838188234A
:1025F00009F4B7C15FEC452E512C4A0C5B1CC2019B
:102600000E94405AF5011282198A1C8A188A87EFA3
:1026100092E09F878E874DE4C42ED12CCA0CDB1C20
:102620002FE230E0A20EB31EF601B182A08221EDAE
:102630003FEFA20EB31EF40180818F3209F07DC0FE
:10264000C4016FE270E00E94330E7C010894E11C2B
:10265000F11C3E010894611C711C160169C0C70180
:102660006FE270E00E94330E6C01009709F473C0B2
:10267000E816F90608F06FC08C010E191F09C30196
:10268000B701A8010E94530E060D171DF801108214
:1026900088EE9EE0B3010E94D31188EE9EE06AE0CE
:1026A0000E940311F101608171816115710519F4B6
:1026B00060E070E002C06D5F7F4FCE014196A301E4
:1026C00021E00E943161882341F5E2E0F2E064916B
:1026D0007F0109C088EE9EE00E9403110894E11C6E
:1026E000F11CF70164916623A9F788EE9EE0BE0114
:1026F0006F5F7F4F0E94D311E0E0F2E064917F01B1
:1027000009C088EE9EE00E9403110894E11CF11CB0
:10271000F70164916623A9F71BC12EE030E02C0F6E
:102720003D1FF1013183208376010894E11CF11CE7
:10273000E114F10409F093CF0BC08FE490E0A80EF0
:10274000B91EF601B182A08221EB3FEFA20EB31EAB
:10275000082DD92C02C00E2DDF2CF501E35BFF4FB5
:102760003CA5332309F4A3C0608171816115710513
:1027700019F460E070E002C06D5F7F4FC201402F2E
:102780005D2D21E00E943161882309F469C0A50113
:1027900046515F4F80EE90E0A80EB91EF501808192
:1027A0009181A281B38120E23FEFA20EB31EFA0114
:1027B00080839183A283B383E2EFF1E064917F0190
:1027C00009C088EE9EE00E9403110894E11CF11CF0
:1027D000F70164916623A9F788EE9EE0602F7D2DB6
:1027E0000E94D311EAEEF1E064917F0109C088EE06
:1027F0009EE00E9403110894E11CF11CF701649112
:102800006623A9F72AEE30E0A20EB31EF50140813F
:1028100051816281738188EE9EE02AE000E00E948F
:10282000678188EE9EE06AE00E94031128E030E0B4
:10283000A20EB31EF5011082118212821382ECEDFA
:10284000F1E064917F0109C088EE9EE00E940311CF
:102850000894E11CF11CF70164916623A9F778C084
:10286000E8ECF1E064917F0109C088EE9EE00E94EF
:1028700003110894E11CF11CF70164916623A9F788
:1028800088EE9EE0602F7D2D0E94D311E6ECF1E0F2
:1028900064917F0109C088EE9EE00E9403110894B4
:1028A000E11CF11CF70164916623A9F751C0608116
:1028B00071816115710519F460E070E002C06D5F0F
:1028C0007F4FC201402F5D2D26E50E943161882394
:1028D00039F5E2EBF1E064917F0109C088EE9EE0FA
:1028E0000E9403110894E11CF11CF7016491662316
:1028F000A9F788EE9EE0602F7D2D0E94D311E0EBBA
:10290000F1E064917F0109C088EE9EE00E9403110E
:102910000894E11CF11CF70164916623A9F718C023
:1029200081E0F5018083EEE9F1E064917F0109C067
:1029300088EE9EE00E9403110894E11CF11CF7014F
:1029400064916623A9F788EE9EE0B4010E94D3113A
:1029500088EE9EE06AE00E940311CE010E960E946E
:102960008911AC960FB6F894DEBF0FBECDBFCF91E4
:10297000DF911F910F91FF90EF90DF90CF90BF906C
:10298000AF909F908F907F906F905F904F903F900F
:102990002F900895FC0181E08183CF0140E00E94E7
:1029A000D81208952F923F924F925F926F927F922A
:1029B0008F929F92AF92BF92CF92DF92EF92FF924F
:1029C0000F931F93DF93CF93CDB7DEB7AB970FB6BF
:1029D000F894DEBF0FBECDBF5C014B01FC018381CB
:1029E000882309F41AC1C50181539F4F0E94405AA0
:1029F000F5011282198A1C8A188A87EF92E09F8754
:102A00008E877DE4C72ED12CCA0CDB1C2FE230E070
:102A1000A20EB31EF601B182A08221ED3FEFA20EFD
:102A2000B31EF40180818F3209F081C0C4016FE2CE
:102A300070E00E94330E7C010894E11CF11C3E0101
:102A40000894611C711C260161E1262E312C2C0E8C
:102A50003D1E68C0C7016FE270E00E94330E6C013A
:102A6000009709F472C0E816F90608F06EC08C01F0
:102A70000E191F09C301B701A8010E94530E060DCC
:102A8000171DF801108288EE9EE0B3010E94D31159
:102A900088EE9EE06AE00E940311F201608171817C
:102AA0006115710519F460E070E002C06D5F7F4F41
:102AB000C101A30121E00E943161882341F5EAE8C8
:102AC000F1E064917F0109C088EE9EE00E9403114D
:102AD0000894E11CF11CF70164916623A9F788EEC4
:102AE0009EE0BE016F5F7F4F0E94D311E8E8F1E0E6
:102AF00064917F0109C088EE9EE00E940311089452
:102B0000E11CF11CF70164916623A9F77DC02EE05A
:102B100030E02C0F3D1FF2013183208376010894B1
:102B2000E11CF11CE114F10409F094CF0BC08FE417
:102B300090E0A80EB91EF601B182A08221EB3FEF12
:102B4000A20EB31ED82C092D02C0DE2C0F2D8DE451
:102B500090E0A80EB91EF5018081918123EB3FEF33
:102B6000A20EB31E009719F480E090E001C0039616
:102B70006D2D702F0E940362882301F1EAE7F1E0D6
:102B800064917F0109C088EE9EE00E9403110894C1
:102B9000E11CF11CF70164916623A9F788EE9EE021
:102BA0006D2D702F0E94D31122EF30E0A20EB31EC4
:102BB000F50110821182128213822BC0E2E6F1E04D
:102BC00064917F0109C088EE9EE00E940311089481
:102BD000E11CF11CF70164916623A9F788EE9EE0E1
:102BE0006D2D702F0E94D311E0E6F1E064917F011A
:102BF00009C088EE9EE00E9403110894E11CF11CBC
:102C0000F70164916623A9F788EE9EE06AE00E94CE
:102C10000311CE010E960E948911AB960FB6F8945F
:102C2000DEBF0FBECDBFCF91DF911F910F91FF90FF
:102C3000EF90DF90CF90BF90AF909F908F907F905C
:102C40006F905F904F903F902F900895EF92FF927A
:102C50000F931F93CF93DF938C01FC01138285A9FF
:102C6000882321F0C801C2960E94405AE9EAEE2E5C
:102C7000F12CE00EF11EC70160E04AE10E9403580A
:102C80008823E9F4EFEEF0E06491EF0107C088EEED
:102C90009EE00E9403112196FE0164916623B9F71C
:102CA000E4E4F2E06491EF0107C088EE9EE00E9448
:102CB00003112196FE0164916623B9F771C0E80102
:102CC000C255DF4FCE01B70141E00E94C8628823A0
:102CD00021F5CE01B70140E00E94C8628823E9F4E3
:102CE000EFE1F1E06491EF0107C088EE9EE00E9401
:102CF00003112196FE0164916623B9F7E1E3F2E046
:102D00006491EF0107C088EE9EE00E9403112196B6
:102D1000FE0164916623B9F743C0C801C296BE01A3
:102D20000E94245D8823E9F4EFE1F1E06491EF0172
:102D300007C088EE9EE00E9403112196FE01649177
:102D40006623B9F7E1E2F2E06491EF0107C088EE93
:102D50009EE00E9403112196FE0164916623B9F75B
:102D60001FC081E0F8018383EFEEF0E06491EF0192
:102D700007C088EE9EE00E9403112196FE01649137
:102D80006623B9F7E6E1F2E06491EF0107C088EE4F
:102D90009EE00E9403112196FE0164916623B9F71B
:102DA00088EE9EE06AE00E940311D801AE5ABF4F40
:102DB000F801F2968BE101900D928150E1F7F80154
:102DC00081A90F5A1F4FF801808301551040C80197
:102DD0008F96035B1F4FF80191838083DF91CF9122
:102DE0001F910F91FF90EF9008952F923F924F9275
:102DF0005F926F927F929F92AF92BF92CF92DF923B
:102E0000EF92FF920F931F93DF93CF93CDB7DEB76F
:102E1000CC55D0400FB6F894DEBF0FBECDBF8C01AD
:102E2000662319F50A501F4FD8018C91065F104098
:102E3000882309F4E7C00FB6F8942091DF0E309193
:102E4000E00E4091E10E5091E20E0FBE02511F4F75
:102E5000F80180819181A281B3810E5E10408217BA
:102E60009307A407B50708F4CDC00A501F4FD80137
:102E70001C92065F1040F8018381882349F4C80141
:102E80000E942616D80113968C91882309F4BAC0A3
:102E900000D000D000D0EDB7FEB731966E01089497
:102EA000C11CD11CADB7BEB71296DC92CE92119761
:102EB00086E191E093838283D8019D968D919C91C8
:102EC0009E97958384830E94620E7601EDB7FEB7CC
:102ED00036960FB6F894FEBF0FBEEDBF56010AC07E
:102EE000D7018C91992787FD90950E94EC89F70175
:102EF00081937F01F50101900020E9F73197EA19EC
:102F0000FB098E2D8C198E175CF382E3A82EB12C51
:102F1000A00EB11EC50140E050E060E070E00E94EC
:102F200028599924BDE3CB2ED12CCC0EDD1E2E01C9
:102F30000894411C511CAFE16A2E712C6C0E7D1E51
:102F4000FFE02F2EF1E03F2E43C0D7018C9190E09F
:102F50000E94EC89F70181937F01D6010D9000203A
:102F6000E9F71197AC19BD098E2D8C198A176CF3EE
:102F700027968FAD27978E3759F1C601B20145E0EC
:102F800050E00E94450E009719F500D000D000D007
:102F9000EDB7FEB73196ADB7BEB712967C926E9282
:102FA000119733822282558244820E94620EEDB7CD
:102FB000FEB736960FB6F894FEBF0FBEEDBFC30145
:102FC0000E94383F8BE091E00E94C13E9924939487
:102FD000C501B60140E050E00E94405C181614F4B0
:102FE0007601BBCF992041F48FEF9FEFD8019E96D9
:102FF0009C938E939D9706C0F80185A596A5019692
:1030000096A785A7C45ADF4F0FB6F894DEBF0FBE50
:10301000CDBFCF91DF911F910F91FF90EF90DF9087
:10302000CF90BF90AF909F907F906F905F904F90A8
:103030003F902F9008952F923F924F925F926F9200
:103040007F928F929F92AF92BF92CF92DF92EF9238
:10305000FF920F931F93DF93CF93CDB7DEB7CD5879
:10306000D0400FB6F894DEBF0FBECDBF7C012B0160
:103070005A0183E090E0A80EB91EF7017196C95776
:10308000DF4FF983E883C758D040C7010496CC5777
:10309000DF4F99838883C458D040CA57DF4F1882C6
:1030A000C658D04044E6C42ED12CCC0EDD1EF6010D
:1030B0003B96C757DF4FF983E883C958D04037EFB5
:1030C000632E712C6E0C7F1C29EF822E912C8E0C9E
:1030D0009F1C96E4292E312C2C0E3D1EC101039617
:1030E000C557DF4F99838883CB58D040EFEEF0E08F
:1030F0009491C357DF4F9883CD58D04030C1F6012B
:103100008385482F50E0BA01687170706031710595
:1031100009F033C1F301208131812130310509F4F7
:103120002CC12230310509F428C1F601DE011196C7
:103130009081903239F08E2F8C19883011F48EE204
:103140008D939D933196C757DF4F88819981C958D8
:10315000D040E817F90761F71C921E86F2018081C2
:10316000882331F4CE010E9660E071E00E94280EB3
:10317000CE010E96B2010E94280ECE010E96BE011F
:103180006F5F7F4F0E94280ECE010E9660E071E0C7
:103190000E94280E1BA61EA61AA687EF92E099A7EA
:1031A00088A7CE018B96B501AE014F5F5F4F21E03E
:1031B0000E943161882371F5F30180819181892B0F
:1031C00049F5C357DF4F6881CD58D0400FEE10E06E
:1031D00008C088EE9EE00E9403110F5F1F4FF801A8
:1031E00064916623B1F788EE9EE062E071E00E9490
:1031F000D31188EE9EE06AE00E94031188EE9EE003
:10320000BE016F5F7F4F0E94D31188EE9EE06AE09F
:103210000E940311C557DF4FA881B981CB58D04018
:10322000FE01BB968BE101900D928150E1F78AA5DA
:10323000F101828387EF92E091838083C701BE0111
:10324000625F7F4FA1010E941B18C1010E9489117A
:10325000CE0188960E94891182C0953E09F47FC0F4
:103260009E3209F47CC09F3509F479C0F701918939
:10327000992331F09E3209F472C09F3509F46FC072
:1032800043FD6DC080E06031710509F481E0F70114
:1032900084A7882349F4F6018085873409F05FC04C
:1032A00081858E3709F45BC0CC57DF4FA881B98187
:1032B000C458D040F6018081803241F08E2F8C19A5
:1032C000883011F48EE28D9380818D933196C757AB
:1032D000DF4F88819981C958D040E817F90759F71D
:1032E0001C92F301808191810097A9F488EE9EE001
:1032F000B2010E94D31188EE9EE0CC57DF4F688167
:103300007981C458D0400E94D31188EE9EE06AE0D3
:103310000E94031124C08130910539F4F4018081A9
:1033200091810196918380831AC00297C1F4CA5794
:10333000DF4FF881C658D0402F2F30E0F401808154
:10334000918128173907F1F0CA57DF4FF881C65825
:10335000D040FF5FCA57DF4FF883C658D040C50141
:10336000B601C957DF4F48815981C758D0400E94E4
:10337000405C18160CF4C3CE05C0F6019081992369
:1033800009F06BCFC357DF4F0FB6F894DEBF0FBE07
:10339000CDBFCF91DF911F910F91FF90EF90DF9004
:1033A000CF90BF90AF909F908F907F906F905F90E5
:1033B0004F903F902F900895EF92FF920F931F939D
:1033C000DF93CF93CDB7DEB76E970FB6F894DEBF1D
:1033D0000FBECDBF7C0187EF90E0E80EF91EF7012C
:1033E0001182108289E09FEFE80EF91E87010E5CC2
:1033F0001F4FC80140E050E060E070E00E94285993
:10340000DE011496F8018BE101900D928150E1F7F5
:10341000F70181A98B8387EF92E09A838983C701A3
:1034200065E171E08E010F5F1F4FA8010E941B181C
:10343000C8010E9489116E960FB6F894DEBF0FBEC8
:10344000CDBFCF91DF911F910F91FF90EF90089525
:103450000F931F93DF93CF93CDB7DEB764970FB66B
:10346000F894DEBF0FBECDBF809116019091170179
:10347000A0911801B09119018D879E87AF87B88BF5
:10348000FE013D9644E650E08081F999FECF1FBAD7
:1034900052BD41BD80BD0FB6F894FA9AF99A0FBE9D
:1034A0004F5F5F4F4836510511F03196EDCFE3E3A2
:1034B000F6E08081F999FECF1FBA52BD41BD80BDB3
:1034C0000FB6F894FA9AF99A0FBE4F5F5F4F4837DC
:1034D000510511F03196EDCFE3E2F6E08081F999E4
:1034E000FECF1FBA52BD41BD80BD0FB6F894FA9A07
:1034F000F99A0FBE4F5F5F4F4838510511F0319672
:10350000EDCFE3E4F6E08081F999FECF1FBA52BD1A
:1035100041BD80BD0FB6F894FA9AF99A0FBE4F5F7D
:103520005F4F4839510511F03196EDCFE7E5F6E0F0
:103530008081F999FECF1FBA52BD41BD80BD0FB643
:10354000F894FA9AF99A0FBE4F5F5F4F4C395105C4
:1035500011F03196EDCFEBE5F6E08081F999FECFE1
:103560001FBA52BD41BD80BD0FB6F894FA9AF99AC0
:103570000FBE4F5F5F4F403A510511F03196EDCFCE
:10358000E3E5F6E08081F999FECF1FBA52BD41BD57
:1035900080BD0FB6F894FA9AF99A0FBE4F5F5F4F4D
:1035A000443A510511F03196EDCFEBE6F6E080811B
:1035B000F999FECF1FBA52BD41BD80BD0FB6F89438
:1035C000FA9AF99A0FBE4F5F5F4F483A510511F0D2
:1035D0003196EDCFEFE1F6E08081F999FECF1FBA89
:1035E00052BD41BD80BD0FB6F894FA9AF99A0FBE4C
:1035F0004F5F5F4F4C3A510511F03196EDCFEFE53B
:10360000F6E08081F999FECF1FBA52BD41BD80BD61
:103610000FB6F894FA9AF99A0FBE4F5F5F4F403B8E
:10362000510511F03196EDCFE3E6F6E08081F9998E
:10363000FECF1FBA52BD41BD80BD0FB6F894FA9AB5
:10364000F99A0FBE4F5F5F4F443B510511F0319621
:10365000EDCFE7E6F6E08081F999FECF1FBA52BDC3
:1036600041BD80BD0FB6F894FA9AF99A0FBE4F5F2C
:103670005F4F483B510511F03196EDCFE1E3F4E0A7
:103680008081F999FECF1FBA52BD41BD80BD0FB6F2
:10369000F894FA9AF99A0FBE4F5F5F4F443C510578
:1036A00011F03196EDCF84EB90E09A83898386E424
:1036B00090E09C838B832FEF30E03E832D8380EF5F
:1036C00090E098878F8384E690E09A8789873C878B
:1036D0002B87FE0131968081F999FECF1FBA52BD2A
:1036E00041BD80BD0FB6F894FA9AF99A0FBE4F5FAC
:1036F0005F4F463C510571F7FE0133968081F99981
:10370000FECF1FBA52BD41BD80BD0FB6F894FA9AE4
:10371000F99A0FBE4F5F5F4F483C510511F031964B
:10372000EDCFFE0135968081F999FECF1FBA52BDCB
:1037300041BD80BD0FB6F894FA9AF99A0FBE4F5F5B
:103740005F4F4A3C510511F03196EDCFFE0137969F
:103750008081F999FECF1FBA52BD41BD80BD0FB621
:10376000F894FA9AF99A0FBE4F5F5F4F4C3C51059F
:1037700011F03196EDCFFE0139968081F999FECF97
:103780001FBA52BD41BD80BD0FB6F894FA9AF99A9E
:103790000FBE4F5F5F4F4E3C510511F03196EDCF9C
:1037A000FE013B968081F999FECF1FBA52BD41BD03
:1037B00080BD0FB6F894FA9AF99A0FBE4F5F5F4F2B
:1037C000403D510511F03196EDCFE9E6F2E0808100
:1037D000F999FECF1FBA52BD41BD80BD0FB6F89416
:1037E000FA9AF99A0FBE4F5F5F4F443D510511F0B1
:1037F0003196EDCFEDE6F2E08081F999FECF1FBA68
:1038000052BD41BD80BD0FB6F894FA9AF99A0FBE29
:103810004F5F5F4F483D510511F03196EDCFE1E725
:10382000F2E08081F999FECF1FBA52BD41BD80BD43
:103830000FB6F894FA9AF99A0FBE4B3D510521F054
:103840004F5F5F4F3196EDCF80911A0190911B0130
:10385000A0911C01B0911D01898B9A8BAB8BBC8B05
:10386000FE01719684E690E02081F999FECF1FBA9F
:1038700092BD81BD20BD0FB6F894FA9AF99A0FBE99
:103880008736910519F001963196EECFE1E5F2E029
:1038900064918F0108C088EE9EE00E9403110F5FC3
:1038A0001F4FF80164916623B1F7EBE5F4E06491F2
:1038B0008F0108C088EE9EE00E9403110F5F1F4F2A
:1038C000F80164916623B1F788EE9EE06AE00E94F9
:1038D000031164960FB6F894DEBF0FBECDBFCF9133
:1038E000DF911F910F9108950F931F93DF93CF9353
:1038F000CDB7DEB7E0970FB6F894DEBF0FBECDBFF1
:10390000DE011196E7EAF2E080E101900D9281502C
:10391000E1F7DE015196E7E9F2E080E101900D92D6
:103920008150E1F7DE019196E7E8F2E080E1019055
:103930000D928150E1F789819A81AB81BC8180939E
:10394000330690933406A0933506B09336068989E2
:103950009A89AB89BC898093230690932406A0930F
:103960002506B093260689A19AA1ABA1BCA180939C
:10397000430690934406A0934506B09346068D8176
:103980009E81AF81B8858093370690933806A093C7
:103990003906B0933A068D899E89AF89B88D809398
:1039A000270690932806A0932906B0932A068DA196
:1039B0009EA1AFA1B8A58093470690934806A09317
:1039C0004906B0934A0689859A85AB85BC85809364
:1039D0003B0690933C06A0933D06B0933E06898D2E
:1039E0009A8DAB8DBC8D80932B0690932C06A09363
:1039F0002D06B0932E0689A59AA5ABA5BCA58093EC
:103A00004B0690934C06A0934D06B0934E068D85C1
:103A10009E85AF85B88980933F0690934006A0931A
:103A20004106B09342068D8D9E8DAF8DB8A18093D7
:103A30002F0690933006A0933106B09332068DA5E1
:103A40009EA5AFA5B8A980934F0690935006A0936A
:103A50005106B09352060E94994480E090E8ABE38F
:103A6000B5E48093570690935806A0935906B093F7
:103A70005A0680935B0690935C06A0935D06B09314
:103A80005E0620E030E040E050E0209353063093A3
:103A90005406409355065093560680E29EE4A0E0FB
:103AA000B0E080931F0690932006A0932106B09368
:103AB000220620936B0630936C0640936D0650935C
:103AC0006E0680E090E0A0EAB1E480935F069093F8
:103AD0006006A0936106B09362068DEC9CECACECA2
:103AE000BEE38093630690936406A0936506B0934B
:103AF000660680E090E0A0EAB0E4809367069093C9
:103B00006806A0936906B0936A062093390430933F
:103B10003A0440933B0450933C0420933504309383
:103B20003604409337045093380420933104309383
:103B3000320440933304509334048AE999E9A1EBA9
:103B4000B1E48093690290936A02A0936B02B093F0
:103B50006C0261E77DE38AE89FE30E94BF6F609398
:103B60006D0270936E0280936F029093700260E01A
:103B700070E084EE92E40E94CD6F609371027093C6
:103B8000720280937302909374020E94DD6E80E053
:103B900090E0A0E8BFE38093750290937602A09333
:103BA0007702B0937802E1E5F2E064918F0108C0FA
:103BB00088EE9EE00E9403110F5F1F4FF801649191
:103BC0006623B1F7E7E5F2E064918F0108C088EE63
:103BD0009EE00E9403110F5F1F4FF801649166235E
:103BE000B1F788EE9EE06AE00E940311E0960FB6FE
:103BF000F894DEBF0FBECDBFCF91DF911F910F9123
:103C000008950F931F93CF93DF9301E512E0F8011E
:103C10006491E80107C088EE9EE00E94031121969E
:103C2000FE0164916623B9F7EBE4F4E06491EF01DF
:103C300007C088EE9EE00E9403112196FE01649168
:103C40006623B9F788EE9EE06AE00E940311F8014E
:103C50006491C1E5D2E007C088EE9EE00E940311A6
:103C60002196FE0164916623B9F740913306509185
:103C70003406609135067091360683E494E00E9424
:103C80002C28409137065091380660913906709182
:103C90003A0680E494E00E942C2840913B06509123
:103CA0003C0660913D0670913E068DE394E00E94D3
:103CB0002C2840913F06509140066091410670913A
:103CC00042068AE394E00E942C2888EE9EE06EE192
:103CD00071E00E94D31188EE9EE06AE00E94031119
:103CE000F8016491C1E5D2E007C088EE9EE00E9431
:103CF00003112196FE0164916623B9F7E0E2F4E036
:103D00006491EF0107C088EE9EE00E9403112196A6
:103D1000FE0164916623B9F788EE9EE06AE00E9496
:103D20000311F8016491C1E5D2E007C088EE9EE07E
:103D30000E9403112196FE0164916623B9F7409118
:103D4000230650912406609125067091260687E18E
:103D500094E00E942C2840912706509128066091FB
:103D6000290670912A0684E194E00E942C28409153
:103D70002B0650912C0660912D0670912E0681E144
:103D800094E00E942C2840912F06509130066091BB
:103D90003106709132068EE094E00E942C2888EE65
:103DA0009EE06EE171E00E94D31188EE9EE06AE031
:103DB0000E940311F8016491C1E5D2E007C088EECA
:103DC0009EE00E9403112196FE0164916623B9F7DB
:103DD000E0EFF3E06491EF0107C088EE9EE00E94FF
:103DE00003112196FE0164916623B9F788EE9EE0E7
:103DF0006AE00E940311F8016491C1E5D2E007C0B6
:103E000088EE9EE00E9403112196FE0164916623D4
:103E1000B9F7409143065091440660914506709170
:103E2000460687EE93E00E94CD23409147065091CD
:103E300048066091490670914A0684EE93E00E941C
:103E4000CD2340914B0650914C0660914D067091E8
:103E50004E0681EE93E00E94CD2340914F06509193
:103E6000500660915106709152068EED93E00E94CB
:103E7000CD2388EE9EE06EE171E00E94D31188EEC2
:103E80009EE06AE00E940311F8016491C1E5D2E06E
:103E900007C088EE9EE00E9403112196FE01649106
:103EA0006623B9F7E9EAF3E06491EF0107C088EE11
:103EB0009EE00E9403112196FE0164916623B9F7EA
:103EC00088EE9EE06AE00E940311F8016491C1E56A
:103ED000D2E007C088EE9EE00E9403112196FE0109
:103EE00064916623B9F74091570650915806609146
:103EF000590670915A0680EA93E00E942C2840915E
:103F00005B0650915C0660915D0670915E068DE9DE
:103F100093E00E942C2888EE9EE06EE171E00E9402
:103F2000D31188EE9EE06AE00E940311F8016491CB
:103F3000C1E5D2E007C088EE9EE00E940311219601
:103F4000FE0164916623B9F7EAEEF2E06491EF01B5
:103F500007C088EE9EE00E9403112196FE01649145
:103F60006623B9F788EE9EE06AE00E940311F8012B
:103F70006491C1E5D2E007C088EE9EE00E94031183
:103F80002196FE0164916623B9F740915306509142
:103F90005406609155067091560681EE92E00E949B
:103FA0002C2840916B0650916C0660916D067091C3
:103FB0006E068EED92E00E942C2840911F065091D3
:103FC000200660912106709122068BED92E00E94FE
:103FD000CD2340915F06509160066091610670911B
:103FE000620688ED92E00E942C2840916306509171
:103FF0006406609165067091660685ED92E00E9408
:104000002C2840916706509168066091690670916E
:104010006A0682ED92E00E942C2888EE9EE06EE116
:1040200071E00E94D31188EE9EE06AE00E940311C5
:10403000F8016491C1E5D2E007C088EE9EE00E94DD
:1040400003112196FE0164916623B9F7E0ECF2E0DA
:104050006491EF0107C088EE9EE00E940311219653
:10406000FE0164916623B9F788EE9EE06AE00E9443
:104070000311F8016491C1E5D2E007C088EE9EE02B
:104080000E9403112196FE0164916623B9F74091C5
:10409000310450913204609133047091340487EB01
:1040A00092E00E942C284091350450913604609192
:1040B00037047091380484EB92E00E942C284091E0
:1040C000390450913A0460913B0470913C0481EBB7
:1040D00092E00E942C2888EE9EE06EE171E00E9442
:1040E000D31188EE9EE06AE00E940311F80164910A
:1040F000C1E5D2E007C088EE9EE00E940311219640
:10410000FE0164916623B9F7E3EAF2E06491EF01FE
:1041100007C088EE9EE00E9403112196FE01649183
:104120006623B9F788EE9EE06AE00E940311F80169
:104130006491C1E5D2E007C088EE9EE00E940311C1
:104140002196FE0164916623B9F74091690250916E
:104150006A0260916B0270916C0289E992E00E94A0
:104160002C2860916D0270916E0280916F02909187
:1041700070020E94C66FAB01BC0186E992E00E940A
:104180002C2860917102709172028091730290915B
:1041900074020E94D46FAB01BC0183E992E00E94DB
:1041A0002C2888EE9EE06EE171E00E94D31188EE2B
:1041B0009EE06AE00E940311DF91CF911F910F9161
:1041C00008950F931F93DF93CF93CDB7DEB7649716
:1041D0000FB6F894DEBF0FBECDBF80911A0190914B
:1041E0001B01A0911C01B0911D01898B9A8BAB8B97
:1041F000BC8BFE013D9604E610E0F999FECF12BD9E
:1042000001BDF89A80B580830F5F1F4F08361105F6
:1042100011F03196F2CFCE014196BE01635F7F4F20
:1042200043E050E00E94450E009709F076C1E3E3B9
:10423000F6E0F999FECF12BD01BDF89A80B58083F2
:104240000F5F1F4F0837110511F03196F2CFE3E2EF
:10425000F6E0F999FECF12BD01BDF89A80B58083D2
:104260000F5F1F4F0838110511F03196F2CFE3E4CC
:10427000F6E0F999FECF12BD01BDF89A80B58083B2
:104280000F5F1F4F0839110511F03196F2CF0E94D0
:104290009944E7E5F6E0F999FECF12BD01BDF89A21
:1042A00080B580830F5F1F4F0C39110511F03196D7
:1042B000F2CFEBE5F6E0F999FECF12BD01BDF89A19
:1042C00080B580830F5F1F4F003A110511F03196C2
:1042D000F2CFE3E5F6E0F999FECF12BD01BDF89A01
:1042E00080B580830F5F1F4F043A110511F031969E
:1042F000F2CFEBE6F6E0F999FECF12BD01BDF89AD8
:1043000080B580830F5F1F4F083A110511F0319679
:10431000F2CFEFE1F6E0F999FECF12BD01BDF89AB8
:1043200080B580830F5F1F4F0C3A110511F0319655
:10433000F2CFEFE5F6E0F999FECF12BD01BDF89A94
:1043400080B580830F5F1F4F003B110511F0319640
:10435000F2CFE3E6F6E0F999FECF12BD01BDF89A7F
:1043600080B580830F5F1F4F043B110511F031961C
:10437000F2CFE7E6F6E0F999FECF12BD01BDF89A5B
:1043800080B580830F5F1F4F083B110511F03196F8
:10439000F2CFE1E3F4E0F999FECF12BD01BDF89A46
:1043A00080B580830F5F1F4F043C110511F03196DB
:1043B000F2CFFE013196F999FECF12BD01BDF89AF8
:1043C00080B580830F5F1F4F063C110599F7FE01F2
:1043D0003396F999FECF12BD01BDF89A80B580835E
:1043E0000F5F1F4F083C110511F03196F2CFFE010F
:1043F0003596F999FECF12BD01BDF89A80B580833C
:104400000F5F1F4F0A3C110511F03196F2CFFE01EC
:104410003796F999FECF12BD01BDF89A80B5808319
:104420000F5F1F4F0C3C110511F03196F2CFFE01CA
:104430003996F999FECF12BD01BDF89A80B58083F7
:104440000F5F1F4F0E3C110511F03196F2CFFE01A8
:104450003B96F999FECF12BD01BDF89A80B58083D5
:104460000F5F1F4F003D110511F03196F2CFE9E6C5
:10447000F2E0F999FECF12BD01BDF89A80B58083B4
:104480000F5F1F4F043D110511F03196F2CFEDE69D
:10449000F2E0F999FECF12BD01BDF89A80B5808394
:1044A0000F5F1F4F083D110511F03196F2CFE1E784
:1044B000F2E0F999FECF12BD01BDF89A80B5808374
:1044C0000B3D110521F00F5F1F4F3196F2CF0E9477
:1044D000DD6EE1E5F2E064918F0108C088EE9EE0B8
:1044E0000E9403110F5F1F4FF80164916623B1F71B
:1044F000E9E7F2E064918F0108C088EE9EE00E9437
:1045000003110F5F1F4FF80164916623B1F788EE26
:104510009EE06AE00E94031102C00E94741C0E9487
:10452000011E64960FB6F894DEBF0FBECDBFCF91CB
:10453000DF911F910F910895CF93DF930FB6F894F9
:104540008091DF0E9091E00EA091E10EB091E20E0D
:104550000FBE80935E0490935F04A0936004B093B9
:104560006104E0918704F0918804E757FB4F808154
:10457000882399F4EDE0F5E06491EF0107C088EE3F
:104580009EE00E9403112196FE0164916623B9F713
:1045900088EE9EE06AE00E940311DF91CF910895BA
:1045A000EF92FF920F931F93CF93DF93EC01E09074
:1045B0003D04F0903E0400913F0410914004688156
:1045C00079818A819B81A80197010E94A98588230E
:1045D00024F4E882F9820A831B83E0904104F0907E
:1045E000420400914304109144046C817D818E81CA
:1045F0009F81A80197010E94A985882324F4EC8259
:10460000FD820E831F83E0904504F09046040091E4
:10461000470410914804688579858A859B85A8019F
:1046200097010E94A985882324F4E886F9860A87E1
:104630001B87E0904302F0904402009145021091E4
:104640004602688179818A819B81A80197010E9435
:10465000B787181624F4E882F9820A831B83E09056
:104660004702F09048020091490210914A026C8181
:104670007D818E819F81A80197010E94B7871816BE
:1046800024F4EC82FD820E831F83E0904B02F090B5
:104690004C0200914D0210914E02688579858A8501
:1046A0009B85A80197010E94B787181624F4E88615
:1046B000F9860A871B87DF91CF911F910F91FF9099
:1046C000EF9008958091540408958130910549F444
:1046D0006F5F7F4F09F052C08EE193E00E941B1183
:1046E0000895892B09F04AC06F5F7F4F09F046C0DB
:1046F00087EF92E09093EB038093EA038091F003BD
:10470000882321F08DEE93E00E94405A87EF92E0DB
:104710009093AA038093A9038091AF03882321F08B
:104720008CEA93E00E94405A87EF92E090938C03CA
:1047300080938B0380919103882321F08EE893E08E
:104740000E94405A87EF92E090936E0380936D032E
:1047500080917303882321F080E793E00E94405A00
:1047600087EF92E090934E0380934D038091530323
:10477000882321F080E593E00E94405A089580E06C
:1047800090E06FEF7FEF0E946523089581E090E055
:104790006FEF7FEF0E9465230895EF92FF920F93D2
:1047A0001F93CF93DF93EC017A018B01FC0164919D
:1047B00007C088EE9EE00E9403112196FE016491DD
:1047C0006623B9F788EE9EE0B801A7012AE000E071
:1047D0000E946781DF91CF911F910F91FF90EF9021
:1047E0000895CF93DF930E94B06F80915404882383
:1047F00009F034C081E08093540480915604909174
:104800005704A0915804B091590480935A0490938E
:104810005B04A0935C04B0935D04E1E7F4E0649171
:10482000EF0107C088EE9EE00E9403112196FE0171
:1048300064916623B9F7E8E7F4E06491EF0107C0FB
:1048400088EE9EE00E9403112196FE01649166238A
:10485000B9F788EE9EE06AE00E940311DF91CF91E4
:104860000895CF93DF93F8940E94B06F779A769A69
:10487000479A439AE1E7F4E06491EF0107C088EEBC
:104880009EE00E9403112196FE0164916623B9F710
:10489000EEEEF4E06491EF0107C088EE9EE00E9426
:1048A00003112196FE0164916623B9F788EE9EE01C
:1048B0006AE00E940311FFCFEF92FF920F931F93C4
:1048C0000FB6F8948091DF0E9091E00EA091E10E6A
:1048D000B091E20E0FBEE0906204F090630400918C
:1048E00064041091650420915E0430915F0440914E
:1048F000600450916104821B930BA40BB50BE81666
:10490000F9060A071B0738F4E114F1040105110543
:1049100011F00E943124E0904F02F090500200917B
:10492000510210915202E114F1040105110531F117
:104930000FB6F8948091DF0E9091E00EA091E10EF9
:10494000B091E20E0FBE20915E0430915F04409161
:10495000600450916104821B930BA40BB50BE81605
:10496000F9060A071B0750F49091600B8091610BC8
:10497000981721F4779A769A479A439A0E944C4462
:104980001F910F91FF90EF9008956F927F928F92F9
:104990009F92AF92BF92CF92DF92EF92FF920F93CE
:1049A0001F93F82E609166047091670480916804EB
:1049B0009091690420916A0430916B0440916C04D9
:1049C00050916D040E94C4873B014C0100D000D07F
:1049D00000D00DB71EB70F5F1F4F60913F0270915F
:1049E0004002882777FD8095982F0E944B86209162
:1049F00053023091540240915502509156020E9448
:104A0000898820E030E040E752E40E94B08520E051
:104A100030E048EC52E40E94B0855B016C01F80183
:104A20006082718282829382F482809149048583BC
:104A300081E294E062E774E046E654E020E001E0C1
:104A400032E0E32E0E94AF3F809172049091730494
:104A5000A0917404B0917504809321049093220472
:104A6000A0932304B093240480917604909177045A
:104A7000A0917804B0917904809325049093260442
:104A8000A0932704B093280480917A0490917B042A
:104A9000A0917C04B0917D048093290490932A0412
:104AA000A0932B04B0932C0480917E0490917F04FA
:104AB000A0918004B091810480932D0490932E04E2
:104AC000A0932F04B09330040FB6F8948091DF0EBA
:104AD0009091E00EA091E10EB091E20E0FBE809396
:104AE0005E0490935F04A0936004B09361048DB75B
:104AF0009EB706960FB6F8949EBF0FBE8DBF1F914E
:104B00000F91FF90EF90DF90CF90BF90AF909F906C
:104B10008F907F906F900895CF92DF92EF92FF92E7
:104B20000F931F9382E794E00E94D0220FB6F8946F
:104B30008091DF0E9091E00EA091E10EB091E20E17
:104B40000FBE80935E0490935F04A0936004B093C3
:104B5000610460912104709122048091230490915A
:104B60002404209172043091730440917404509194
:104B700075040E94A985882309F07AC060912504F4
:104B80007091260480912704909128042091760446
:104B90003091770440917804509179040E94A9855E
:104BA000882309F065C0609153027091540280918E
:104BB00055029091560220E030E040E752E40E9416
:104BC000B0857B018C0182E794E066E774E04AE7F8
:104BD00054E02EE734E0E9E4CE2EE4E0DE2E0E943D
:104BE000D2498091720490917304A0917404B091A1
:104BF00075048093210490932204A0932304B0931E
:104C000024048091760490917704A0917804B09167
:104C100079048093250490932604A0932704B093ED
:104C2000280480917A0490917B04A0917C04B09137
:104C30007D048093290490932A04A0932B04B093BD
:104C40002C0480917E0490917F04A0918004B09107
:104C5000810480932D0490932E04A0932F04B0938D
:104C600030041F910F91FF90EF90DF90CF90089547
:104C700060913F0270914002882777FD8095982FC0
:104C80000E944B862091530230915402409155026C
:104C9000509156020E94898820E030E040E752E4BB
:104CA0000E94B08520E030E048EC52E488CFCF93FA
:104CB000DF9388EE9EE00E942D83E0E1F5E06491B1
:104CC000EF0107C088EE9EE00E9403112196FE01CD
:104CD00064916623B9F7409156045091570460914E
:104CE0005804709159044F5F5F4F6F4F7F4F88EEAC
:104CF0009EE00E94F48188EE9EE06AE00E9403112B
:104D00000E949C22DF91CF9108952F923F924F9263
:104D10005F926F927F928F929F92AF92BF92CF924B
:104D2000DF92EF92FF920F931F93DF93CF9300D008
:104D300000D000D0CDB7DEB78C018330910508F0EC
:104D400051C13C01660C771C660C771C93012F5DEA
:104D50003B4F3A83298380E090E0A0E0B0E0F90186
:104D600080839183A283B38381E294E065E274E05F
:104D700049E254E02DE234E00E94E244F301E65AB5
:104D8000F94F65917591859194910E58194FF801DD
:104D9000E49093012E583B4F3E832D8320E030E07A
:104DA00040EC5FE30E9489885B016C01FF24E7FC13
:104DB000F0940F2D1F2DC801B7010E944B861B01D7
:104DC0002C01C601B501A20191010E948988AD8123
:104DD000BE816D937D938D939C931397F301E15D59
:104DE000FD4FFC83EB8360817181828193816093AD
:104DF000530270935402809355029093560220E020
:104E000030E040E752E40E94B0857B018C0182E7EC
:104E100094E066E774E04AE754E02EE734E0A9E462
:104E2000CA2EA4E0DA2E0E94D2490E94E06780E0F8
:104E300090E0A0E0B0E0E981FA8180839183A283D1
:104E4000B38381E294E065E274E049E254E02DE24C
:104E500034E00E94E244F301EA59F94F85909590BD
:104E6000A590B490C501B4019058A20191010E948F
:104E70008988AD81BE816D937D938D939C931397AB
:104E800060915302709154028091550290915602A4
:104E900020E030E040E752E40E94B0857B018C01C5
:104EA00082E794E066E774E04AE754E02EE734E0F6
:104EB0000E94D2490E94E067C501B401A501940196
:104EC0000E94D084A20191010E948988ED81FE8117
:104ED0006083718382839383AB81BC816D917D916B
:104EE0008D919C9120E030E040E05FE30E94898852
:104EF000609353027093540280935502909356022C
:104F000020E030E040E752E40E94B0857B018C0154
:104F100082E794E066E774E04AE754E02EE734E085
:104F20000E94D2490E94E067F301EB58F94F659166
:104F3000759185919491F301EF5CFB4FA080B18056
:104F4000C280D380A60195010E94D0847B018C0190
:104F5000CB01D801E981FA8180839183A283B38355
:104F6000F301EF57F94F6591759185919491FDE3A8
:104F70008F2EF4E09F2E860C971CA60195010E94AF
:104F8000D084D4016D937D938D939C931397F301FB
:104F9000E357F94F6591759185919491E3E4F2E0BF
:104FA0006E0E7F1EA60195010E94D084D3016D93E1
:104FB0007D938D939C931397C701D801ED81FE815A
:104FC00080839183A283B38380E090E0A0E0B0E08F
:104FD0008093530290935402A0935502B0935602CB
:104FE0000E94056726960FB6F894DEBF0FBECDBFB0
:104FF000CF91DF911F910F91FF90EF90DF90CF90B5
:10500000BF90AF909F908F907F906F905F904F90E8
:105010003F902F900895409187045091880420E696
:1050200030E0B901469F9001479F300D569F300DEB
:105030001124682F772767FD7095C9018D569B4F06
:105040000E94330E9C01909392048093910480E01F
:10505000232B09F081E00895EF92FF920F931F93A5
:10506000CF93DF93EC017A018B01FC01649107C0BF
:1050700088EE9EE00E9403112196FE016491662352
:10508000B9F788EE9EE0B801A70122E00E940682EF
:10509000DF91CF911F910F91FF90EF900895809134
:1050A000910490919204019660E070E04AE050E033
:1050B0000E94AA0C08958091910490919204019607
:1050C00060E070E00E944A0B08950F931F93CF9306
:1050D000DF938C01809149048093550484E50E94FC
:1050E0000B28882309F44FC00E945B280E941D866C
:1050F00060935504662309F446C0EBE6F4E064913E
:10510000EF0107C088EE9EE00E9403112196FE0188
:1051100064916623B9F70936110599F00A3611052D
:1051200024F408361105E9F407C00D36110571F0B5
:105130000A3D1105B1F40FC088EE9EE06FE171E009
:105140000EC088EE9EE066E371E009C088EE9EE046
:105150006DE471E004C088EE9EE064E671E00E94B8
:10516000D3114091550450E060E070E088EE9EE07D
:105170002AE000E00E94678188EE9EE06AE00E94DB
:10518000031181E001C080E0DF91CF911F910F9169
:105190000895AF92BF92CF92DF92EF92FF920F935A
:1051A0001F93CF93DF9311E2E12E14E0F12EC2E7BB
:1051B000D4E000E010E0F801E954FD4F80810E9446
:1051C0000B28882339F10E945B285B016C01F801F0
:1051D000E55EFB4F8081882311F061E002C06091A1
:1051E000820470E0882777FD8095982F0E944B8677
:1051F000F70120813181428153810E9489889B017E
:10520000AC01C601B5010E94D084688379838A838A
:105210009B8309C0F70180819181A281B38188833A
:105220009983AA83BB830F5F1F4F84E090E0E80E51
:10523000F91E24960430110509F0BDCF86E40E94C2
:105240000B288823E1F00E945B287B018C0160938E
:10525000830470938404809385049093860420E0F3
:1052600030E040E050E00E94B787181644F4E09226
:105270005302F09254020093550210935602DF91AC
:10528000CF911F910F91FF90EF90DF90CF90BF9043
:10529000AF9008950E94C92889E40E940B288823B2
:1052A00059F00E945B2860936604709367048093B2
:1052B0006804909369040CC080E090E0A0E0B0E046
:1052C0008093660490936704A0936804B093690484
:1052D0008AE40E940B28882359F00E945B2860937F
:1052E0006A0470936B0480936C0490936D0408952A
:1052F00080E090E0A0E0B0E080936A0490936B04BB
:10530000A0936C04B0936D0408952F923F924F9236
:105310005F926F927F928F929F92AF92BF92CF9245
:10532000DF92EF92FF920F931F93DF93CF93CDB74E
:10533000DEB76E970FB6F894DEBF0FBECDBF87E421
:105340000E940B28882309F44EC20E945B280E9409
:1053500018866430710509F441C06530710554F454
:105360006230710541F1633071056CF57723CCF43F
:105370000C9457386A35710509F4E0C16B35710535
:1053800034F46C31710511F00C94573882C06B35D0
:10539000710509F4D7C16C35710511F00C945738BB
:1053A000D6C180915404882331F40E94C9280E94F8
:1053B0008C250C948A3880915404882321F40E940F
:1053C0004A2981E007C080915404882339F40E945F
:1053D0004A2980E00E94C5240C948A3880E50E9406
:1053E0000B28882321F4AA24BB24650106C00E944F
:1053F0005B280E941D865B016C0183E50E940B28DF
:10540000882361F00E945B2820E030E04AE754E402
:105410000E9489880E941D865B016C010E94E067E2
:105420000FB6F894E090DF0EF090E00E0091E10EE0
:105430001091E20E0FBEEA0CFB1C0C1D1D1D0FB6D9
:10544000F8948091DF0E9091E00EA091E10EB09162
:10545000E20E0FBE80935E0490935F04A0936004FD
:10546000B093610404C00E94A0730E945C240FB634
:10547000F8948091DF0E9091E00EA091E10EB09132
:10548000E20E0FBE8E159F05A007B10760F30C94C6
:1054900057388091530290915402A0915502B091D7
:1054A000560280938D0490938E04A0938F04B09342
:1054B000900480913F029091400290932004809349
:1054C0001F0484E690E09093400280933F020FB661
:1054D000F8948091DF0E9091E00EA091E10EB091D2
:1054E000E20E0FBE80935E0490935F04A09360046D
:1054F000B093610481E00E940C6780912104909137
:105500002204A0912304B091240480937204909308
:105510007304A0937404B093750480912504909152
:105520002604A0912704B0912804809376049093D8
:105530007704A0937804B093790480912904909122
:105540002A04A0912B04B0912C0480937A049093A8
:105550007B04A0937C04B0937D0480912D049091F2
:105560002E04A0912F04B091300480937E04909378
:105570007F04A0938004B093810480E090E0A0E0D9
:10558000B0E08093530290935402A0935502B093DD
:10559000560288E50E940B28882361F489E50E9461
:1055A0000B28882339F48AE50E940B28882311F4FC
:1055B00081E001C080E080935702882329F488E5C8
:1055C0000E940B28882321F080E090E00E9485262D
:1055D00080915702882329F489E50E940B288823AB
:1055E00021F081E090E00E94852680915702882377
:1055F00029F48AE50E940B28882321F082E090E0BC
:105600000E94852688E50E940B288823D9F00E94F5
:105610004F286115710581059105A1F00E945B2855
:10562000209131043091320440913304509134047C
:105630000E94D084609321047093220480932304F9
:105640009093240489E50E940B288823D9F00E94B6
:105650004F286115710581059105A1F00E945B2815
:10566000209135043091360440913704509138042C
:105670000E94D084609325047093260480932704AD
:10568000909328048AE50E940B288823D9F00E9471
:105690004F286115710581059105A1F00E945B28D5
:1056A0002091390430913A0440913B0450913C04DC
:1056B0000E94D0846093290470932A0480932B0461
:1056C00090932C0481E294E065E274E049E254E0B6
:1056D0002DE234E00E94E24480E00E940C67809159
:1056E0008D0490918E04A0918F04B09190048093CA
:1056F000530290935402A0935502B09356028091A6
:105700001F04909120049093400280933F020FB6B3
:10571000F8948091DF0E9091E00EA091E10EB0918F
:10572000E20E0FBE80935E0490935F04A09360042A
:10573000B09361040E9405670C945738109282045C
:105740000C94573881E0809382040C94573885E498
:105750000E940B28882311F40E94E06751E2E52E95
:1057600054E0F52E41E3C42E44E0D42E00E010E0D6
:10577000F801E954FD4F80810E940B28882331F104
:10578000033061F40E945B28F70160837183828398
:1057900093838DE294E00E94C44418C00E945B2869
:1057A000F60120813181428153810E94D084F7012A
:1057B000608371838283938381E294E065E274E085
:1057C00049E254E02DE234E00E94E2440F5F1F4FB3
:1057D00044E050E0E40EF51EC40ED51E0430110561
:1057E00039F60C9457388DE40E940B28882311F465
:1057F0000C949B370E945B280E94188662377105C3
:1058000011F40C945534633771050CF085C06E317A
:10581000710509F4F9C16F317105ECF56731710556
:1058200009F45AC168317105DCF46431710509F479
:105830001EC16531710554F46131710509F411C15E
:105840006231710511F00C9457382BC76531710521
:1058500009F436C16631710511F00C94573836C120
:105860006A31710509F46FC16B31710554F4683107
:10587000710509F449C16931710511F00C9457386B
:105880005CC16B31710509F47DC16C31710511F09A
:105890000C9457387DC16535710509F44BC76635E1
:1058A0007105DCF46235710509F4F4C663357105E0
:1058B00054F46F31710509F427C26A32710511F091
:1058C0000C945738CEC26335710509F4E6C66435C9
:1058D000710511F00C945738E4C66936710509F466
:1058E0003DC36A36710554F46C35710509F438C747
:1058F0006836710511F00C945738FFC26B3671058C
:1059000009F4C3C66B3671050CF490C66D3671058B
:1059100011F00C945738F2C36E3C710511F40C94DD
:1059200056366F3C71050CF046C06C38710509F4B1
:1059300004C36D38710504F56737710511F40C94D3
:1059400036356837710564F46337710511F40C94CA
:1059500035346537710511F00C9457380C94453483
:105960006837710511F40C9430356937710511F001
:105970000C9457380C9432356B3C710511F40C942F
:10598000BA356C3C71055CF46E3B710509F48FC54A
:10599000693C710511F00C9457380C9498356C3CA7
:1059A000710511F40C94D8356D3C710511F00C940F
:1059B00057380C94F83551E06039750711F40C94A0
:1059C000773781E0613978071CF591E06D3279070E
:1059D00011F40C949236E1E06E327E0764F46C3D73
:1059E000710511F40C9474366D3D710511F00C9431
:1059F00057380C948336F1E06E327F0711F40C9423
:105A000033376F52714011F00C9457380C9437377C
:105A100041E0663F740711F40C94803751E0673F12
:105A200075076CF481E0643F780711F40C947A37C1
:105A3000655F714011F00C9457380C947D37E3E0AA
:105A4000603A7E0709F425C1F3E0673E7F0711F451
:105A50000C948637675F714011F00C9457380C94A2
:105A6000833777987698479843980C945738EAE4A8
:105A7000F6E064918F0108C088EE9EE00E94031159
:105A80000F5F1F4FF80164916623B1F788EE9EE027
:105A90006AE00E9403118EE193E00E94DC19ECE3BE
:105AA000F6E064918F0108C088EE9EE00E94031129
:105AB0000F5F1F4FF80164916623B1F70C945238C1
:105AC0008EE193E00E9426160C9457388EE193E005
:105AD0000E9479110C94573880919104909192040E
