:100000000C94190A0C94440A0C94440A0C94440A63
:100010000C94440A0C94440A0C94440A0C94440A28
:100020000C94440A0C94440A0C941A7D0C94937B0F
:100030000C94440A0C94440A0C94440A0C94440A08
:100040000C94440A0C947A1C0C94440A0C94440AB0
:100050000C94440A0C94440A0C94F75C0C94567A61
:100060000C94440A0C94440A0C94440A0C94440AD8
:100070000C94440A0C94440A0C94440A0C94440AC8
:100080000C94440A0C94440A0C94440A0C94440AB8
:100090000C94440A0C94440A084AD73B3BCE016EA8
:1000A00084BCBFFDC12F3D6C74319ABD56833DDACF
:1000B0003D00C77F11BED9E4BB4C3E916BAAAABEDE
:1000C000000000803F05A84CCDB2D44EB93836A907
:1000D000020C50B9918688083CA6AAAA2ABE000044
:1000E00000803F6563686F3A0043616E6E6F7420F5
:1000F000656E746572207375626469723A00457248
:10010000726F723A006572726F72207772697469E9
:100110006E6720746F2066696C65004E6F742053A3
:1001200044207072696E74696E67002F005344201A
:100130007072696E74696E67206279746520002E32
:100140000044656C6574696F6E206661696C6564F6
:100150002C2046696C653A200046696C6520646510
:100160006C657465643A002E006F70656E20666180
:10017000696C65642C2046696C653A200057726989
:1001800074696E6720746F2066696C653A20002E72
:10019000006F70656E206661696C65642C2046692D
:1001A0006C653A20002E006F70656E206661696C88
:1001B00065642C2046696C653A200046696C6520B0
:1001C00073656C6563746564002053697A653A00F1
:1001D00046696C65206F70656E65643A002E006F2D
:1001E00070656E206661696C65642C2046696C657B
:1001F0003A2000776F726B446972206F70656E20D1
:100200006661696C656400776F726B446972206F18
:1002100070656E206661696C65640053442063619B
:100220007264206F6B006F70656E526F6F74206622
:1002300061696C656400766F6C756D652E696E69B9
:1002400074206661696C656400534420696E69744A
:10025000206661696C0024F404D9201BC40C5C0E78
:100260009804C4095F0265077101F405F900FB04F5
:10027000B30048048700C103690058035500030315
:100280004500BE023A008402310053022A002902CE
:10029000250004022000E4011C00C8011900AF0180
:1002A000170098011400840113007101100061010E
:1002B000100051010E0043010D0036010B002B010F
:1002C0000B0020010B00150109000C0109000301BE
:1002D0000800FB000800F3000800EB000700E40042
:1002E0000600DE000600D8000600D2000600CC00A2
:1002F0000500C7000500C2000500BD000400B900EC
:100300000400B5000400B1000400AD000400A90021
:100310000400A5000300A20003009F0004009B004E
:100320000300980003009500020093000300900072
:1003300003008D0002008B0003008800020086008D
:10034000020084000300810002007F0002007D00A3
:1003500002007B00020079000200770001007600B5
:1003600002007400020072000100710002006F00C0
:1003700002006D0001006C0002006A0001006900CB
:1003800002006700010066000100650001006400D2
:1003900002006200010061000100600001005F00D6
:1003A00002005D0001005C0001005B0001005A00DA
:1003B00001005900010058000100570001005600DB
:1003C00001005500010054000100530000005300DB
:1003D00001005200010051000100500001004F00D7
:1003E00001004E0000004E0001004D0001004C00D5
:1003F00001004B0000004B0001004A0001004900D1
:1004000001004800000048000100470001004600CC
:1004100000004600010045000000450001004400C6
:1004200001004300000043000100420000004200C0
:1004300001004100000041000100400001003F00B8
:1004400000003F0001003E0000003E0001003D00B2
:1004500000003D0001003C0000003C0000003C00AA
:1004600001003B0000003B0001003A0000003A00A0
:100470000100390000003900010038000000380098
:10048000000038000100370000003700010036008E
:100490000000360000003600010035000000350085
:1004A000000035000100340000003400000034007A
:1004B000010033000000330000003300010032006F
:1004C0000000320000003200010031000000310065
:1004D000000031000100300000003000000030005A
:1004E00001002F0000002F0000002F0000002F004F
:1004F00001002E0000002E0000002E0001002D0043
:1005000000002D0000002D0000002D0001002C0037
:1005100000002C0000002C0000002C0001002B002B
:1005200000002B0000002B0000002B0001002A001F
:1005300000002A0000002A0000002A000100290013
:100540000000290000002900000029000000290007
:1005500001002800000028000000280000002800FA
:1005600000002800010027000000270000002700ED
:1005700000002700000027000100260000002600E0
:1005800000002600000026000000260001002500D3
:1005900000002500000025000000250000002500C7
:1005A00000002500010024000000240000002400B9
:1005B00000002400000024000100230000002300AC
:1005C000000023000000230000002300000023009F
:1005D0000000230001002200000022000000220091
:1005E0000000220000002200000022000100210083
:1005F0000000210000002100000021000000210077
:100600000000210000002100010020000000200067
:10061000000020000000200000002000000020005A
:10062000000020000000200001001F0000001F004B
:1006300000001F0000001F0000001F0000001F003E
:1006400000001F0001001E0000001E0000001E0030
:1006500000001E00000024F4D43050C38E20C2A23B
:100660004017828B7011127A910D816CD90AA861A2
:10067000E108C7586607615143061E4B5D05C14539
:10068000A7041A411104093D98037139310340361A
:10069000DB0265339102D4305402802E1D02632C9C
:1006A000EE01752AC501B028A001102781018F2510
:1006B00064012B244B01E0223401AC211F018D2069
:1006C0000D01801FFC00841EED00971DDF00B81C8B
:1006D000D200E61BC600201BBC00641AB200B2198F
:1006E000A8000A19A0006A189900D11791004017B4
:1006F0008B00B516840031167E00B31579003A15CB
:100700007300C7146F0058146A00EE136600881354
:10071000630025135E00C7125B006C1257001512B0
:100720005400C111510070114F0021114B00D6101F
:1007300049008D1047004610440002104200C00FCF
:100740004000800F3E00420F3C00060F3B00CB0EE6
:100750003800930E37005C0E3500270E3400F30D81
:100760003200C10D3100900D3000600D2E00320DB1
:100770002D00050D2C00D90C2B00AE0C2900850C8A
:1007800029005C0C2700350C27000E0C2600E80B16
:100790002400C40B2400A00B23007D0B23005A0B64
:1007A0002100390B2100180B2000F80A1F00D90A7C
:1007B0001E00BB0A1E009D0A1D00800A1D00630A60
:1007C0001C00470A1B002C0A1B00110A1A00F7091B
:1007D0001A00DD091900C4091900AB0919009209B2
:1007E00017007B091800630917004C091600360929
:1007F0001600200916000A091500F5081500E00882
:100800001400CC081400B8081400A40814009008C0
:1008100013007D0812006B081300580812004608E8
:1008200012003408110023081100120811000108F9
:100830001100F0071000E0071000D0071000C007FB
:100840001000B0070F00A107100091070E008307EA
:100850000F0074070F0065070E0057070E004907C9
:100860000E003B070D002E070E0020070D0013079A
:100870000D0006070D00F9060C00ED060D00E00660
:100880000C00D4060C00C8060C00BC060C00B00618
:100890000C00A4060B0099060C008D060B008206C6
:1008A0000B0077060B006C060B0061060A0057066A
:1008B0000B004C060A0042060A0038060A002E0603
:1008C0000A0024060A001A060A0010060900070694
:1008D0000A00FD050900F4050900EB050900E20521
:1008E0000900D9050900D0050900C7050900BE05A2
:1008F0000900B5050800AD050800A50509009C051F
:100900000800940508008C050800840508007C0593
:100910000800740508006C050700650508005D0502
:100920000700560508004E0507004705070040056B
:10093000080038050700310507002A0507002305D0
:1009400007001C050600160507000F05070008052F
:10095000060002050700FB040600F5040700EE048C
:100960000600E8040600E2040700DB040600D504E4
:100970000600CF040600C9040600C3040600BD0437
:100980000600B7040600B1040500AC040600A60486
:100990000600A00405009B040600950405009004D1
:1009A00006008A04050085040500800406007A0418
:1009B000050075040500700405006B04050066045D
:1009C0000500610405005C0405005704050052049D
:1009D00005004D04050048040500430405003E04DD
:1009E00004003A04050035040500300404002C041A
:1009F000050027040400230405001E0404001A0453
:100A0000040016040500110404000D040400090488
:100A100005000404040000040400FC030400F803BF
:100A20000400F4030400F0030400EC030400E803F2
:100A30000400E4030400E0030400DC030400D80322
:100A40000400D4030400D0030400CC030400C80352
:100A50000300C50303006563686F3A00205A3A003B
:100A600020593A0020583A00656E6473746F7073B1
:100A7000206869743A20006563686F3A0020746FDB
:100A80006F206C6F6E6720657874727573696F6E16
:100A90002070726576656E7465640020636F6C64A7
:100AA00020657874727573696F6E207072657665F3
:100AB0006E746564004572726F723A005072696EAE
:100AC0007465722068616C7465642E206B696C6C4F
:100AD00028292063616C6C6564202121006F6B0004
:100AE000526573656E643A006563686F3A00220070
:100AF000556E6B6E6F776E20636F6D6D616E643ACD
:100B000022007A5F6D696E3A00795F6D696E3A0016
:100B1000785F6D696E3A005A3A00593A0020436F87
:100B2000756E7420583A00453A005A3A00593A0016
:100B3000583A004649524D574152455F4E414D4546
:100B40003A4D61726C696E2056313B205370726968
:100B50006E7465722F6772626C206D617368757058
:100B600020666F722067656E36204649524D5741A8
:100B700052455F55524C3A687474703A2F2F77770C
:100B8000772E6D656E64656C2D70617274732E6363
:100B90006F6D2050524F544F434F4C5F5645525348
:100BA000494F4E3A312E30204D414348494E455F22
:100BB000545950453A4D656E64656C204558545201
:100BC000554445525F434F554E543A310A00204236
:100BD0003A0020453A00543A0020573A0020453A5E
:100BE00000543A0020403A0020423A006F6B2054F3
:100BF0003A00456E642066696C65206C6973740008
:100C0000426567696E2066696C65206C6973740063
:100C100053657474696E67732053746F72656400F2
:100C200053746F7265642073657474696E677320A2
:100C30007265747265697665643A002059002020F7
:100C4000204D323039205800536B65772066616340
:100C5000746F72733A00205A002059002020204DF2
:100C60003230382058004D6178206C656E677468AA
:100C7000733A002044002049002020204D333031B9
:100C80002050005049442073657474696E67733A4C
:100C900000204500205A0020580020420020540027
:100CA00020204D323035205300416476616E6365FB
:100CB00064207661726961626C65733A20533D4DC0
:100CC000696E20666565647261746520286D6D2F9C
:100CD00073292C20543D4D696E2074726176656CC9
:100CE00020666565647261746520286D6D2F7329B7
:100CF0002C20423D6D696E696D756D207365676D61
:100D0000656E742074696D6520286D73292C2058D8
:100D10003D6D6178696D756D207859206A65726BDB
:100D200020286D6D2F73292C20205A3D6D61786924
:100D30006D756D205A206A65726B20286D6D2F735A
:100D4000290020540020204D3230342053004163CC
:100D500063656C65726174696F6E3A20533D6163BF
:100D600063656C65726174696F6E2C20543D7265A9
:100D7000747261637420616363656C657261746928
:100D80006F6E00204500205A0020590020204D326F
:100D900030312058004D6178696D756D2041636375
:100DA000656C65726174696F6E20286D6D2F73328A
:100DB000293A00204500205A0020590020204D32B9
:100DC00030332058004D6178696D756D206665651A
:100DD00064726174657320286D6D2F73293A002049
:100DE0004500205A0020590020204D39322058005B
:100DF00053746570732070657220756E69743A0063
:100E0000446F6E65207072696E74696E67206669E2
:100E10006C65006F6B004E6F204C696E65204E75DF
:100E20006D626572207769746820636865636B73AF
:100E3000756D2C204C617374204C696E653A004EC0
:100E40006F20436865636B73756D207769746820E4
:100E50006C696E65206E756D6265722C204C6173D5
:100E600074204C696E653A00636865636B73756DD9
:100E7000206D69736D617463682C204C61737420FC
:100E80004C696E653A004C696E65204E756D626501
:100E900072206973206E6F74204C617374204C69EA
:100EA0006E65204E756D6265722B312C204C61731E
:100EB00074204C696E653A00446F6E6520736176EC
:100EC000696E672066696C652E006F6B002020508C
:100ED0006C616E6E657242756666657242797465A4
:100EE000733A20002046726565204D656D6F7279FA
:100EF0003A2000656C6B6E69777400207C20417528
:100F000074686F723A2000323031332D30372D3211
:100F10003700204C61737420557064617465643AC5
:100F20002000312E302E3020524332004D61726C41
:100F3000696E3A200020536F6674776172652052A3
:100F40006573657400205761746368646F6720522D
:100F500065736574002042726F776E206F75742020
:100F60005265736574002045787465726E616C20FB
:100F7000526573657400506F7765725570007374B5
:100F8000617274002200656E717565696E6720225A
:100F9000004572726F723A0054656D7065726174CB
:100FA000757265206865617465642062656420738C
:100FB00077697463686564206F66662E204D4158BA
:100FC00054454D50207472696767657265642021CD
:100FD00021003A20457874727564657220737769D0
:100FE0007463686564206F66662E204D494E5445D3
:100FF0004D50207472696767657265642021003AFC
:1010000020457874727564657220737769746368BB
:101010006564206F66662E204D415854454D502022
:10102000747269676765726564202100C001FA0007
:10103000F001F5003002F0007002EB00A002E600C3
:10104000C002E1001003DC005003D700E003D2002F
:101050009004CD008004C800E005BE006006B90021
:101060004007AA00F008A000700B9600F00D8C005D
:10107000E0108200E0137800F0176E00D0196900CC
:10108000701B6400401E5F0010205A00F0255000C5
:1010900080294600D0303C00A032370010353200A5
:1010A00020392D0020392800703A2300A03B1E0073
:1010B000A03C1900203D1600003F0300202D2049D0
:1010C0006E76616C696420657874727564657220EF
:1010D0006E756D626572202100202D20496E76614B
:1010E0006C6964206578747275646572206E756DC4
:1010F000626572210020403A006F6B20543A005024
:101100004944204175746F74756E65206661696C21
:10111000656420212C2054656D7065726174757250
:101120006520746F206869676800204B643A20006E
:10113000204B693A2000204B703A2000204E6F204F
:101140006F76657273686F6F742000204B643A206D
:1011500000204B693A2000204B703A200020536F4A
:101160006D65206F76657273686F6F742000204B19
:10117000643A2000204B693A2000204B703A20004E
:1011800020436C61736963205049442000205475EA
:101190003A2000204B753A2000206D61783A2000FB
:1011A000206D696E3A200020643A20002062696157
:1011B000733A200070012C0190012701B001220137
:1011C000C0011D01F00118011002130130020E01CF
:1011D0006002090190020401C002FF000003FA004E
:1011E0004003F5008003F000D003EB002004E6008C
:1011F0007004E100E004DC004005D700C005D20027
:101200004006CD00D006C8008007C3003008BE00ED
:10121000F008B900C009B400B00AAF00B00BAA00D2
:10122000D00CA500000EA000500F9B00C01096002F
:101230005012910000148C00C0158700B017820076
:10124000B0197D00D01B7800001E730040206E0096
:1012500090226900F024640040275F0090295A0022
:10126000E02B5500102E500020304B00103246006D
:10127000E033410090353C001037370070383200C1
:10128000A0392D00B03A2800A03B2300603C1E008E
:10129000103D1900903D1400103E0F00703E0A00F2
:1012A000C03E0500003F00007C3C3E5E2B3D3F2FD2
:1012B0005B5D3B2C2A225C000129022904290829B4
:1012C0001029202940298029012C022C01260226E0
:1012D000042608261026202640268026402C802C16
:1012E00001230223042308231023202340238023E7
:1012F00001200220042008201020202040208020EF
:10130000102C202C012F022F042F082F102F202FFC
:10131000402F802F7EFE7EFD7EFB7EF77EEF7EDF00
:101320007EBF7E7F00010000581312000200006A99
:10133000134300030000AD130401030904B11318A3
:1013400002030904CB131603030904E3130C000181
:10135000C102018036018136120100020200002024
:10136000C0168304000101020301090243000201C7
:1013700000C032090400000102020100052400102F
:1013800001052401000104240206052406000107CA
:1013900005820308004009040100020A000000075A
:1013A0000503024000000705840240000004030911
:1013B0000418035400650065006E00730079006432
:1013C00000750069006E006F0000001603550053A1
:1013D0000042002000530065007200690061006C4B
:1013E0000000000C033100320033003400350000EF
:1013F00000494E46494E4954594E414ECDCCCC3D04
:101400000AD7233C17B7D13877CC2B329595E624F1
:101410001FB14F0A000020410000C84200401C4696
:1014200020BCBE4CCA1B0E5AAEC59D747338337FA8
:101430006C3811241FBECFEFD0E2DEBFCDBF12E06B
:10144000A0E0B1E0ECE6FDE001E00BBF02C00790D8
:101450000D92A83FB107D9F71BBE1DE0A8EFB2E07F
:1014600001C01D92AE3DB107E1F714E1C0E3D4E144
:1014700004C02297FE010E945B86CC32D107C9F7D7
:101480000E94997D0C94A9860C940000A0E0B0E025
:10149000ECE4FAE00C947886EC015B0161157105CF
:1014A00019F0FB0191838083F9908F2D90E00E94C9
:1014B0005F86892BC9F7FDE2FF1621F4F990EE242F
:1014C000E39405C02BE2F21609F4F990EE248E01A4
:1014D00001501040C80161EF73E143E050E00E9409
:1014E000D50C892B01F58E010E5F1F4FC80164EFEB
:1014F00073E145E050E00E94D50C892B19F48E0170
:10150000095F1F4FA114B10419F0F5011183008385
:10151000E0FC04C070E090E080E814C070E090E06F
:1015200080E86FEF08C1C80169EF73E143E050E064
:101530000E94D50C892B69F4A114B10429F470E040
:1015400090E080EC6FE7F7C02296F501D183C0836D
:10155000F6CF8824992440E050E060E070E0EF2D61
:10156000E053EA30A0F5F2E0EF2A8E2D90E09C01E6
:1015700028703070E2FE06C0232B79F50894811C98
:10158000911C2BC0232B19F0089481089108DB01D2
:10159000CA0112E0880F991FAA1FBB1F1A95D1F725
:1015A000480F591F6A1F7B1F440F551F661F771F67
:1015B0004E0F511D611D711D483929E9520729E956
:1015C000620729E1720748F084E0E82A06C0EE3F8E
:1015D00031F4E3FC39C098E0E92AF990C0CFE53353
:1015E00011F0E53189F529912D3219F4E0E1EE2A67
:1015F00005C02B3219F081E090E003C0299182E010
:1016000090E0E22FE053EA3018F0C81BD90B1CC061
:1016100020E030E0FCE020383F075CF4C901880F8F
:10162000991F880F991F280F391F220F331F2E0F64
:10163000311DE991E053EA3068F3E4FE03C03095D0
:1016400021953F4F820E931ECE2CDD24E1FE07C074
:10165000A114B10421F02197F501D183C083CB01FE
:10166000BA010E94C4827B018C01F3E0CF22DD2409
:1016700023E0C216D10421F417FB109517F9109539
:1016800057016801C801B70120E030E040E050E0B8
:101690000E942482882309F44AC097FE0DC020E1ED
:1016A000E22E24E1F22E9094819491089394C0E26A
:1016B000D0E000E010E012C098E2E92E94E1F92EAB
:1016C000F6CFF7012591359145915491C601B501A9
:1016D0000E9404855B016C018C1A9D0A8C169D0684
:1016E00084F7D595C7950F5F1F4F0630110529F078
:1016F0008CEF9FEFE80EF91EF1CFC501D6017C01FA
:101700008D018C2D880F8D2D881F8F3F51F0C601C4
:10171000B50120E030E040E050E00E9424828823C0
:1017200031F482E290E09093DD0D8093DC0D7E2D0C
:101730009F2D802F612F272F392F482F562FB9012A
:10174000CA01CDB7DEB7ECE00C9494862F923F929D
:101750005F926F927F928F929F92AF92BF92CF9241
:10176000DF92EF92FF920F931F93CF93DF938C0141
:101770001B01EA016115710519F0FB01918380835A
:10178000209749F0CE010297839728F020E030E0BF
:1017900040E050E0F6C0F801A1908F018A2D90E062
:1017A0000E945F86892BB9F7FDE2AF1631F4F8018C
:1017B000A1908F015524539407C0FBE2AF1619F492
:1017C000F801A1908F015524209719F0C031D1055F
:1017D000C1F4F0E3AF1679F4F8018081883711F095
:1017E000883549F4F801A1800E5F1F4FF2E05F2AAF
:1017F000C0E1D0E006C0209721F480E3A816E9F408
:1018000027C0C830D10531F1C930D10524F4C23028
:10181000D10531F50CC0CA30D10589F0C031D105F0
:10182000F9F4C12CD12CE12CB8E0FB2E28C0C12C3E
:10183000D12CE12CA0E4FA2E22C0CAE0D0E0FCECCE
:10184000CF2EFCECDF2EFCECEF2EFCE0FF2E17C0C1
:10185000C8E0D0E0C12CD12CE12CE0E1FE2E0FC07D
:101860009E01442737FD4095542F60E070E080E0F2
:1018700090E80E940886C901DA016C017D0120E030
:1018800030E040E050E060E03E01882477FC809446
:10189000982C70EDB72EBA0CE9E0EB1570F48A2D98
:1018A00081548A3118F499ECB92E06C08A2D8156DC
:1018B0008A3150F589EAB82EBA0C8B2D90E08C173E
:1018C0009D0714F56F3FE1F0C216D306E406F50656
:1018D000B0F0CA01B901A40193010E94D6859B0111
:1018E000AC012B0D311D411D511D2130F0E03F0792
:1018F000F0E04F07F0E85F0710F461E001C06FEF20
:10190000F801A1908F01C5CF2114310481F0662325
:1019100031F001501040F1011183008308C051FEE5
:101920001AC002501040F1011183008314C067FFF8
:1019300012C050FC05C02FEF3FEF4FEF5FE704C030
:1019400020E030E040E050E882E290E09093DD0D4E
:101950008093DC0D16C050FE08C050954095309520
:1019600021953F4F4F4F5F4F0CC057FF0AC082E297
:1019700090E09093DD0D8093DC0D2FEF3FEF4FEF64
:101980005FE7B901CA01DF91CF911F910F91FF90DD
:10199000EF90DF90CF90BF90AF909F908F907F900F
:1019A0006F905F903F902F900895FB01DC014150B4
:1019B000504088F08D9181341CF08B350CF4805EA2
:1019C000659161341CF06B350CF4605E861B61110F
:1019D00071F3990B0895881BFCCFFB01DC0104C057
:1019E0008D910190801921F441505040C8F7881B17
:1019F000990B0895FB01DC0102C001900D9241504A
:101A00005040D8F70895FB01DC010D900020E9F764
:101A1000119701900D920020E1F70895FC0181914A
:101A2000861721F08823D9F7992708953197CF0198
:101A30000895FB01DC0101900D920020E1F708956B
:101A4000FB01DC014150504030F08D910190801934
:101A500019F40020B9F7881B990B0895FB01DC01EC
:101A60004150504048F001900D920020C9F701C04C
:101A70001D9241505040E0F70895FB0151915523CC
:101A8000A9F0BF01DC014D9145174111E1F759F46F
:101A9000CD010190002049F04D9140154111C9F34D
:101AA000FB014111EFCF81E090E001970895AEE096
:101AB000B0E0EDE5FDE00C9480860D891E8986E09E
:101AC0008C831A8309838FEF9FE79E838D839E010A
:101AD000275E3F4FCE0101966F89788DA9010E9444
:101AE0007B0D2F813885020F131FF80110822E966F
:101AF000E4E00C949C86ABE0B0E0E1E8FDE00C94FF
:101B000072863C012B015A01FC01178216828381E7
:101B100081FD03C06FEF7FEFC6C19AE0892E1E01E1
:101B20000894211C311CF3012381F20123FD8591CE
:101B300023FF81912F01882309F4B2C1853239F442
:101B400023FD859123FF81912F01853229F490E0B7
:101B5000B3010E946E0FE7CF982FFF24EE24992443
:101B6000FFE1FF15D0F09B3269F09C3228F49032EF
:101B700059F0933291F40EC09D3249F0903369F4DC
:101B800041E024C052E0F52A84E0F82A28C098E019
:101B9000F92A25C0E0E1FE2A22C0F7FC29C0892FDE
:101BA00080538A3070F4F6FE05C0989C902C112466
:101BB000980E15C0E89CE02C1124E80EF0E2FF2AF4
:101BC0000EC09E3229F4F6FC6BC140E4F42A07C033
:101BD0009C3619F450E8F52A02C0983649F4F2010F
:101BE00023FD959123FF91912F01992309F0B8CFFF
:101BF000892F8554833018F08052833038F444E0C4
:101C000050E0A40EB51E5FE359830FC0933631F048
:101C1000933779F0933509F056C020C0F5018081E3
:101C2000898342E050E0A40EB51E610101E010E09E
:101C300012C0F501C080D180F6FC03C06FEF7FEFCA
:101C400002C0692D70E042E050E0A40EB51EC6014E
:101C50000E94630F8C015FE7F52214C0F501C0807C
:101C6000D180F6FC03C06FEF7FEF02C0692D70E0FA
:101C700042E050E0A40EB51EC6010E94580F8C0130
:101C800050E8F52AF3FE07C01AC080E290E0B301E5
:101C90000E946E0FEA948E2D90E008171907A8F3A2
:101CA0000EC0F601F7FC8591F7FE81916F0190E07F
:101CB000B3010E946E0FE110EA940150104001152B
:101CC000110579F7EAC0943611F0993669F5F7FEF7
:101CD00008C0F501208131814281538184E090E088
:101CE0000AC0F501808191819C01442737FD409510
:101CF000542F82E090E0A80EB91E9FE6F92257FF0C
:101D000009C050954095309521953F4F4F4F5F4FFB
:101D1000E0E8FE2ACA01B901A1012AE030E00E94F0
:101D20009A0FD82ED21840C0953729F41F2D1F7E48
:101D30002AE030E01DC01F2D197F9F3661F09037DB
:101D400020F4983509F0ACC00FC0903739F09837BF
:101D500009F0A6C004C028E030E00AC0106114FDFC
:101D6000146020E130E004C014FD166020E132E090
:101D700017FF08C0F501608171818281938144E081
:101D800050E008C0F50180819181BC0180E090E0C5
:101D900042E050E0A40EB51EA1010E949A0FD82E79
:101DA000D2188FE7F82EF122F6FE0BC05EEFF52277
:101DB000D91438F4F4FE07C0F2FC05C08FEEF82207
:101DC00002C01D2D01C0192DF4FE0DC0FE01ED0D48
:101DD000F11D8081803319F499EEF92208C01F5F4C
:101DE000F2FE05C003C08F2D867809F01F5F0F2D0E
:101DF000F3FC14C0F0FE0FC01E1510F09D2C0BC09C
:101E00009D2C9E0C911A1E2D06C080E290E0B3011D
:101E10000E946E0F1F5F1E15C0F304C01E1510F444
:101E2000E11A01C0EE2404FF0FC080E390E0B3018B
:101E30000E946E0F02FF1DC001FD03C088E790E005
:101E40000EC088E590E00BC0802F867891F001FFEE
:101E500002C08BE201C080E2F7FC8DE290E0B301AA
:101E60000E946E0F06C080E390E0B3010E946E0FE7
:101E70009A94D914C0F3DA94F101ED0DF11D80812B
:101E800090E0B3010E946E0FDD20A9F706C080E24A
:101E900090E0B3010E946E0FEA94EE20C1F743CEAA
:101EA000F30166817781CB012B96E2E10C948E865B
:101EB000FC010590615070400110D8F78095909515
:101EC0008E0F9F1F0895FC0161507040019001101A
:101ED000D8F7809590958E0F9F1F08950F931F93AD
:101EE000CF93DF938C01EB018B8181FF1BC082FFBD
:101EF0000DC02E813F818C819D812817390764F4A4
:101F0000E881F9810193F983E88306C0E885F985C2
:101F1000802F0995892B31F48E819F8101969F83B3
:101F20008E8302C00FEF1FEFC801DF91CF911F9189
:101F30000F910895FA01AA27283051F1203181F13B
:101F4000E8946F936E7F6E5F7F4F8F4F9F4FAF4FC1
:101F5000B1E03ED0B4E03CD0670F781F891F9A1FD4
:101F6000A11D680F791F8A1F911DA11D6A0F711D88
:101F7000811D911DA11D20D009F468943F912AE094
:101F8000269F11243019305D3193DEF6CF0108957C
:101F9000462F4770405D4193B3E00FD0C9F7F6CFAD
:101FA000462F4F70405D4A3318F0495D31FD405275
:101FB000419302D0A9F7EACFB4E0A695979587950B
:101FC00077956795BA95C9F70097610571050895EA
:101FD0009B01AC010A2E0694579547953795279596
:101FE000BA95C9F7620F731F841F951FA01D08952E
:101FF000FC014281242F30E0C901959587958065C9
:102000008CBD40FF02C080E004C080E0463009F093
:1020100081E08DBD8081E82FF0E00E942479089551
:10202000DF92EF92FF920F931F93CF93DF93EC0118
:10203000D62E79018A010E94F80F0FB6F89480918C
:10204000CA0D9091CB0DA091CC0DB091CD0D0FBECE
:102050009C014FEF10C00FB6F8948091CA0D90917B
:10206000CB0DA091CC0DB091CD0D0FBE821B930B6B
:102070008C52914038F44EBD0DB407FEFDCF8EB5A5
:102080008F3F49F78D2D80648EBD0DB407FEFDCFC7
:1020900028E130E0D801C701022E04C0B695A7950B
:1020A000979587950A94D2F78EBD0DB407FEFDCFA4
:1020B000285030408FEF283F380761F7DD2011F4BA
:1020C00085E906C058E0D51611F487E801C08FEF06
:1020D0008EBD0DB407FEFDCF8CE0D81631F48FEF26
:1020E0008EBD0DB407FEFDCF8EB59FEF2FEF2EBD39
:1020F0000DB407FEFDCF8EB587FF04C0992311F004
:102100009150F5CF8B83DF91CF911F910F91FF906D
:10211000EF90DF900895BF92CF92DF92EF92FF92FF
:102120000F931F938C01B62E69017A0167E320E0BB
:1021300030E040E050E00E941010C8016B2DA70174
:1021400096010E9410101F910F91FF90EF90DF9069
:10215000CF90BF900895FC018081E82FF0E00E94AD
:102160001E790895DC016EBDFA0120E030E00DB467
:1021700007FEFDCF80818EBD0DB407FEFDCF8181AE
:102180008EBD2E5F3F4F329682E02030380779F7C0
:102190000DB407FEFDCF8FEF8EBD0DB407FEFDCF52
:1021A0008FEF8EBD0DB407FEFDCF8FEF8EBD0DB44A
:1021B00007FEFDCF8EB513968C9313978F718530E4
:1021C00011F481E0089583E111968C931197CD016C
:1021D0000E94AB1080E00895CF92DF92EF92FF92C1
:1021E0000F931F93CF93DF93EC017A018B01690169
:1021F0008C81833039F059E0EE0CFF1C001F111F59
:102200005A95D1F7CE0168E1A80197010E941010FC
:10221000882311F086E037C0CE016EEFA6010E9440
:10222000B210882389F10FB6F8948091CA0D90916D
:10223000CB0DA091CC0DB091CD0D0FBE9C014FEFF9
:1022400010C00FB6F8948091CA0D9091CB0DA0915B
:10225000CC0DB091CD0D0FBE821B930B88559240D3
:1022600040F44EBD0DB407FEFDCF1EB51F3F49F72C
:1022700018C087E108C01EBD0DB407FEFDCF8EB5A6
:102280008823D1F086E18983CE010E94AB1080E0E3
:10229000DF91CF911F910F91FF90EF90DF90CF9042
:1022A0000895CE016DE020E030E040E050E00E9473
:1022B0001010882339F7DFCFCE010E94AB1081E0E8
:1022C000E7CFCF93DF93EC010FB6F8948091CA0D5E
:1022D0009091CB0DA091CC0DB091CD0D0FBEFC0116
:1022E0003FEF13C00FB6F8948091CA0D9091CB0DBB
:1022F000A091CC0DB091CD0D0FBE8E1B9F0B8D52BA
:10230000914018F02B8381E10BC03EBD0DB407FE58
:10231000FDCF2EB52F3F31F32B832E3F39F08FE0C9
:102320008983CE010E94AB1080E02FC0DA011197A3
:10233000452BD9F08FEF8EBD20E030E09FEF0BC032
:102340000DB407FEFDCF8EB5FB01E20FF31F8083B6
:102350009EBD2F5F3F4F2A173B0790F30DB407FE3A
:10236000FDCF8EB5A60FB71F8C938FEF8EBD0DB42A
:1023700007FEFDCF8EB58FEF8EBD0DB407FEFDCFEE
:102380008EB5CE010E94AB1081E0DF91CF91089510
:10239000CF92DF92EF92FF920F931F93CF93DF9331
:1023A000EC017A018B0169018C81833039F0A9E05D
:1023B000EE0CFF1C001F111FAA95D1F7CE0161E1A1
:1023C000A80197010E941010882339F084E08983C6
:1023D000CE010E94AB1080E006C0CE01B60140E005
:1023E00052E00E946111DF91CF911F910F91FF90F8
:1023F000EF90DF90CF900895BF92CF92DF92EF924F
:10240000FF920F931F93CF93DF93EC01B62E842F8F
:102410001C82198248830FB6F8942091CA0D30911E
:10242000CB0D4091CC0D5091CD0D0FBE69010E9496
:102430000A79CE010E94AB1023982B98229A219AF8
:10244000209A289A85E08A8382E58CBD1DBC80E0B5
:102450009FEF9EBD0DB407FEFDCF8F5F8A30C9F799
:1024600012C00FB6F8948091CA0D9091CB0DA09137
:10247000CC0DB091CD0D0FBE8C199D09815D97409B
:1024800010F081E05FC0CE0160E020E030E040E08D
:1024900050E00E941010182F8B83813011F7CE016D
:1024A00068E02AEA31E040E050E00E94101082FF2C
:1024B00002C01C8311C080E02FEF2EBD0DB407FEBB
:1024C000FDCF9EB58F5F8430C1F79B839A3A11F0A0
:1024D00082E038C082E08C838C81823021F0EE244F
:1024E000FF24870118C0E12CF12C012D00E4102FEE
:1024F00012C00FB6F8948091CA0D9091CB0DA091A7
:10250000CC0DB091CD0D0FBE8C199D09815D97400A
:1025100010F08AE017C0CE0169E2A80197010E947D
:102520008B108B83882329F78C81823029F5CE018B
:102530006AE320E030E040E050E00E941010882381
:1025400031F088E08983CE010E94AB1021C08FEF6B
:102550008EBD0DB407FEFDCF8EB5807C803C11F49E
:1025600083E08C8380E09FEF9EBD0DB407FEFDCF1E
:102570002EB58F5F8330C1F7CE010E94AB1086E08D
:102580008B1518F488E1898303C0BA8281E001C009
:1025900080E0DF91CF911F910F91FF90EF90DF903E
:1025A000CF90BF900895DF93CF930F92CDB7DEB752
:1025B000FC016983A081B18112962D913C91139702
:1025C000BE016F5F7F4F41E050E0F90109950F9028
:1025D000CF91DF910895FC01148A178A138A2EED9A
:1025E00032E0328B218B14AA17AA13AA32AB21AB8B
:1025F000EE5AFF4F10823396108234971082329336
:102600002293B196108233961082349710823293BF
:1026100022937F9689E18083339610827896108288
:102620003A96108233961082349710823293229316
:102630007E96108211821282138238961082118245
:1026400012821382E45DF040118212821082E852FD
:10265000FF4F81E08083E85DF040108A17860FB657
:10266000F8948091CA0D9091CB0DA091CC0DB091B2
:10267000CD0D0FBEE053FF4F88579C4EAF4FBF4F5D
:1026800080839183A283B3830895FC011182128217
:102690000895FC018281882311F081E081830895EF
:1026A000FC0181818111118208950F931F938C0188
:1026B0000E94661C0E94431CF801118280E091E098
:1026C0000E947E5A1F910F910895CF93DF93DB01F3
:1026D0000D900020E9F71197A61BB70BEC01E881DC
:1026E000F9810280F381E02DAD010995DF91CF9151
:1026F0000895FC018EED92E091838083868188238A
:1027000021F0CF0103960E94C3680895EF92FF92D3
:102710000F931F937C018C010F541F4FC8010E941F
:102720007368C8010E94C368F70110821F910F915E
:10273000FF90EF900895CF92DF92EF92FF920F9368
:102740001F93CF93DF937C016B01DB010D90002081
:10275000E9F78D0101501040061B170BE1EBF0E08B
:10276000EE0EFF1ED7011C92EFE4FFEFEE0EFF1EF0
:10277000CB016EE470E00E940E0DEC01009731F485
:10278000F8013197EC0DFD1D86010EC060E270E08E
:102790000E940E0D8C010F5F1F4FCE016AE270E0A8
:1027A0000E940E0DFC0131978DE081838AE08283C7
:1027B0001382C70182559F4FB8010E94F55A81EBE1
:1027C00090E0E80EF91ED7018C91882309F1EEEF15
:1027D000F0E06491EF0107C082ED9DE00E94D3120A
:1027E0002196FE0164916623B9F7E5E0F1E064917A
:1027F000EF0107C082ED9DE00E94D3122196FE01F9
:1028000064916623B9F782ED9DE06AE00E94D312DD
:10281000DF91CF911F910F91FF90EF90DF90CF90BC
:102820000895EF92FF920F93CF93DF937C01FC0109
:102830008281882309F43FC0EDE2F1E06491EF0169
:1028400007C082ED9DE00E94D3122196FE016491A3
:102850006623B9F784ED90E0E80EF91EF701408198
:102860005181628173818CE29FEFE80EF91E82ED47
:102870009DE02AE000E00E94EC7FEBE2F1E0649151
:10288000EF0107C082ED9DE00E94D3122196FE0168
:1028900064916623B9F78CEC90E0E80EF91EF7011D
:1028A000408151816281738182ED9DE02AE000E0E8
:1028B0000E94EC7F0EC0EBE1F1E06491EF0107C0F4
:1028C00082ED9DE00E94D3122196FE016491662361
:1028D000B9F782ED9DE06AE00E94D312DF91CF91BB
:1028E0000F91FF90EF9008952F923F924F925F9239
:1028F0006F927F928F929F92AF92BF92CF92DF9210
:10290000EF92FF920F931F93DF93CF93CDB7DEB774
:10291000AC970FB6F894DEBF0FBECDBF5C014B0184
:102920004CA7FC018281882309F4A4C131EB432E1A
:10293000512C4A0C5B1CC2010E94C368F501118234
:10294000198A1C8A188A8EED92E09F878E87C501AE
:10295000419690AB87A7F40180818F3209F080C047
:10296000C4016FE270E00E940E0D7C010894E11C2E
:10297000F11C3E010894611C711C21E1222E312CB6
:102980002C0E3D1E68C0C7016FE270E00E940E0D64
:102990006C01009709F46CC0E816F90608F068C0ED
:1029A0008C010E191F09C301B701A8010E942E0D49
:1029B000060D171DF801108282ED9DE0B3010E9403
:1029C000651382ED9DE06AE00E94D312F50167A5D0
:1029D00070A96115710519F460E070E002C06D5FC7
:1029E0007F4FC101A30121E00E945A6F882341F566
:1029F000EFEDF1E064917F0109C082ED9DE00E945E
:102A0000D3120894E11CF11CF70164916623A9F725
:102A100082ED9DE0BE016F5F7F4F0E946513EDED7B
:102A2000F1E064917F0109C082ED9DE00E94D31224
:102A30000894E11CF11CF70164916623A9F711C108
:102A40002EE030E02C0F3D1FF50130AB27A77601BB
:102A50000894E11CF11CE114F10409F094CF05C0C5
:102A6000C501C196F50190AB87A7082DD92C02C0EE
:102A70000E2DDF2CF50167A570A9FCA5FF2309F435
:102A8000A1C06115710519F460E070E002C06D5FCE
:102A90007F4FC201402F5D2D21E00E945A6F882395
:102AA00009F469C0A50144535F4F22EC30E0A20E47
:102AB000B31EF50180819181A281B3812EE33FEFA6
:102AC000A20EB31EFA0180839183A283B383E0ED4B
:102AD000F1E064917F0109C082ED9DE00E94D31274
:102AE0000894E11CF11CF70164916623A9F782EDBB
:102AF0009DE0602F7D2D0E946513E9ECF1E064916B
:102B00007F0109C082ED9DE00E94D3120894E11C70
:102B1000F11CF70164916623A9F72CEC30E0A20EBA
:102B2000B31EF501408151816281738182ED9DE088
:102B30002AE000E00E94EC7F82ED9DE06AE00E94C6
:102B4000D31228E030E0A20EB31EF50110821182EC
:102B500012821382EBEBF1E064917F0109C082EDF8
:102B60009DE00E94D3120894E11CF11CF7016491CE
:102B70006623A9F776C0E7EAF1E064917F0109C016
:102B800082ED9DE00E94D3120894E11CF11CF70134
:102B900064916623A9F782ED9DE0602F7D2D0E9450
:102BA0006513E5EAF1E064917F0109C082ED9DE0E3
:102BB0000E94D3120894E11CF11CF7016491662372
:102BC000A9F74FC06115710519F460E070E002C00B
:102BD0006D5F7F4FC201402F5D2D26E50E945A6F29
:102BE000882339F5E1E9F1E064917F0109C082EDC4
:102BF0009DE00E94D3120894E11CF11CF70164913E
:102C00006623A9F782ED9DE0602F7D2D0E9465135C
:102C1000EFE8F1E064917F0109C082ED9DE00E9440
:102C2000D3120894E11CF11CF70164916623A9F703
:102C300018C081E0F5018083EDE7F1E064917F0148
:102C400009C082ED9DE00E94D3120894E11CF11CA2
:102C5000F70164916623A9F782ED9DE0B4010E941B
:102C6000651382ED9DE06AE00E94D312CE010E96BC
:102C70000E947913AC960FB6F894DEBF0FBECDBF9D
:102C8000CF91DF911F910F91FF90EF90DF90CF9048
:102C9000BF90AF909F908F907F906F905F904F907C
:102CA0003F902F9008952F923F924F925F926F9294
:102CB0007F928F929F92AF92BF92CF92DF92EF92CC
:102CC000FF920F931F93DF93CF93CDB7DEB7AB97F0
:102CD0000FB6F894DEBF0FBECDBF5C014B01FC0107
:102CE0008281882309F400C1C5018F549F4F0E943F
:102CF000C368F5011182198A1C8A188A8EED92E048
:102D00009F878E87C501419690AB87A7F40180818C
:102D10008F3209F081C0C4016FE270E00E940E0D95
:102D20007C010894E11CF11C3E010894611C711C9B
:102D30005EE0252E312C2C0E3D1E41E1442E512CFF
:102D40004C0E5D1E64C0C7016FE270E00E940E0D64
:102D50006C01009709F468C0E816F90608F064C031
:102D60008C010E191F09C301B701A8010E942E0D85
:102D7000060D171DF801108282ED9DE0B3010E943F
:102D8000651382ED9DE06AE00E94D312F50167A50C
:102D900070A96115710519F460E070E002C06D5F03
:102DA0007F4FC201A30121E00E945A6F882341F5A1
:102DB000E9E6F1E064917F0109C082ED9DE00E94A7
:102DC000D3120894E11CF11CF70164916623A9F762
:102DD00082ED9DE0BE016F5F7F4F0E946513E7E6C5
:102DE000F1E064917F0109C082ED9DE00E94D31261
:102DF0000894E11CF11CF70164916623A9F76BC0EC
:102E0000F50130AA27A676010894E11CF11CE11413
:102E1000F10409F098CF05C0C501C196F50190AB4A
:102E200087A7D82C092D02C0DE2C0F2DF50187A510
:102E300090A9009719F480E090E001C003966D2DF1
:102E4000702F0E942C70882301F1E9E5F1E0649174
:102E50007F0109C082ED9DE00E94D3120894E11C1D
:102E6000F11CF70164916623A9F782ED9DE06D2DB9
:102E7000702F0E94651384ED90E0A80EB91EF50135
:102E800010821182128213822BC0E1E4F1E064917E
:102E90007F0109C082ED9DE00E94D3120894E11CDD
:102EA000F11CF70164916623A9F782ED9DE06D2D79
:102EB000702F0E946513EFE3F1E064917F0109C078
:102EC00082ED9DE00E94D3120894E11CF11CF701F1
:102ED00064916623A9F782ED9DE06AE00E94D31217
:102EE000CE010E960E947913AB960FB6F894DEBF12
:102EF0000FBECDBFCF91DF911F910F91FF90EF904B
:102F0000DF90CF90BF90AF909F908F907F906F9009
:102F10005F904F903F902F900895EF92FF920F9304
:102F20001F93CF93DF937C01FC0112828789882352
:102F300021F0C70144960E94C368870105571F4FBF
:102F4000C80160E04AE10E94FC118823E9F4E3EE45
:102F5000F0E06491EF0107C082ED9DE00E94D31282
:102F60002196FE0164916623B9F7E9E4F2E06491E9
:102F7000EF0107C082ED9DE00E94D3122196FE0171
:102F800064916623B9F771C0E701C057DF4FCE01E6
:102F9000B80141E00E94CD74882321F5CE01B8012B
:102FA00040E00E94CD748823E9F4EEEFF0E06491F4
:102FB000EF0107C082ED9DE00E94D3122196FE0131
:102FC00064916623B9F7E6E3F2E06491EF0107C08C
:102FD00082ED9DE00E94D3122196FE01649166234A
:102FE000B9F743C0C7014496BE010E944D6B8823C8
:102FF000E9F4EEEFF0E06491EF0107C082ED9DE0AF
:103000000E94D3122196FE0164916623B9F7E6E28D
:10301000F2E06491EF0107C082ED9DE00E94D312BF
:103020002196FE0164916623B9F71FC081E0F70184
:103030008283E3EEF0E06491EF0107C082ED9DE052
:103040000E94D3122196FE0164916623B9F7EBE149
:10305000F2E06491EF0107C082ED9DE00E94D3127F
:103060002196FE0164916623B9F782ED9DE06AE046
:103070000E94D312C7014196F70190AB87A7C70101
:10308000C49620E930E0E20EF31EB7010E944D6BBA
:10309000882399F4E7E0F2E06491EF0107C082ED44
:1030A0009DE00E94D3122196FE0164916623B9F738
:1030B00082ED9DE06AE00E94D312DF91CF911F91D3
:1030C0000F91FF90EF9008952F923F924F925F9251
:1030D0007F928F929F92AF92BF92CF92DF92EF92A8
:1030E000FF920F931F93DF93CF93CDB7DEB7CC55ED
:1030F000D0400FB6F894DEBF0FBECDBF7C01662373
:1031000059F528ED30E0E20EF31ED7018C91E8E28C
:10311000FFEFEE0EFF1E882309F4F3C00FB6F894FC
:103120002091CA0D3091CB0D4091CC0D5091CD0D19
:103130000FBE60ED70E0E60EF71EF7018081918111
:10314000A281B38160E37FEFE60EF71E821793073B
:10315000A407B50708F4D5C088ED90E0E80EF91E85
:10316000D7011C92E8E2FFEFEE0EFF1ED701129688
:103170008C91882341F4C7010E948D17F701828149
:10318000882309F4BEC000D000D000D0EDB7FEB750
:1031900031968E010F5F1F4FADB7BEB712961C93CD
:1031A0000E9311978CE091E093838283D7011F9651
:1031B0008D919C915097958384830E94570DCC24C8
:1031C000DD24EDB7FEB736960FB6F894FEBF0FBEFE
:1031D000EDBF58010AC0D8018C91992787FD9095C1
:1031E0000E946786F80181938F01C601F501019065
:1031F0000020E9F73197EA19FB090894C11CD11C9A
:103200008E179F0744F3E4E18E2E912C8E0C9F1CA9
:10321000C40140E050E060E070E00E94A9677724BC
:103220007DE3A72EB12CAC0EBD1E1E010894211CFF
:10323000311C6FE1462E512C4C0E5D1E48C0D6014C
:103240008C9190E00E946786F60181936F01C8011E
:10325000F50101900020E9F73197EA19FB090F5FAA
:103260001F4F8E179F075CF327968FAD27978E37DA
:1032700071F1C501B10145E050E00E94200D0097B9
:1032800031F500D000D000D0EDB7FEB73196ADB724
:10329000BEB712965C924E92119725E131E03383CE
:1032A0002283358224820E94570D6DB77EB76A5FF4
:1032B0007F4F0FB6F8947EBF0FBE6DBFC2010E9454
:1032C0007E5A8CE191E00E947E5A77247394C40167
:1032D000B5010E94C36A181624F4650100E010E0ED
:1032E000B6CF772041F48FEF9FEFD70150969C9394
:1032F0008E931F9706C0F701878590890196908B62
:103300008787C45ADF4F0FB6F894DEBF0FBECDBF1C
:10331000CF91DF911F910F91FF90EF90DF90CF90B1
:10332000BF90AF909F908F907F905F904F903F9015
:103330002F9008952F923F924F925F926F927F92BB
:103340008F929F92AF92BF92CF92DF92EF92FF92B5
:103350000F931F93DF93CF93CDB7DEB7CB58D040F9
:103360000FB6F894DEBF0FBECDBF6C012B015A0122
:1033700083E090E0A80EB91EF6013396CC57DF4FDC
:10338000F983E883C458D040CA57DF4F1882C65823
:10339000D04014E6E12EF12CEC0EFD1EC7010B9679
:1033A000C957DF4F99838883C758D040B9ED6B2E3A
:1033B000712C6C0C7D1CABED8A2E912C8C0C9D1C01
:1033C000F6E42F2E312C2C0E3D1EF1013396C757FB
:1033D000DF4FF983E883C958D040E3EEF0E08491F1
:1033E000C557DF4F8883CB58D04026C1F70183856E
:1033F000482F50E0BA01687170706031710509F0B2
:1034000023C1F301208131812130310509F41CC130
:103410002230310509F418C1F701DE0111969081BF
:10342000903239F08E2F8E19883011F48EE28D9300
:103430009D933196C957DF4F88819981C758D040F5
:10344000E817F90761F71C921E86F2018081882334
:1034500031F4CE010E9660E271E00E94030DCE01C0
:103460000E96B2010E94030DCE010E96BE016F5F53
:103470007F4F0E94030DCE010E9660E271E00E9424
:10348000030D1BA61EA61AA68EED92E099A788A78B
:10349000CE018B96B501AE014F5F5F4F21E00E94D8
:1034A0005A6F882371F5F30180819181892B49F549
:1034B000C557DF4F6881CB58D04003EE10E008C0FD
:1034C00082ED9DE00E94D3120F5F1F4FF8016491BF
:1034D0006623B1F782ED9DE062E271E00E94651320
:1034E00082ED9DE06AE00E94D31282ED9DE0BE0174
:1034F0006F5F7F4F0E94651382ED9DE06AE00E943E
:10350000D312C757DF4FA881B981C958D040FE01F7
:10351000BB968BE101900D928150E1F78AA5F101F4
:1035200082838EED92E091838083C601BE01625F4B
:103530007F4FA1010E949A19C1010E947913CE0107
:1035400088960E94791378C0953E09F475C09E3222
:1035500009F472C09F3509F46FC043FD6DC080E06F
:103560006031710509F481E0F6018687882349F40A
:10357000F7018085873409F05FC081858E3709F4B3
:103580005BC0CC57DF4FA881B981C458D040F70148
:103590008081803241F08E2F8E19883011F48EE2B6
:1035A0008D9380818D933196C957DF4F88819981A2
:1035B000C758D040E817F90759F71C92F3018081EA
:1035C00091810097A9F482ED9DE0B2010E946513FC
:1035D00082ED9DE0CC57DF4F68817981C458D0409F
:1035E0000E94651382ED9DE06AE00E94D31224C020
:1035F0008130910539F4F4018081918101969183A4
:1036000080831AC00297C1F4CA57DF4FF881C658A9
:10361000D0402F2F30E0F4018081918128173907A5
:10362000C1F0CA57DF4FF881C658D040FF5FCA5774
:10363000DF4FF883C658D040C501B7010E94C36A66
:1036400018160CF4D3CE05C0F7019081992309F028
:103650007BCFC557DF4F0FB6F894DEBF0FBECDBF8F
:10366000CF91DF911F910F91FF90EF90DF90CF905E
:10367000BF90AF909F908F907F906F905F904F9092
:103680003F902F900895EF92FF920F931F93DF9337
:10369000CF93CDB7DEB76E970FB6F894DEBF0FBEEF
:1036A000CDBF7C0189ED90E0E80EF91EF701118293
:1036B000108287E29FEFE80EF91E87010C5E1F4F14
:1036C000C80140E050E060E070E00E94A967DE01C0
:1036D0001496F8018BE101900D928150E1F7F7010A
:1036E00083898B838EED92E09A838983C70165E39A
:1036F00071E08E010F5F1F4FA8010E949A19C80147
:103700000E9479136E960FB6F894DEBF0FBECDBF40
:10371000CF91DF911F910F91FF90EF90089510923C
:103720002C0310922E0310923003089580932002F0
:103730000895EFE6F0E08081826080830895099A21
:103740000B9A0D9A0F9A6F9A779A6E9A769A3F9A79
:10375000479A3B9A439A6B98739A2098289A6C9848
:10376000749A089A779A0A9A769A0C9A479A0E9AB5
:10377000439AA1E8B0E08C918F7E8C938C91886005
:103780008C93E0E8F0E080818D7F808380818E7F64
:10379000808380818F73808380818F7C80838C91F4
:1037A000887F82608C9380E090E49093890080937E
:1037B00088001092850010928400EFE6F0E080818E
:1037C0008260808310922002789408951F93FC01F8
:1037D0001FB7F89480819181A281B3818093060301
:1037E00090930703A0930803B0930903FB01808122
:1037F0009181A281B38180930A0390930B03A093DC
:103800000C03B0930D03FA0180819181A281B381F1
:1038100080930E0390930F03A0931003B0931103B2
:10382000F90180819181A281B381809312039093E9
:103830001303A0931403B09315031FBF1F910895A2
:10384000FC012FB7F89480819181A281B38180938C
:10385000120390931303A0931403B09315032FBF87
:103860000895E82F8FB7F894F0E0EE0FFF1FEE0FEA
:10387000FF1FEA5FFC4F20813181428153818FBF5E
:10388000B901CA01089580916F008D7F80936F0008
:1038900006C080917F088F5F8F7080937F08909122
:1038A0007E0880917F08981751F41092F9021092C7
:1038B000F80280916F00826080936F00089590916C
:1038C0007E0880917F08981751F3E3CF90917E088E
:1038D00080917F08981731F00E94425F81E00E943A
:1038E000A738F4CF08950E94661C779A769A479A73
:1038F000439A08951F920F920FB60F920BB60F9234
:103900001124AF92BF92CF92DF92EF92FF920F936A
:103910001F932F933F934F935F936F937F938F9357
:103920009F93AF93BF93CF93DF93EF93FF938091D8
:10393000F8029091F902892B09F08BC190917E08D1
:1039400080917F08981719F4E0E0F0E014C08091AE
:103950007F0890E02DE430E0829FF001839FF00D1E
:10396000929FF00D1124E255FC4FE45BFF4F81E084
:103970008083EC54F040F093F902E093F802309722
:1039800009F461C1109238031092390310923A037E
:1039900010923B0344AD55AD50933703409336032B
:1039A0002CE94134520718F040E45CE904C03EE4DD
:1039B0004132530730F0569547955695479584E028
:1039C00007C067E24131560730F05695479582E0CF
:1039D0008093310308C081E0809331034032510568
:1039E00010F440E250E08A010052104078E00030CC
:1039F0001707E8F0412F50E0440F551F440F551FA3
:103A00004A5A5D4F9A012E5F3F4FF901859194917B
:103A10009C01AA27039FC001029F810D9A1F069453
:103A20008A1F9A1F1124FA01459154911EC0C801A2
:103A3000969587958C7F8A5A994FFC0145915491B0
:103A4000FC01329625913491802F90E08770907020
:103A5000BC01269FC001279F900D369F900D112419
:103A6000F3E096958795FA95E1F7481B590B443694
:103A70005105A8F482ED9DE066E371E00E946513B4
:103A8000A80160E070E082ED9DE02AE000E00E9485
:103A9000EC7F82ED9DE00E94D07F44E650E0CA01B9
:103AA000A0E0B0E08093320390933303A0933403FB
:103AB000B09335035093890040938800E091F80259
:103AC000F091F90240AD51AD7CE94134570718F04F
:103AD00040E45CE904C08EE44132580730F056956A
:103AE00047955695479584E007C097E241315907BD
:103AF00030F05695479582E08093310308C081E00D
:103B0000809331034032510510F440E250E08A01C5
:103B100000521040E8E000301E07E8F0412F50E06E
:103B2000440F551F440F551F4A5A5D4F9A012E5F8F
:103B30003F4FF901859194919C01AA27039FC001F1
:103B4000029F810D9A1F06948A1F9A1F1124FA0161
:103B5000459154911EC0C801969587958C7F8A5ACD
:103B6000994FFC0145915491FC0132962591349175
:103B7000802F90E087709070BC01269FC001279F26
:103B8000900D369F900D112433E0969587953A95C8
:103B9000E1F7481B590B44365105A8F482ED9DE02E
:103BA00066E371E00E946513A80160E070E082EDB9
:103BB0009DE02AE000E00E94EC7F82ED9DE00E9403
:103BC000D07F44E650E050933D0340933C03E091A6
:103BD000F802F091F90280899189A289B389B6959A
:103BE000A79597958795B095A095909581959F4FAE
:103BF000AF4FBF4F8093160390931703A093180302
:103C0000B093190380931A0390931B03A0931C0392
:103C1000B0931D0380931E0390931F03A093200372
:103C2000B09321038093220390932303A093240352
:103C3000B0932503109226031092270310922803B5
:103C40001092290306C080ED97E09093890080933D
:103C50008800E091F802F091F902309709F448C425
:103C600080A180932A0380FF3CC0119A8FEF80933C
:103C70001C02809120028823C1F1639902C080E078
:103C80002DC080912B03882341F180819181A281F5
:103C9000B381181619061A061B06FCF48091060358
:103CA00090910703A0910803B09109038093FA0251
:103CB0009093FB02A093FC02B093FD0281E08093FD
:103CC0002C0380899189A289B389809326039093DC
:103CD0002703A0932803B093290381E080932B034B
:103CE00004C0119881E080931C0280912A0381FF17
:103CF0003EC0139A8FEF80931D028091200288238B
:103D0000D1F183B190E081709070282F882361F108
:103D100080912D03882341F184819581A681B7810B
:103D2000181619061A061B06FCF480910A039091D6
:103D30000B03A0910C03B0910D038093FE029093AE
:103D4000FF02A0930003B093010381E080932E0350
:103D500080899189A289B389809326039093270350
:103D6000A0932803B093290320932D0304C0139834
:103D700081E080931D0280912A0382FF3CC0159A46
:103D80008FEF80931E02809120028823C1F16499F5
:103D900002C080E02DC080912F03882341F18085EF
:103DA0009185A285B385181619061A061B06FCF420
:103DB00080910E0390910F03A0911003B091110315
:103DC0008093020390930303A0930403B09305032D
:103DD00081E08093300380899189A289B38980939F
:103DE000260390932703A0932803B093290381E02F
:103DF00080932F0304C0159881E080931E02809168
:103E00002A0383FF06C017988FEF80931F0260E09C
:103E100050C1179A81E0F9CF2081318142815381CD
:103E20008091160390911703A0911803B091190384
:103E3000280F391F4A1F5B1F209316033093170367
:103E4000409318035093190312161306140615060F
:103E50006CF5109A80899189A289B389281B390B46
:103E60004A0B5B0B20931603309317034093180300
:103E70005093190310982091060330910703409145
:103E800008035091090380911C02992787FD9095A2
:103E9000A92FB92F820F931FA41FB51F809306036C
:103EA00090930703A0930803B093090324813581FD
:103EB0004681578180911A0390911B03A0911C03A6
:103EC000B0911D03280F391F4A1F5B1F20931A034F
:103ED00030931B0340931C0350931D0312161306CB
:103EE000140615066CF5129A80899189A289B38906
:103EF000281B390B4A0B5B0B20931A0330931B03CF
:103F000040931C0350931D03129820910A03309193
:103F10000B0340910C0350910D0380911D029927D2
:103F200087FD9095A92FB92F820F931FA41FB51F4E
:103F300080930A0390930B03A0930C03B0930D039B
:103F4000208531854285538580911E0390911F0302
:103F5000A0912003B0912103280F391F4A1F5B1F36
:103F600020931E0330931F0340932003509321039B
:103F700012161306140615066CF5149A8089918999
:103F8000A289B389281B390B4A0B5B0B20931E03B4
:103F900030931F03409320035093210314982091E2
:103FA0000E0330910F034091100350911103809143
:103FB0001E02992787FD9095A92FB92F820F931F75
:103FC000A41FB51F80930E0390930F03A0931003BB
:103FD000B09311032485358546855785809122034A
:103FE00090912303A0912403B0912503280F391F3A
:103FF0004A1F5B1F20932203309323034093240323
:104000005093250312161306140615066CF5169A1E
:1040100080899189A289B389281B390B4A0B5B0BD4
:1040200020932203309323034093240350932503CA
:10403000169820911203309113034091140350916C
:10404000150380911F02992787FD9095A92FB92FFD
:10405000820F931FA41FB51F809312039093130325
:10406000A0931403B0931503809126039091270326
:10407000A0912803B09129030196A11DB11D809341
:10408000260390932703A0932803B093290320913C
:1040900026033091270340912803509129038089FA
:1040A0009189A289B389281739074A075B0730F439
:1040B0006F5F8091310368170CF4AECE2091260318
:1040C00030912703409128035091290384899589D1
:1040D000A689B78982179307A407B50708F4E4C037
:1040E000E0903203F09033030091340310913503D4
:1040F000A48CB58CC68CD78CA8019701C601B501DC
:10410000AA27279FB12D389FE001489FD00D479FD8
:10411000C00DD11D289FB00DC11DDA1F379FB00DF6
:10412000C11DDA1F469FB00DC11DDA1F369FB10DAC
:10413000CA1FDA1FB695CA1FDA1F112484AD95ADC8
:104140008C0F9D1F909337038093360320AD31ADC4
:1041500042AD53ADA0E0B0E0281739074A075B072E
:1041600020F4309337032093360340913603509167
:1041700037037CE94134570718F040E45CE904C098
:104180008EE44132580730F056954795569547953D
:1041900084E007C097E24131590730F056954795C2
:1041A00082E08093310308C081E080933103403284
:1041B000510510F440E250E08A0100521040E8E05E
:1041C00000301E07E8F0412F50E0440F551F440F08
:1041D000551F4A5A5D4F9A012E5F3F4FF901859155
:1041E00094919C01AA27039FC001029F810D9A1FF1
:1041F00006948A1F9A1F1124FA01459154911EC0FA
:10420000C801969587958C7F8A5A994FFC014591F4
:104210005491FC01329625913491802F90E0877063
:104220009070BC01269FC001279F900D369F900D76
:104230001124F3E096958795FA95E1F7481B590B01
:1042400044365105A8F482ED9DE066E371E00E94DA
:104250006513A80160E070E082ED9DE02AE000E0D7
:104260000E94EC7F82ED9DE00E94D07F44E650E00A
:1042700050938900409388009A0140E050E080917B
:10428000320390913303A0913403B0913503820F30
:10429000931FA41FB51F8093320390933303A09301
:1042A0003403B0933503FFC02091260330912703D8
:1042B0004091280350912903808D918DA28DB38D5B
:1042C00082179307A407B50708F0E5C0609138038B
:1042D0007091390380913A0390913B03248D358D81
:1042E000468D578DAA27639FB12D749F8001849FAF
:1042F000100D839F000D111D649FB00D011D1A1F2D
:10430000739FB00D011D1A1F829FB00D011D1A1F52
:10431000729FB10D0A1F1A1FB6950A1F1A1F11248A
:1043200080913603909137038017910738F4E05C51
:10433000FF4F40815181E054F04003C0AC01401B6D
:10434000510BE05CFF4F0081118122813381CA0152
:10435000A0E0B0E080179107A207B30708F4A80116
:104360007CE94134570718F040E45CE904C08EE46E
:104370004132580730F0569547955695479584E059
:1043800007C097E24131590730F05695479582E0D2
:104390008093310308C081E080933103403251059E
:1043A00010F440E250E08A0100521040E8E0003092
:1043B0001E07E8F0412F50E0440F551F440F551FD2
:1043C0004A5A5D4F9A012E5F3F4FF90185919491B2
:1043D0009C01AA27039FC001029F810D9A1F06948A
:1043E0008A1F9A1F1124FA01459154911EC0C801D9
:1043F000969587958C7F8A5A994FFC0145915491E7
:10440000FC01329625913491802F90E08770907056
:10441000BC01269FC001279F900D369F900D11244F
:1044200023E0969587952A95E1F7481B590B44366A
:104430005105A8F482ED9DE066E371E00E946513EA
:10444000A80160E070E082ED9DE02AE000E00E94BB
:10445000EC7F82ED9DE00E94D07F44E650E05093D7
:104460008900409388009A0140E050E08091380331
:1044700090913903A0913A03B0913B03820F931FAF
:10448000A41FB51F8093380390933903A0933A0378
:10449000B0933B0308C080913C0390913D039093FF
:1044A0008900809388002091260330912703409152
:1044B000280350912903E091F802F091F9028089D4
:1044C0009189A289B389281739074A075B0780F0C9
:1044D0001092F9021092F80290917E0880917F0864
:1044E000981731F080917F088F5F8F7080937F08DD
:1044F000FF91EF91DF91CF91BF91AF919F918F91FC
:104500007F916F915F914F913F912F911F910F91EB
:10451000FF90EF90DF90CF90BF90AF900F900BBEC9
:104520000F900FBE0F901F901895EF92FF920F9370
:104530001F93DF93CF930F92CDB7DEB780912C03FB
:10454000882349F480912E03882329F48091300335
:10455000882309F4E7C0E6E5FAE084918F017E0143
:104560000894E11CF11C0CC0898382ED9DE0B70129
:1045700041E050E00E941C7E0F5F1F4FF8018491C4
:10458000882391F7E8E6FAE084918F017E01089490
:10459000E11CF11C0CC0898382ED9DE0B70141E074
:1045A00050E00E941C7E0F5F1F4FF801849188230A
:1045B00091F780912C03882391F1E4E6FAE084914D
:1045C0008F017E010894E11CF11C0CC0898382EDEF
:1045D0009DE0B70141E050E00E941C7E0F5F1F4F3D
:1045E000F8018491882391F76091FA027091FB029F
:1045F0008091FC029091FD020E94C682209152039C
:104600003091530340915403509155030E942B82E3
:10461000AB01BC0182ED9DE022E00E948B80809185
:104620002E03882391F1E0E6FAE084918F017E0168
:104630000894E11CF11C0CC0898382ED9DE0B70158
:1046400041E050E00E941C7E0F5F1F4FF8018491F3
:10465000882391F76091FE027091FF028091000320
:10466000909101030E94C682209156033091570316
:1046700040915803509159030E942B82AB01BC0119
:1046800082ED9DE022E00E948B80809130038823A0
:1046900091F1ECE5FAE084918F017E010894E11C30
:1046A000F11C0CC0898382ED9DE0B70141E050E030
:1046B0000E941C7E0F5F1F4FF8018491882391F7A1
:1046C00060910203709103038091040390910503AC
:1046D0000E94C68220915A0330915B0340915C0393
:1046E00050915D030E942B82AB01BC0182ED9DE0E5
:1046F00022E00E948B8082ED9DE06AE471E00E94DE
:1047000065138AE0898382ED9DE0BE016F5F7F4F74
:1047100041E050E00E941C7E10922C0310922E0368
:10472000109230030F90CF91DF911F910F91FF9066
:10473000EF900895CF93DF9390917F0880917E084A
:10474000981709F442C040917F08242F30E08DE48F
:1047500090E0289FF001299FF00D389FF00D112463
:10476000EA50FC4F708160E050E0CDE4D0E028C01A
:10477000242F30E02C9FF0012D9FF00D3C9FF00D79
:104780001124E255FC4F80859185A285B385009761
:10479000A105B10509F06F5F2C9FF0012D9FF00D71
:1047A0003C9FF00D1124EA50FC4F80819181A28141
:1047B000B3810097A105B10509F05F5F4F5F4F70AE
:1047C00080917E084817A1F612C08091980988232D
:1047D00059F03E9A90E090939900809398008091D0
:1047E000900080688093900070E050E002C06623E3
:1047F00009F4479A80919809882341F45523A1F43C
:104800003E9A109299001092980009C0772361F0A7
:104810003E9A872F90E09093990080939800809122
:104820009000806880939000DF91CF9108958093ED
:1048300080080895FC0160817181828193812091BB
:104840005E0330915F0340916003509161030E94C9
:1048500004850E94D4846093AA037093AB03809371
:10486000AC039093AD038AEA93E00E94201C089564
:104870006F927F928F929F92AF92BF92CF92DF9270
:10488000EF92FF920F931F936C014B01FA013901D4
:10489000E080F18002811381C801B701209199095C
:1048A00030919A0940919B0950919C090E9404857E
:1048B00020E030E048EC52E40E942B82F601208197
:1048C0003181428153810E944B812091520330916A
:1048D000530340915403509155030E9404850E9454
:1048E000D4843EE9A32E33E0B32E60939E037093ED
:1048F0009F038093A0039093A103C801B701209167
:104900009D0930919E0940919F095091A0090E94F4
:10491000048520E030E048EC52E40E942B82F40150
:1049200020813181428153810E944B812091560325
:104930003091570340915803509159030E940485C8
:104940000E94D48424E0C22ED12CCA0CDB1C6093BC
:10495000A203F601718382839383C801B70120917A
:104960005A0330915B0340915C0350915D030E94B8
:1049700004850E94D4848501085F1F4F6093A603BD
:10498000F801718382839383F30160817181828155
:10499000938120915E0330915F03409160035091B9
:1049A00061030E9404850E94D484F5013C966093C3
:1049B000AA03718382839383C501B601A8019F0175
:1049C0000E94E61B80E090E0A0E0B0E080938108C8
:1049D00090938208A0938308B093840880938508FD
:1049E00090938608A0938708B093880880938908DD
:1049F00090938A08A0938B08B0938C0880938D08BD
:104A000090938E08A0938F08B0939008809391089C
:104A100090939208A0939308B09394081F910F91DC
:104A2000FF90EF90DF90CF90BF90AF909F908F90CE
:104A30007F906F9008958F929F92AF92BF92CF9286
:104A4000DF92EF92FF920F931F93CF93DF93EC01CE
:104A50006B01009709F45CC08FA9882309F058C046
:104A6000EEA0FFA008A519A5FB01B6A0A7A090A4E1
:104A700081A4C801B7012B2D3A2D492D582D0E9434
:104A8000248288230CF044C0C801B701A801970113
:104A90000E9404857B018C016AA97BA98CA99DA930
:104AA000905820E030E040E050EC0E9404852EA5B4
:104AB0003FA548A959A90E9404859B01AC01C801E2
:104AC000B7010E944B810E9471857B018C016B2D87
:104AD0007A2D892D982D9701A8010E942482882380
:104AE00024F4EB2CFA2C092D182D6B2D7A2D892D01
:104AF000982D9701A8010E942482882349F0C701BC
:104B0000D801F60186A397A3A0A7B1A781E086AB41
:104B1000DF91CF911F910F91FF90EF90DF90CF9099
:104B2000BF90AF909F908F900895EF92FF920F9358
:104B30001F93CF93DF93F0907F0800E010E020E018
:104B400030E04DE4E42E12C0FE9CE0011124C25579
:104B5000DC4FC901B801AE010E941B258F2D8F5F6C
:104B6000803109F480E0F82E98018E0180917E0852
:104B7000F81651F7C901B80140E050E00E941B252A
:104B8000DF91CF911F910F91FF90EF900895AF9219
:104B9000BF92CF92DF92EF92FF920F931F93CF932A
:104BA000DF93EB018A016115710509F466C04115B7
:104BB000510509F462C0DAA4CBA4BCA4ADA46EA1D3
:104BC0007FA188A599A52D2D3C2D4B2D5A2D0E94F6
:104BD0002482882309F451C08FA9882309F043C097
:104BE000F801E6A0F7A000A511A56D2D7C2D8B2D59
:104BF0009A2DA80197010E9432841816A4F5C801C5
:104C0000B701A80197010E9404857B018C016AA964
:104C10007BA98CA99DA9905820E030E040E050ECA1
:104C20000E9404852EA53FA548A959A90E94048584
:104C30009B01AC01C801B7010E944B810E947185A4
:104C40007B018C016D2D7C2D8B2D9A2D9701A80158
:104C50000E942482882324F4ED2CFC2C0B2D1A2D89
:104C6000C701D80104C08D2D9C2DAB2DBA2D8EA36C
:104C70009FA3A8A7B9A781E08EABDF91CF911F9129
:104C80000F91FF90EF90DF90CF90BF90AF9008957D
:104C9000CF92DF92FF920F93DF93CF9300D0CDB7E7
:104CA000DEB780917E0880917E0820917F0890E099
:104CB0004096821B91098F709070049714F10091B7
:104CC0007E0803500F70CC24DD2440E050E06DE4FA
:104CD000F62E13C0802F002309F480E1082F015025
:104CE0000F9DC001112482559C4F9A838983B60180
:104CF0000E94C725A601C980DA8080917F08081725
:104D000049F70F900F90CF91DF910F91FF90DF90B7
:104D1000CF90089510927E0810927F0880E1EEE90E
:104D2000F3E0DF011D928A95E9F780E090E0A0E0D2
:104D3000B0E08093850890938608A0938708B0938D
:104D400088088093890890938A08A0938B08B09371
:104D50008C0880938D0890938E08A0938F08B09351
:104D600090088093910890939208A0939308B09331
:104D700094088093810890938208A0938308B0934D
:104D8000840808952F923F924F925F926F927F9284
:104D90008F929F92AF92BF92CF92DF92EF92FF924B
:104DA0000F931F93DF93CF93CDB7DEB766970FB600
:104DB000F894DEBF0FBECDBF9E8B8D8B6A017B0149
:104DC00048015901DC01D8966D917D918D919C919E
:104DD000DB970E94C482698B7A8B8B8B9C8BA7019B
:104DE00096010E9404850E9411820E9498826D8320
:104DF0007E838F83988769897A898B899C89A501AD
:104E000094010E9404850E9411820E949882698305
:104E10007A838B839C832D813E814F8158852837EF
:104E200031054105510540F448E750E060E070E08D
:104E30004D835E836F83788769817A818B819C81C2
:104E4000683771058105910540F488E790E0A0E09E
:104E5000B0E089839A83AB83BC83AD89BE89AC5BA8
:104E6000BF4FAD90BD90CD90DC901397A454B0404F
:104E7000BE8BAD8BDC966D917D918D919C91DF9772
:104E80000E94C4826D877E878F87988BC601B5018B
:104E90000E94C6821B012C0120E030E040E050E07F
:104EA0000E942482882321F4E0E070E060E028C0C2
:104EB00069897A898B899C899B01AC010E94048550
:104EC0007B018C016D857E858F8598899B01AC0166
:104ED0000E9404859B01AC01C801B7010E944A8170
:104EE0007B018C01C201B101A20191010E944B81A1
:104EF0009B01AC01C801B7010E942B82E62F692FEC
:104F00002E2F372F482F562FB901CA010E94118228
:104F10000E9493823B014C01ED89FE89E05CFF4FCA
:104F200060817181828193810E94C48269877A87BE
:104F30008B879C8766277727CB016A197B098C09A9
:104F40009D090E94C6825B016C0120E030E040E0D8
:104F500050E00E942482882321F4E0E070E060E0C9
:104F600028C069857A858B859C859B01AC010E9450
:104F700004857B018C0169897A898B899C899B01D5
:104F8000AC010E9404859B01AC01C801B7010E94DD
:104F90004A817B018C01C601B501A60195010E94E1
:104FA0004B819B01AC01C801B7010E942B82E62F07
:104FB000692F2E2F372F482F562FB901CA010E9473
:104FC0000183ED89FE89A088B188C288D3888601D3
:104FD0007501E618F708080919090E949382A801CB
:104FE0009701261B370B480B590B57FF71C0C201A5
:104FF000B10120E030E040E050E00E9424828823AC
:1050000021F4E0E070E060E044C0C201B101A2011F
:1050100091010E944B817B018C01C601B5010E9468
:10502000C4829B01AC01C801B7010E9404857B01C9
:105030008C016D857E858F8598899B01AC010E94CE
:1050400004859B01AC01C801B7010E944A817B0124
:105050008C0169857A858B859C859B01AC010E94BA
:1050600004859B01AC01C801B7010E944B817B0103
:105070008C01C201B10120E030E040E850E40E9420
:1050800004859B01AC01C801B7010E942B82E62F69
:10509000692F2E2F372F482F562FB901CA010E9492
:1050A00011820E949382AC01CB01DA013C014D01D7
:1050B00097FE03C06624772443016A147B048C04A2
:1050C0009D0410F03501460120E030E040E050E062
:1050D0009FB7F8946D897E89645B7F4FDB018C916B
:1050E000AC54B040BE8BAD8B882321F5FD01648AA2
:1050F000758A868A978A260D371D481D591D589630
:105100002D933D934D935C935B972D813E814F8111
:105110005885DC962D933D934D935C93DF97A05C6F
:10512000BF4F29813A814B815C812D933D934D93F3
:105130005C9313979FBF66960FB6F894DEBF0FBEC1
:10514000CDBFCF91DF911F910F91FF90EF90DF9036
:10515000CF90BF90AF909F908F907F906F905F9017
:105160004F903F902F9008954F925F927F928F9231
:105170009F92AF92BF92CF92DF92EF92FF920F93E6
:105180001F93CF93DF9370907F08C0E0D0E07DE461
:10519000472E512C46C02097B1F18EA9882361F487
:1051A000849CF001859CF00D949CF00D1124E25537
:1051B000FC4F86A9882339F1EAA0FBA00CA11DA110
:1051C0006EA17FA188A599A5A80197010E942B82B5
:1051D0005B016C01849CF001859CF00D949CF00DAA
:1051E0001124E255FC4F66A177A180A591A5A801E5
:1051F00097010E942B828B019C01CE01B601A50173
:105200000E94C2261EAA739480E1781609F47724BE
:10521000849CE001859CD00D949CD00D1124C25536
:10522000DC4F872C992487FC909480917E0890E035
:105230008816990609F0AFCF2097F1F0EAA0FBA0FD
:105240000CA11DA16EA17FA188A599A5A801970118
:105250000E942B825B016C0160E070E080E090E4D2
:10526000A80197010E942B828B019C01CE01B601FF
:10527000A5010E94C2261EAADF91CF911F910F9116
:10528000FF90EF90DF90CF90BF90AF909F908F9066
:105290007F905F904F9008950E9448260E94952528
:1052A0000E94B42808952F923F924F925F926F927E
:1052B0007F928F929F92AF92BF92CF92DF92EF92A6
:1052C000FF920F931F93DF93CF93CDB7DEB7C756EF
:1052D000D0400FB6F894DEBF0FBECDBF4C013B01EE
:1052E0005A012901A596EFAEA597A696FFAEA697FF
:1052F000A7960FAFA797A8961FAFA8971601809102
:105300007E088F5F803109F480E0282F332727FD46
:1053100030953DA72CA705C00E94425F81E00E9406
:10532000A73880917F0890E04CA55DA5841795076C
:1053300099F3D501ED90FD900D911C91C801B70135
:105340002091990930919A0940919B0950919C09AB
:105350000E94048520E030E048EC52E40E942B8259
:10536000F40120813181428153810E944B8120913F
:1053700052033091530340915403509155030E94BE
:1053800004850E94D48461966FAF619762967FAF67
:10539000629763968FAF639764969FAF6497C801D7
:1053A000B70120919D0930919E0940919F0950912C
:1053B000A0090E94048520E030E048EC52E40E94FD
:1053C0002B82D3012D913D914D915C910E944B8197
:1053D000209156033091570340915803509159033F
:1053E0000E9404850E94D48465966FAF6597669687
:1053F0007FAF669767968FAF679768969FAF6897FE
:10540000C801B70120915A0330915B0340915C03BE
:1054100050915D030E9404850E94D48469966FAF09
:1054200069976A967FAF6A976B968FAF6B976C960A
:105430009FAF6C97F201608171818281938120918D
:105440005E0330915F0340916003509161030E94BD
:1054500004850E94D4846D966FAF6D976E967FAF72
:105460006E976F968FAF6F97A0969FAFA097809122
:10547000AA039091AB03A091AC03B091AD03A096A9
:105480002CAD3DAD4EAD5FADA097281739074A074B
:105490005B0709F45FC060919709E62FF0E0EE0F1B
:1054A000FF1FED58F44F808191810E941E5E20E025
:1054B00030E04AE253E40E94248288230CF04AC080
:1054C00080918008882309F045C0A0968CAD9DADE1
:1054D000AEADBFADA0978093AA039093AB03A0930A
:1054E000AC03B093AD03E7E7FAE084918F017E014E
:1054F0000894E11CF11C0CC0898382ED9DE0B7018A
:1055000041E050E00E941C7E0F5F1F4FF801849124
:10551000882391F7EBE9FAE084918F017E010894EA
:10552000E11CF11C0CC0898382ED9DE0B70141E0D4
:1055300050E00E941C7E0F5F1F4FF801849188236A
:1055400091F78AE0898382ED9DE0B70141E050E068
:105550000E941C7E8091AA039091AB03A091AC03A2
:10556000B091AD03A0962CAD3DAD4EAD5FADA09713
:10557000281B390B4A0B5B0BCA01B90157FF07C047
:1055800090958095709561957F4F8F4F9F4F0E94AA
:10559000C6827B018C0160913702709138022091A4
:1055A000350230913602620F731F882777FD809590
:1055B000982F0E94C68220915E0330915F03409134
:1055C0006003509161030E9404859B01AC01C801F6
:1055D000B7010E94328418160CF045C0A0968CAD1D
:1055E0009DADAEADBFADA0978093AA039093AB03E2
:1055F000A093AC03B093AD03E7E7FAE084918F0189
:105600007E010894E11CF11C0CC0898382ED9DE0B1
:10561000B70141E050E00E941C7E0F5F1F4FF80170
:105620008491882391F7EDE7FAE084918F017E0160
:105630000894E11CF11C0CC0898382ED9DE0B70148
:1056400041E050E00E941C7E0F5F1F4FF8018491E3
:10565000882391F78AE0898382ED9DE0B70141E0DC
:1056600050E00E941C7E80917E08282F30E0249616
:105670003FAF2EAF24978DE490E0289FF001299F43
:10568000F00D389FF00D1124E255FC4FE45BFF4F05
:105690001082EC54F04080919E0390919F03A09162
:1056A000A003B091A10364962CAD3DAD4EAD5FADAE
:1056B0006497281B390B4A0B5B0BDA01C90157FFB2
:1056C00007C0B095A095909581959F4FAF4FBF4F64
:1056D00080839183A283B3838DE490E024964EADC2
:1056E0005FAD2497489FF001499FF00D589FF00D42
:1056F0001124E255FC4F8091A2039091A303A09145
:10570000A403B091A50368962CAD3DAD4EAD5FAD41
:105710006897281B390B4A0B5B0BDA01C90157FF4D
:1057200007C0B095A095909581959F4FAF4FBF4F03
:1057300084839583A683B7838DE490E024964EAD51
:105740005FAD2497489FF001499FF00D589FF00DE1
:105750001124E255FC4F8091A6039091A703A091DC
:10576000A803B091A9036C962CAD3DAD4EAD5FADD5
:105770006C97281B390B4A0B5B0BDA01C90157FFE9
:1057800007C0B095A095909581959F4FAF4FBF4FA3
:1057900080879187A287B3878091AA039091AB03FA
:1057A000A091AC03B091AD03A096ACACBDACCEACB7
:1057B000DFACA097A81AB90ACA0ADB0AD7FE08C04C
:1057C000D094C094B094A094A11CB11CC11CD11C55
:1057D0008DE490E024964EAD5FAD2497489F800104
:1057E000499F100D589F100D112402551C4F5CE06D
:1057F000E52EF12CE00EF11ED8011C96AD92BD9263
:10580000CD92DC921F9720913302309134024427CD
:1058100037FD4095542FC601B5010E94D68524E678
:1058200030E040E050E00E942A86F8012487D7014A
:1058300011963C93119712964C93129713965C9382
:105840006080718082809380A480B580C680D7807C
:10585000E084F18402851385C901DA018E159F0564
:10586000A007B10714F4D801C7018A159B05AC0540
:10587000BD0514F4D601C5019C01AD01861597053F
:10588000A805B90514F4A40193018DE490E02496D1
:10589000EEADFFAD2497E89FB001E99F700DF89F32
:1058A000700D112462557C4FDB0150962D933D9372
:1058B0004D935C935397263031054105510510F403
:1058C0000C94AD35FB01E85BFF4F8091980990E0A7
:1058D000A0E0B0E080839183A283B383FB0110A298
:1058E00080919E0390919F03A091A003B091A1038A
:1058F00064962CAD3DAD4EAD5FAD6497281739076A
:105900004A075B0714F481E080A38091A203909181
:10591000A303A091A403B091A50368962CAD3DAD5F
:105920004EAD5FAD6897281739074A075B0794F4B7
:105930008DE490E024964EAD5FAD2497489FF00132
:10594000499FF00D589FF00D1124E255FC4F80A1A6
:10595000826080A38091A6039091A703A091A803E1
:10596000B091A9036C962CAD3DAD4EAD5FAD6C977B
:10597000281739074A075B0794F48DE490E02496D2
:105980004EAD5FAD2497489FF001499FF00D589FA1
:10599000F00D1124E255FC4F80A1846080A380911A
:1059A000AA039091AB03A091AC03B091AD03A09674
:1059B0002CAD3DAD4EAD5FADA097281739074A0716
:1059C0005B0794F48DE490E024964EAD5FAD249790
:1059D000489FF001499FF00D589FF00D1124E255AA
:1059E000FC4F80A1886080A38DE490E02496AEAD4A
:1059F000BFAD2497A89FF001A99FF00DB89FF00DAF
:105A00001124E255FC4FD1018C9181A32081318179
:105A10004281538122962CAF3DAF4EAF5FAF2297AC
:105A2000211531054105510509F077988DE490E085
:105A300024964EAD5FAD2497489FF001499FF00D2D
:105A4000589FF00D1124E255FC4F84819581A68169
:105A5000B7818AAF9BAFACAFBDAF0097A105B105D1
:105A600009F076988DE490E02496AEADBFAD249712
:105A7000A89FF001A99FF00DB89FF00D1124E255E9
:105A8000FC4F608471848284938461147104810466
:105A9000910409F047988DE490E024962EAD3FAD37
:105AA0002497289FF001299FF00D389FF00D1124B5
:105AB000E255FC4F84859585A685B7850097A1059D
:105AC000B10551F0439820907203309073034090D9
:105AD00074035090750308C020908A0330908B03A4
